{
	"KAMIL SIR/PROJECT03/contracts/Auction-Contract.sol": {
		"Auction": {
			"abi": [
				{
					"inputs": [],
					"stateMutability": "nonpayable",
					"type": "constructor"
				},
				{
					"anonymous": false,
					"inputs": [
						{
							"indexed": false,
							"internalType": "address",
							"name": "bidder",
							"type": "address"
						},
						{
							"indexed": false,
							"internalType": "uint256",
							"name": "amount",
							"type": "uint256"
						},
						{
							"indexed": false,
							"internalType": "string",
							"name": "actionFor",
							"type": "string"
						}
					],
					"name": "bidInfo",
					"type": "event"
				},
				{
					"inputs": [],
					"name": "Auctioneer",
					"outputs": [
						{
							"internalType": "address",
							"name": "",
							"type": "address"
						}
					],
					"stateMutability": "view",
					"type": "function"
				},
				{
					"inputs": [
						{
							"internalType": "string",
							"name": "",
							"type": "string"
						}
					],
					"name": "auctionEndTime",
					"outputs": [
						{
							"internalType": "uint256",
							"name": "",
							"type": "uint256"
						}
					],
					"stateMutability": "view",
					"type": "function"
				},
				{
					"inputs": [
						{
							"internalType": "string",
							"name": "",
							"type": "string"
						}
					],
					"name": "auctionStartTime",
					"outputs": [
						{
							"internalType": "uint256",
							"name": "",
							"type": "uint256"
						}
					],
					"stateMutability": "view",
					"type": "function"
				},
				{
					"inputs": [
						{
							"internalType": "address",
							"name": "",
							"type": "address"
						}
					],
					"name": "bidAmount",
					"outputs": [
						{
							"internalType": "uint256",
							"name": "",
							"type": "uint256"
						}
					],
					"stateMutability": "view",
					"type": "function"
				},
				{
					"inputs": [
						{
							"internalType": "string",
							"name": "auctionName",
							"type": "string"
						}
					],
					"name": "bidding",
					"outputs": [],
					"stateMutability": "payable",
					"type": "function"
				},
				{
					"inputs": [
						{
							"internalType": "string",
							"name": "AuctionName",
							"type": "string"
						},
						{
							"internalType": "uint256",
							"name": "_deadline",
							"type": "uint256"
						}
					],
					"name": "createAuction",
					"outputs": [],
					"stateMutability": "nonpayable",
					"type": "function"
				},
				{
					"inputs": [
						{
							"internalType": "address",
							"name": "user",
							"type": "address"
						}
					],
					"name": "getAuctions",
					"outputs": [
						{
							"internalType": "string[]",
							"name": "",
							"type": "string[]"
						}
					],
					"stateMutability": "view",
					"type": "function"
				},
				{
					"inputs": [],
					"name": "highestBidder",
					"outputs": [
						{
							"internalType": "address",
							"name": "",
							"type": "address"
						}
					],
					"stateMutability": "view",
					"type": "function"
				},
				{
					"inputs": [],
					"name": "hightestBid",
					"outputs": [
						{
							"internalType": "uint256",
							"name": "",
							"type": "uint256"
						}
					],
					"stateMutability": "view",
					"type": "function"
				}
			],
			"devdoc": {
				"kind": "dev",
				"methods": {},
				"version": 1
			},
			"evm": {
				"assembly": "    /* \"KAMIL SIR/PROJECT03/contracts/Auction-Contract.sol\":61:1826  contract Auction {... */\n  mstore(0x40, 0x80)\n    /* \"KAMIL SIR/PROJECT03/contracts/Auction-Contract.sol\":403:459  constructor() {... */\n  callvalue\n  dup1\n  iszero\n  tag_1\n  jumpi\n  0x00\n  dup1\n  revert\ntag_1:\n  pop\n    /* \"KAMIL SIR/PROJECT03/contracts/Auction-Contract.sol\":441:451  msg.sender */\n  caller\n    /* \"KAMIL SIR/PROJECT03/contracts/Auction-Contract.sol\":428:438  Auctioneer */\n  0x00\n  dup1\n    /* \"KAMIL SIR/PROJECT03/contracts/Auction-Contract.sol\":428:451  Auctioneer = msg.sender */\n  0x0100\n  exp\n  dup2\n  sload\n  dup2\n  0xffffffffffffffffffffffffffffffffffffffff\n  mul\n  not\n  and\n  swap1\n  dup4\n  0xffffffffffffffffffffffffffffffffffffffff\n  and\n  mul\n  or\n  swap1\n  sstore\n  pop\n    /* \"KAMIL SIR/PROJECT03/contracts/Auction-Contract.sol\":61:1826  contract Auction {... */\n  dataSize(sub_0)\n  dup1\n  dataOffset(sub_0)\n  0x00\n  codecopy\n  0x00\n  return\nstop\n\nsub_0: assembly {\n        /* \"KAMIL SIR/PROJECT03/contracts/Auction-Contract.sol\":61:1826  contract Auction {... */\n      mstore(0x40, 0x80)\n      jumpi(tag_1, lt(calldatasize, 0x04))\n      shr(0xe0, calldataload(0x00))\n      dup1\n      0x91f90157\n      gt\n      tag_11\n      jumpi\n      dup1\n      0x91f90157\n      eq\n      tag_6\n      jumpi\n      dup1\n      0xa6aa80d5\n      eq\n      tag_7\n      jumpi\n      dup1\n      0xaf96af54\n      eq\n      tag_8\n      jumpi\n      dup1\n      0xfb0f9363\n      eq\n      tag_9\n      jumpi\n      dup1\n      0xff895239\n      eq\n      tag_10\n      jumpi\n      jump(tag_1)\n    tag_11:\n      dup1\n      0x099ef2f9\n      eq\n      tag_2\n      jumpi\n      dup1\n      0x43279f12\n      eq\n      tag_3\n      jumpi\n      dup1\n      0x4881b603\n      eq\n      tag_4\n      jumpi\n      dup1\n      0x7d141e64\n      eq\n      tag_5\n      jumpi\n    tag_1:\n      0x00\n      dup1\n      revert\n        /* \"KAMIL SIR/PROJECT03/contracts/Auction-Contract.sol\":225:273  mapping(string => uint256) public auctionEndTime */\n    tag_2:\n      callvalue\n      dup1\n      iszero\n      tag_12\n      jumpi\n      0x00\n      dup1\n      revert\n    tag_12:\n      pop\n      tag_13\n      0x04\n      dup1\n      calldatasize\n      sub\n      dup2\n      add\n      swap1\n      tag_14\n      swap2\n      swap1\n      tag_15\n      jump\t// in\n    tag_14:\n      tag_16\n      jump\t// in\n    tag_13:\n      mload(0x40)\n      tag_17\n      swap2\n      swap1\n      tag_18\n      jump\t// in\n    tag_17:\n      mload(0x40)\n      dup1\n      swap2\n      sub\n      swap1\n      return\n        /* \"KAMIL SIR/PROJECT03/contracts/Auction-Contract.sol\":168:218  mapping(string => uint256) public auctionStartTime */\n    tag_3:\n      callvalue\n      dup1\n      iszero\n      tag_19\n      jumpi\n      0x00\n      dup1\n      revert\n    tag_19:\n      pop\n      tag_20\n      0x04\n      dup1\n      calldatasize\n      sub\n      dup2\n      add\n      swap1\n      tag_21\n      swap2\n      swap1\n      tag_15\n      jump\t// in\n    tag_21:\n      tag_22\n      jump\t// in\n    tag_20:\n      mload(0x40)\n      tag_23\n      swap2\n      swap1\n      tag_18\n      jump\t// in\n    tag_23:\n      mload(0x40)\n      dup1\n      swap2\n      sub\n      swap1\n      return\n        /* \"KAMIL SIR/PROJECT03/contracts/Auction-Contract.sol\":117:161  mapping(address => uint256) public bidAmount */\n    tag_4:\n      callvalue\n      dup1\n      iszero\n      tag_24\n      jumpi\n      0x00\n      dup1\n      revert\n    tag_24:\n      pop\n      tag_25\n      0x04\n      dup1\n      calldatasize\n      sub\n      dup2\n      add\n      swap1\n      tag_26\n      swap2\n      swap1\n      tag_27\n      jump\t// in\n    tag_26:\n      tag_28\n      jump\t// in\n    tag_25:\n      mload(0x40)\n      tag_29\n      swap2\n      swap1\n      tag_18\n      jump\t// in\n    tag_29:\n      mload(0x40)\n      dup1\n      swap2\n      sub\n      swap1\n      return\n        /* \"KAMIL SIR/PROJECT03/contracts/Auction-Contract.sol\":333:359  uint256 public hightestBid */\n    tag_5:\n      callvalue\n      dup1\n      iszero\n      tag_30\n      jumpi\n      0x00\n      dup1\n      revert\n    tag_30:\n      pop\n      tag_31\n      tag_32\n      jump\t// in\n    tag_31:\n      mload(0x40)\n      tag_33\n      swap2\n      swap1\n      tag_18\n      jump\t// in\n    tag_33:\n      mload(0x40)\n      dup1\n      swap2\n      sub\n      swap1\n      return\n        /* \"KAMIL SIR/PROJECT03/contracts/Auction-Contract.sol\":366:394  address public highestBidder */\n    tag_6:\n      callvalue\n      dup1\n      iszero\n      tag_34\n      jumpi\n      0x00\n      dup1\n      revert\n    tag_34:\n      pop\n      tag_35\n      tag_36\n      jump\t// in\n    tag_35:\n      mload(0x40)\n      tag_37\n      swap2\n      swap1\n      tag_38\n      jump\t// in\n    tag_37:\n      mload(0x40)\n      dup1\n      swap2\n      sub\n      swap1\n      return\n        /* \"KAMIL SIR/PROJECT03/contracts/Auction-Contract.sol\":1120:1821  function bidding(string memory auctionName) public payable {... */\n    tag_7:\n      tag_39\n      0x04\n      dup1\n      calldatasize\n      sub\n      dup2\n      add\n      swap1\n      tag_40\n      swap2\n      swap1\n      tag_15\n      jump\t// in\n    tag_40:\n      tag_41\n      jump\t// in\n    tag_39:\n      stop\n        /* \"KAMIL SIR/PROJECT03/contracts/Auction-Contract.sol\":85:110  address public Auctioneer */\n    tag_8:\n      callvalue\n      dup1\n      iszero\n      tag_42\n      jumpi\n      0x00\n      dup1\n      revert\n    tag_42:\n      pop\n      tag_43\n      tag_44\n      jump\t// in\n    tag_43:\n      mload(0x40)\n      tag_45\n      swap2\n      swap1\n      tag_38\n      jump\t// in\n    tag_45:\n      mload(0x40)\n      dup1\n      swap2\n      sub\n      swap1\n      return\n        /* \"KAMIL SIR/PROJECT03/contracts/Auction-Contract.sol\":540:654  function getAuctions(address user) public view returns (string[] memory) {... */\n    tag_9:\n      callvalue\n      dup1\n      iszero\n      tag_46\n      jumpi\n      0x00\n      dup1\n      revert\n    tag_46:\n      pop\n      tag_47\n      0x04\n      dup1\n      calldatasize\n      sub\n      dup2\n      add\n      swap1\n      tag_48\n      swap2\n      swap1\n      tag_27\n      jump\t// in\n    tag_48:\n      tag_49\n      jump\t// in\n    tag_47:\n      mload(0x40)\n      tag_50\n      swap2\n      swap1\n      tag_51\n      jump\t// in\n    tag_50:\n      mload(0x40)\n      dup1\n      swap2\n      sub\n      swap1\n      return\n        /* \"KAMIL SIR/PROJECT03/contracts/Auction-Contract.sol\":662:1112  function createAuction(string memory AuctionName, uint256 _deadline)... */\n    tag_10:\n      callvalue\n      dup1\n      iszero\n      tag_52\n      jumpi\n      0x00\n      dup1\n      revert\n    tag_52:\n      pop\n      tag_53\n      0x04\n      dup1\n      calldatasize\n      sub\n      dup2\n      add\n      swap1\n      tag_54\n      swap2\n      swap1\n      tag_55\n      jump\t// in\n    tag_54:\n      tag_56\n      jump\t// in\n    tag_53:\n      stop\n        /* \"KAMIL SIR/PROJECT03/contracts/Auction-Contract.sol\":225:273  mapping(string => uint256) public auctionEndTime */\n    tag_16:\n      0x03\n      dup2\n      dup1\n      mload\n      0x20\n      dup2\n      add\n      dup3\n      add\n      dup1\n      mload\n      dup5\n      dup3\n      mstore\n      0x20\n      dup4\n      add\n      0x20\n      dup6\n      add\n      keccak256\n      dup2\n      dup4\n      mstore\n      dup1\n      swap6\n      pop\n      pop\n      pop\n      pop\n      pop\n      pop\n      0x00\n      swap2\n      pop\n      swap1\n      pop\n      sload\n      dup2\n      jump\t// out\n        /* \"KAMIL SIR/PROJECT03/contracts/Auction-Contract.sol\":168:218  mapping(string => uint256) public auctionStartTime */\n    tag_22:\n      0x02\n      dup2\n      dup1\n      mload\n      0x20\n      dup2\n      add\n      dup3\n      add\n      dup1\n      mload\n      dup5\n      dup3\n      mstore\n      0x20\n      dup4\n      add\n      0x20\n      dup6\n      add\n      keccak256\n      dup2\n      dup4\n      mstore\n      dup1\n      swap6\n      pop\n      pop\n      pop\n      pop\n      pop\n      pop\n      0x00\n      swap2\n      pop\n      swap1\n      pop\n      sload\n      dup2\n      jump\t// out\n        /* \"KAMIL SIR/PROJECT03/contracts/Auction-Contract.sol\":117:161  mapping(address => uint256) public bidAmount */\n    tag_28:\n      mstore(0x20, 0x01)\n      dup1\n      0x00\n      mstore\n      keccak256(0x00, 0x40)\n      0x00\n      swap2\n      pop\n      swap1\n      pop\n      sload\n      dup2\n      jump\t// out\n        /* \"KAMIL SIR/PROJECT03/contracts/Auction-Contract.sol\":333:359  uint256 public hightestBid */\n    tag_32:\n      sload(0x05)\n      dup2\n      jump\t// out\n        /* \"KAMIL SIR/PROJECT03/contracts/Auction-Contract.sol\":366:394  address public highestBidder */\n    tag_36:\n      0x06\n      0x00\n      swap1\n      sload\n      swap1\n      0x0100\n      exp\n      swap1\n      div\n      0xffffffffffffffffffffffffffffffffffffffff\n      and\n      dup2\n      jump\t// out\n        /* \"KAMIL SIR/PROJECT03/contracts/Auction-Contract.sol\":1120:1821  function bidding(string memory auctionName) public payable {... */\n    tag_41:\n        /* \"KAMIL SIR/PROJECT03/contracts/Auction-Contract.sol\":1230:1231  0 */\n      0x00\n        /* \"KAMIL SIR/PROJECT03/contracts/Auction-Contract.sol\":1198:1214  auctionStartTime */\n      0x02\n        /* \"KAMIL SIR/PROJECT03/contracts/Auction-Contract.sol\":1215:1226  auctionName */\n      dup3\n        /* \"KAMIL SIR/PROJECT03/contracts/Auction-Contract.sol\":1198:1227  auctionStartTime[auctionName] */\n      mload(0x40)\n      tag_58\n      swap2\n      swap1\n      tag_59\n      jump\t// in\n    tag_58:\n      swap1\n      dup2\n      mstore\n      0x20\n      add\n      mload(0x40)\n      dup1\n      swap2\n      sub\n      swap1\n      keccak256\n      sload\n        /* \"KAMIL SIR/PROJECT03/contracts/Auction-Contract.sol\":1198:1231  auctionStartTime[auctionName] > 0 */\n      gt\n        /* \"KAMIL SIR/PROJECT03/contracts/Auction-Contract.sol\":1190:1255  require(auctionStartTime[auctionName] > 0, \"Not a valid Auction\") */\n      tag_60\n      jumpi\n      mload(0x40)\n      0x08c379a000000000000000000000000000000000000000000000000000000000\n      dup2\n      mstore\n      0x04\n      add\n      tag_61\n      swap1\n      tag_62\n      jump\t// in\n    tag_61:\n      mload(0x40)\n      dup1\n      swap2\n      sub\n      swap1\n      revert\n    tag_60:\n        /* \"KAMIL SIR/PROJECT03/contracts/Auction-Contract.sol\":1320:1335  block.timestamp */\n      timestamp\n        /* \"KAMIL SIR/PROJECT03/contracts/Auction-Contract.sol\":1288:1304  auctionStartTime */\n      0x02\n        /* \"KAMIL SIR/PROJECT03/contracts/Auction-Contract.sol\":1305:1316  auctionName */\n      dup3\n        /* \"KAMIL SIR/PROJECT03/contracts/Auction-Contract.sol\":1288:1317  auctionStartTime[auctionName] */\n      mload(0x40)\n      tag_63\n      swap2\n      swap1\n      tag_59\n      jump\t// in\n    tag_63:\n      swap1\n      dup2\n      mstore\n      0x20\n      add\n      mload(0x40)\n      dup1\n      swap2\n      sub\n      swap1\n      keccak256\n      sload\n        /* \"KAMIL SIR/PROJECT03/contracts/Auction-Contract.sol\":1288:1335  auctionStartTime[auctionName] < block.timestamp */\n      lt\n        /* \"KAMIL SIR/PROJECT03/contracts/Auction-Contract.sol\":1288:1401  auctionStartTime[auctionName] < block.timestamp &&... */\n      dup1\n      iszero\n      tag_64\n      jumpi\n      pop\n        /* \"KAMIL SIR/PROJECT03/contracts/Auction-Contract.sol\":1386:1401  block.timestamp */\n      timestamp\n        /* \"KAMIL SIR/PROJECT03/contracts/Auction-Contract.sol\":1356:1370  auctionEndTime */\n      0x03\n        /* \"KAMIL SIR/PROJECT03/contracts/Auction-Contract.sol\":1371:1382  auctionName */\n      dup3\n        /* \"KAMIL SIR/PROJECT03/contracts/Auction-Contract.sol\":1356:1383  auctionEndTime[auctionName] */\n      mload(0x40)\n      tag_65\n      swap2\n      swap1\n      tag_59\n      jump\t// in\n    tag_65:\n      swap1\n      dup2\n      mstore\n      0x20\n      add\n      mload(0x40)\n      dup1\n      swap2\n      sub\n      swap1\n      keccak256\n      sload\n        /* \"KAMIL SIR/PROJECT03/contracts/Auction-Contract.sol\":1356:1401  auctionEndTime[auctionName] > block.timestamp */\n      gt\n        /* \"KAMIL SIR/PROJECT03/contracts/Auction-Contract.sol\":1288:1401  auctionStartTime[auctionName] < block.timestamp &&... */\n    tag_64:\n        /* \"KAMIL SIR/PROJECT03/contracts/Auction-Contract.sol\":1266:1437  require(... */\n      tag_66\n      jumpi\n      mload(0x40)\n      0x08c379a000000000000000000000000000000000000000000000000000000000\n      dup2\n      mstore\n      0x04\n      add\n      tag_67\n      swap1\n      tag_68\n      jump\t// in\n    tag_67:\n      mload(0x40)\n      dup1\n      swap2\n      sub\n      swap1\n      revert\n    tag_66:\n        /* \"KAMIL SIR/PROJECT03/contracts/Auction-Contract.sol\":1468:1479  hightestBid */\n      sload(0x05)\n        /* \"KAMIL SIR/PROJECT03/contracts/Auction-Contract.sol\":1456:1465  msg.value */\n      callvalue\n        /* \"KAMIL SIR/PROJECT03/contracts/Auction-Contract.sol\":1456:1479  msg.value > hightestBid */\n      gt\n        /* \"KAMIL SIR/PROJECT03/contracts/Auction-Contract.sol\":1448:1508  require(msg.value > hightestBid, \"Please bid higher amount\") */\n      tag_69\n      jumpi\n      mload(0x40)\n      0x08c379a000000000000000000000000000000000000000000000000000000000\n      dup2\n      mstore\n      0x04\n      add\n      tag_70\n      swap1\n      tag_71\n      jump\t// in\n    tag_70:\n      mload(0x40)\n      dup1\n      swap2\n      sub\n      swap1\n      revert\n    tag_69:\n        /* \"KAMIL SIR/PROJECT03/contracts/Auction-Contract.sol\":1541:1551  msg.sender */\n      caller\n        /* \"KAMIL SIR/PROJECT03/contracts/Auction-Contract.sol\":1527:1551  Auctioneer != msg.sender */\n      0xffffffffffffffffffffffffffffffffffffffff\n      and\n        /* \"KAMIL SIR/PROJECT03/contracts/Auction-Contract.sol\":1527:1537  Auctioneer */\n      0x00\n      dup1\n      sload\n      swap1\n      0x0100\n      exp\n      swap1\n      div\n      0xffffffffffffffffffffffffffffffffffffffff\n      and\n        /* \"KAMIL SIR/PROJECT03/contracts/Auction-Contract.sol\":1527:1551  Auctioneer != msg.sender */\n      0xffffffffffffffffffffffffffffffffffffffff\n      and\n      sub\n        /* \"KAMIL SIR/PROJECT03/contracts/Auction-Contract.sol\":1519:1579  require(Auctioneer != msg.sender, \"coller is not the owner\") */\n      tag_72\n      jumpi\n      mload(0x40)\n      0x08c379a000000000000000000000000000000000000000000000000000000000\n      dup2\n      mstore\n      0x04\n      add\n      tag_73\n      swap1\n      tag_74\n      jump\t// in\n    tag_73:\n      mload(0x40)\n      dup1\n      swap2\n      sub\n      swap1\n      revert\n    tag_72:\n        /* \"KAMIL SIR/PROJECT03/contracts/Auction-Contract.sol\":1609:1610  0 */\n      0x00\n        /* \"KAMIL SIR/PROJECT03/contracts/Auction-Contract.sol\":1594:1605  hightestBid */\n      sload(0x05)\n        /* \"KAMIL SIR/PROJECT03/contracts/Auction-Contract.sol\":1594:1610  hightestBid != 0 */\n      eq\n        /* \"KAMIL SIR/PROJECT03/contracts/Auction-Contract.sol\":1590:1676  if (hightestBid != 0 ){... */\n      tag_75\n      jumpi\n        /* \"KAMIL SIR/PROJECT03/contracts/Auction-Contract.sol\":1652:1663  hightestBid */\n      sload(0x05)\n        /* \"KAMIL SIR/PROJECT03/contracts/Auction-Contract.sol\":1627:1636  bidAmount */\n      0x01\n        /* \"KAMIL SIR/PROJECT03/contracts/Auction-Contract.sol\":1627:1648  bidAmount[msg.sender] */\n      0x00\n        /* \"KAMIL SIR/PROJECT03/contracts/Auction-Contract.sol\":1637:1647  msg.sender */\n      caller\n        /* \"KAMIL SIR/PROJECT03/contracts/Auction-Contract.sol\":1627:1648  bidAmount[msg.sender] */\n      0xffffffffffffffffffffffffffffffffffffffff\n      and\n      0xffffffffffffffffffffffffffffffffffffffff\n      and\n      dup2\n      mstore\n      0x20\n      add\n      swap1\n      dup2\n      mstore\n      0x20\n      add\n      0x00\n      keccak256\n      0x00\n        /* \"KAMIL SIR/PROJECT03/contracts/Auction-Contract.sol\":1627:1663  bidAmount[msg.sender] += hightestBid */\n      dup3\n      dup3\n      sload\n      tag_76\n      swap2\n      swap1\n      tag_77\n      jump\t// in\n    tag_76:\n      swap3\n      pop\n      pop\n      dup2\n      swap1\n      sstore\n      pop\n        /* \"KAMIL SIR/PROJECT03/contracts/Auction-Contract.sol\":1590:1676  if (hightestBid != 0 ){... */\n    tag_75:\n        /* \"KAMIL SIR/PROJECT03/contracts/Auction-Contract.sol\":1699:1708  msg.value */\n      callvalue\n        /* \"KAMIL SIR/PROJECT03/contracts/Auction-Contract.sol\":1685:1696  hightestBid */\n      0x05\n        /* \"KAMIL SIR/PROJECT03/contracts/Auction-Contract.sol\":1685:1708  hightestBid = msg.value */\n      dup2\n      swap1\n      sstore\n      pop\n        /* \"KAMIL SIR/PROJECT03/contracts/Auction-Contract.sol\":1734:1744  msg.sender */\n      caller\n        /* \"KAMIL SIR/PROJECT03/contracts/Auction-Contract.sol\":1718:1731  highestBidder */\n      0x06\n      0x00\n        /* \"KAMIL SIR/PROJECT03/contracts/Auction-Contract.sol\":1718:1744  highestBidder = msg.sender */\n      0x0100\n      exp\n      dup2\n      sload\n      dup2\n      0xffffffffffffffffffffffffffffffffffffffff\n      mul\n      not\n      and\n      swap1\n      dup4\n      0xffffffffffffffffffffffffffffffffffffffff\n      and\n      mul\n      or\n      swap1\n      sstore\n      pop\n        /* \"KAMIL SIR/PROJECT03/contracts/Auction-Contract.sol\":1761:1804  bidInfo(msg.sender, msg.value, auctionName) */\n      0x2a4cc6fc148520fa44b855783ccc6323b231e724015f6e98cb6b274c86acc42b\n        /* \"KAMIL SIR/PROJECT03/contracts/Auction-Contract.sol\":1769:1779  msg.sender */\n      caller\n        /* \"KAMIL SIR/PROJECT03/contracts/Auction-Contract.sol\":1781:1790  msg.value */\n      callvalue\n        /* \"KAMIL SIR/PROJECT03/contracts/Auction-Contract.sol\":1792:1803  auctionName */\n      dup4\n        /* \"KAMIL SIR/PROJECT03/contracts/Auction-Contract.sol\":1761:1804  bidInfo(msg.sender, msg.value, auctionName) */\n      mload(0x40)\n      tag_78\n      swap4\n      swap3\n      swap2\n      swap1\n      tag_79\n      jump\t// in\n    tag_78:\n      mload(0x40)\n      dup1\n      swap2\n      sub\n      swap1\n      log1\n        /* \"KAMIL SIR/PROJECT03/contracts/Auction-Contract.sol\":1120:1821  function bidding(string memory auctionName) public payable {... */\n      pop\n      jump\t// out\n        /* \"KAMIL SIR/PROJECT03/contracts/Auction-Contract.sol\":85:110  address public Auctioneer */\n    tag_44:\n      0x00\n      dup1\n      sload\n      swap1\n      0x0100\n      exp\n      swap1\n      div\n      0xffffffffffffffffffffffffffffffffffffffff\n      and\n      dup2\n      jump\t// out\n        /* \"KAMIL SIR/PROJECT03/contracts/Auction-Contract.sol\":540:654  function getAuctions(address user) public view returns (string[] memory) {... */\n    tag_49:\n        /* \"KAMIL SIR/PROJECT03/contracts/Auction-Contract.sol\":596:611  string[] memory */\n      0x60\n        /* \"KAMIL SIR/PROJECT03/contracts/Auction-Contract.sol\":631:640  auctionOf */\n      0x04\n        /* \"KAMIL SIR/PROJECT03/contracts/Auction-Contract.sol\":631:646  auctionOf[user] */\n      0x00\n        /* \"KAMIL SIR/PROJECT03/contracts/Auction-Contract.sol\":641:645  user */\n      dup4\n        /* \"KAMIL SIR/PROJECT03/contracts/Auction-Contract.sol\":631:646  auctionOf[user] */\n      0xffffffffffffffffffffffffffffffffffffffff\n      and\n      0xffffffffffffffffffffffffffffffffffffffff\n      and\n      dup2\n      mstore\n      0x20\n      add\n      swap1\n      dup2\n      mstore\n      0x20\n      add\n      0x00\n      keccak256\n        /* \"KAMIL SIR/PROJECT03/contracts/Auction-Contract.sol\":624:646  return auctionOf[user] */\n      dup1\n      sload\n      dup1\n      0x20\n      mul\n      0x20\n      add\n      mload(0x40)\n      swap1\n      dup2\n      add\n      0x40\n      mstore\n      dup1\n      swap3\n      swap2\n      swap1\n      dup2\n      dup2\n      mstore\n      0x20\n      add\n      0x00\n      swap1\n    tag_81:\n      dup3\n      dup3\n      lt\n      iszero\n      tag_82\n      jumpi\n      dup4\n      dup3\n      swap1\n      0x00\n      mstore\n      keccak256(0x00, 0x20)\n      add\n      dup1\n      sload\n      tag_84\n      swap1\n      tag_85\n      jump\t// in\n    tag_84:\n      dup1\n      0x1f\n      add\n      0x20\n      dup1\n      swap2\n      div\n      mul\n      0x20\n      add\n      mload(0x40)\n      swap1\n      dup2\n      add\n      0x40\n      mstore\n      dup1\n      swap3\n      swap2\n      swap1\n      dup2\n      dup2\n      mstore\n      0x20\n      add\n      dup3\n      dup1\n      sload\n      tag_86\n      swap1\n      tag_85\n      jump\t// in\n    tag_86:\n      dup1\n      iszero\n      tag_87\n      jumpi\n      dup1\n      0x1f\n      lt\n      tag_88\n      jumpi\n      0x0100\n      dup1\n      dup4\n      sload\n      div\n      mul\n      dup4\n      mstore\n      swap2\n      0x20\n      add\n      swap2\n      jump(tag_87)\n    tag_88:\n      dup3\n      add\n      swap2\n      swap1\n      0x00\n      mstore\n      keccak256(0x00, 0x20)\n      swap1\n    tag_89:\n      dup2\n      sload\n      dup2\n      mstore\n      swap1\n      0x01\n      add\n      swap1\n      0x20\n      add\n      dup1\n      dup4\n      gt\n      tag_89\n      jumpi\n      dup3\n      swap1\n      sub\n      0x1f\n      and\n      dup3\n      add\n      swap2\n    tag_87:\n      pop\n      pop\n      pop\n      pop\n      pop\n      dup2\n      mstore\n      0x20\n      add\n      swap1\n      0x01\n      add\n      swap1\n      jump(tag_81)\n    tag_82:\n      pop\n      pop\n      pop\n      pop\n      swap1\n      pop\n        /* \"KAMIL SIR/PROJECT03/contracts/Auction-Contract.sol\":540:654  function getAuctions(address user) public view returns (string[] memory) {... */\n      swap2\n      swap1\n      pop\n      jump\t// out\n        /* \"KAMIL SIR/PROJECT03/contracts/Auction-Contract.sol\":662:1112  function createAuction(string memory AuctionName, uint256 _deadline)... */\n    tag_56:\n        /* \"KAMIL SIR/PROJECT03/contracts/Auction-Contract.sol\":799:809  Auctioneer */\n      0x00\n      dup1\n      sload\n      swap1\n      0x0100\n      exp\n      swap1\n      div\n      0xffffffffffffffffffffffffffffffffffffffff\n      and\n        /* \"KAMIL SIR/PROJECT03/contracts/Auction-Contract.sol\":785:809  msg.sender == Auctioneer */\n      0xffffffffffffffffffffffffffffffffffffffff\n      and\n        /* \"KAMIL SIR/PROJECT03/contracts/Auction-Contract.sol\":785:795  msg.sender */\n      caller\n        /* \"KAMIL SIR/PROJECT03/contracts/Auction-Contract.sol\":785:809  msg.sender == Auctioneer */\n      0xffffffffffffffffffffffffffffffffffffffff\n      and\n      eq\n        /* \"KAMIL SIR/PROJECT03/contracts/Auction-Contract.sol\":763:879  require(... */\n      tag_91\n      jumpi\n      mload(0x40)\n      0x08c379a000000000000000000000000000000000000000000000000000000000\n      dup2\n      mstore\n      0x04\n      add\n      tag_92\n      swap1\n      tag_93\n      jump\t// in\n    tag_92:\n      mload(0x40)\n      dup1\n      swap2\n      sub\n      swap1\n      revert\n    tag_91:\n        /* \"KAMIL SIR/PROJECT03/contracts/Auction-Contract.sol\":910:925  block.timestamp */\n      timestamp\n        /* \"KAMIL SIR/PROJECT03/contracts/Auction-Contract.sol\":898:907  _deadline */\n      dup2\n        /* \"KAMIL SIR/PROJECT03/contracts/Auction-Contract.sol\":898:925  _deadline > block.timestamp */\n      gt\n        /* \"KAMIL SIR/PROJECT03/contracts/Auction-Contract.sol\":890:946  require(_deadline > block.timestamp, \"invalid time out\") */\n      tag_94\n      jumpi\n      mload(0x40)\n      0x08c379a000000000000000000000000000000000000000000000000000000000\n      dup2\n      mstore\n      0x04\n      add\n      tag_95\n      swap1\n      tag_96\n      jump\t// in\n    tag_95:\n      mload(0x40)\n      dup1\n      swap2\n      sub\n      swap1\n      revert\n    tag_94:\n        /* \"KAMIL SIR/PROJECT03/contracts/Auction-Contract.sol\":989:1004  block.timestamp */\n      timestamp\n        /* \"KAMIL SIR/PROJECT03/contracts/Auction-Contract.sol\":957:973  auctionStartTime */\n      0x02\n        /* \"KAMIL SIR/PROJECT03/contracts/Auction-Contract.sol\":974:985  AuctionName */\n      dup4\n        /* \"KAMIL SIR/PROJECT03/contracts/Auction-Contract.sol\":957:986  auctionStartTime[AuctionName] */\n      mload(0x40)\n      tag_97\n      swap2\n      swap1\n      tag_59\n      jump\t// in\n    tag_97:\n      swap1\n      dup2\n      mstore\n      0x20\n      add\n      mload(0x40)\n      dup1\n      swap2\n      sub\n      swap1\n      keccak256\n        /* \"KAMIL SIR/PROJECT03/contracts/Auction-Contract.sol\":957:1004  auctionStartTime[AuctionName] = block.timestamp */\n      dup2\n      swap1\n      sstore\n      pop\n        /* \"KAMIL SIR/PROJECT03/contracts/Auction-Contract.sol\":1045:1054  _deadline */\n      dup1\n        /* \"KAMIL SIR/PROJECT03/contracts/Auction-Contract.sol\":1015:1029  auctionEndTime */\n      0x03\n        /* \"KAMIL SIR/PROJECT03/contracts/Auction-Contract.sol\":1030:1041  AuctionName */\n      dup4\n        /* \"KAMIL SIR/PROJECT03/contracts/Auction-Contract.sol\":1015:1042  auctionEndTime[AuctionName] */\n      mload(0x40)\n      tag_98\n      swap2\n      swap1\n      tag_59\n      jump\t// in\n    tag_98:\n      swap1\n      dup2\n      mstore\n      0x20\n      add\n      mload(0x40)\n      dup1\n      swap2\n      sub\n      swap1\n      keccak256\n        /* \"KAMIL SIR/PROJECT03/contracts/Auction-Contract.sol\":1015:1054  auctionEndTime[AuctionName] = _deadline */\n      dup2\n      swap1\n      sstore\n      pop\n        /* \"KAMIL SIR/PROJECT03/contracts/Auction-Contract.sol\":1065:1074  auctionOf */\n      0x04\n        /* \"KAMIL SIR/PROJECT03/contracts/Auction-Contract.sol\":1065:1086  auctionOf[msg.sender] */\n      0x00\n        /* \"KAMIL SIR/PROJECT03/contracts/Auction-Contract.sol\":1075:1085  msg.sender */\n      caller\n        /* \"KAMIL SIR/PROJECT03/contracts/Auction-Contract.sol\":1065:1086  auctionOf[msg.sender] */\n      0xffffffffffffffffffffffffffffffffffffffff\n      and\n      0xffffffffffffffffffffffffffffffffffffffff\n      and\n      dup2\n      mstore\n      0x20\n      add\n      swap1\n      dup2\n      mstore\n      0x20\n      add\n      0x00\n      keccak256\n        /* \"KAMIL SIR/PROJECT03/contracts/Auction-Contract.sol\":1092:1103  AuctionName */\n      dup3\n        /* \"KAMIL SIR/PROJECT03/contracts/Auction-Contract.sol\":1065:1104  auctionOf[msg.sender].push(AuctionName) */\n      swap1\n      dup1\n      0x01\n      dup2\n      sload\n      add\n      dup1\n      dup3\n      sstore\n      dup1\n      swap2\n      pop\n      pop\n      0x01\n      swap1\n      sub\n      swap1\n      0x00\n      mstore\n      keccak256(0x00, 0x20)\n      add\n      0x00\n      swap1\n      swap2\n      swap1\n      swap2\n      swap1\n      swap2\n      pop\n      swap1\n      dup2\n      tag_100\n      swap2\n      swap1\n      tag_101\n      jump\t// in\n    tag_100:\n      pop\n        /* \"KAMIL SIR/PROJECT03/contracts/Auction-Contract.sol\":662:1112  function createAuction(string memory AuctionName, uint256 _deadline)... */\n      pop\n      pop\n      jump\t// out\n        /* \"#utility.yul\":7:82   */\n    tag_102:\n        /* \"#utility.yul\":40:46   */\n      0x00\n        /* \"#utility.yul\":73:75   */\n      0x40\n        /* \"#utility.yul\":67:76   */\n      mload\n        /* \"#utility.yul\":57:76   */\n      swap1\n      pop\n        /* \"#utility.yul\":7:82   */\n      swap1\n      jump\t// out\n        /* \"#utility.yul\":88:205   */\n    tag_103:\n        /* \"#utility.yul\":197:198   */\n      0x00\n        /* \"#utility.yul\":194:195   */\n      dup1\n        /* \"#utility.yul\":187:199   */\n      revert\n        /* \"#utility.yul\":211:328   */\n    tag_104:\n        /* \"#utility.yul\":320:321   */\n      0x00\n        /* \"#utility.yul\":317:318   */\n      dup1\n        /* \"#utility.yul\":310:322   */\n      revert\n        /* \"#utility.yul\":334:451   */\n    tag_105:\n        /* \"#utility.yul\":443:444   */\n      0x00\n        /* \"#utility.yul\":440:441   */\n      dup1\n        /* \"#utility.yul\":433:445   */\n      revert\n        /* \"#utility.yul\":457:574   */\n    tag_106:\n        /* \"#utility.yul\":566:567   */\n      0x00\n        /* \"#utility.yul\":563:564   */\n      dup1\n        /* \"#utility.yul\":556:568   */\n      revert\n        /* \"#utility.yul\":580:682   */\n    tag_107:\n        /* \"#utility.yul\":621:627   */\n      0x00\n        /* \"#utility.yul\":672:674   */\n      0x1f\n        /* \"#utility.yul\":668:675   */\n      not\n        /* \"#utility.yul\":663:665   */\n      0x1f\n        /* \"#utility.yul\":656:661   */\n      dup4\n        /* \"#utility.yul\":652:666   */\n      add\n        /* \"#utility.yul\":648:676   */\n      and\n        /* \"#utility.yul\":638:676   */\n      swap1\n      pop\n        /* \"#utility.yul\":580:682   */\n      swap2\n      swap1\n      pop\n      jump\t// out\n        /* \"#utility.yul\":688:868   */\n    tag_108:\n        /* \"#utility.yul\":736:813   */\n      0x4e487b7100000000000000000000000000000000000000000000000000000000\n        /* \"#utility.yul\":733:734   */\n      0x00\n        /* \"#utility.yul\":726:814   */\n      mstore\n        /* \"#utility.yul\":833:837   */\n      0x41\n        /* \"#utility.yul\":830:831   */\n      0x04\n        /* \"#utility.yul\":823:838   */\n      mstore\n        /* \"#utility.yul\":857:861   */\n      0x24\n        /* \"#utility.yul\":854:855   */\n      0x00\n        /* \"#utility.yul\":847:862   */\n      revert\n        /* \"#utility.yul\":874:1155   */\n    tag_109:\n        /* \"#utility.yul\":957:984   */\n      tag_176\n        /* \"#utility.yul\":979:983   */\n      dup3\n        /* \"#utility.yul\":957:984   */\n      tag_107\n      jump\t// in\n    tag_176:\n        /* \"#utility.yul\":949:955   */\n      dup2\n        /* \"#utility.yul\":945:985   */\n      add\n        /* \"#utility.yul\":1087:1093   */\n      dup2\n        /* \"#utility.yul\":1075:1085   */\n      dup2\n        /* \"#utility.yul\":1072:1094   */\n      lt\n        /* \"#utility.yul\":1051:1069   */\n      0xffffffffffffffff\n        /* \"#utility.yul\":1039:1049   */\n      dup3\n        /* \"#utility.yul\":1036:1070   */\n      gt\n        /* \"#utility.yul\":1033:1095   */\n      or\n        /* \"#utility.yul\":1030:1118   */\n      iszero\n      tag_177\n      jumpi\n        /* \"#utility.yul\":1098:1116   */\n      tag_178\n      tag_108\n      jump\t// in\n    tag_178:\n        /* \"#utility.yul\":1030:1118   */\n    tag_177:\n        /* \"#utility.yul\":1138:1148   */\n      dup1\n        /* \"#utility.yul\":1134:1136   */\n      0x40\n        /* \"#utility.yul\":1127:1149   */\n      mstore\n        /* \"#utility.yul\":917:1155   */\n      pop\n        /* \"#utility.yul\":874:1155   */\n      pop\n      pop\n      jump\t// out\n        /* \"#utility.yul\":1161:1290   */\n    tag_110:\n        /* \"#utility.yul\":1195:1201   */\n      0x00\n        /* \"#utility.yul\":1222:1242   */\n      tag_180\n      tag_102\n      jump\t// in\n    tag_180:\n        /* \"#utility.yul\":1212:1242   */\n      swap1\n      pop\n        /* \"#utility.yul\":1251:1284   */\n      tag_181\n        /* \"#utility.yul\":1279:1283   */\n      dup3\n        /* \"#utility.yul\":1271:1277   */\n      dup3\n        /* \"#utility.yul\":1251:1284   */\n      tag_109\n      jump\t// in\n    tag_181:\n        /* \"#utility.yul\":1161:1290   */\n      swap2\n      swap1\n      pop\n      jump\t// out\n        /* \"#utility.yul\":1296:1604   */\n    tag_111:\n        /* \"#utility.yul\":1358:1362   */\n      0x00\n        /* \"#utility.yul\":1448:1466   */\n      0xffffffffffffffff\n        /* \"#utility.yul\":1440:1446   */\n      dup3\n        /* \"#utility.yul\":1437:1467   */\n      gt\n        /* \"#utility.yul\":1434:1490   */\n      iszero\n      tag_183\n      jumpi\n        /* \"#utility.yul\":1470:1488   */\n      tag_184\n      tag_108\n      jump\t// in\n    tag_184:\n        /* \"#utility.yul\":1434:1490   */\n    tag_183:\n        /* \"#utility.yul\":1508:1537   */\n      tag_185\n        /* \"#utility.yul\":1530:1536   */\n      dup3\n        /* \"#utility.yul\":1508:1537   */\n      tag_107\n      jump\t// in\n    tag_185:\n        /* \"#utility.yul\":1500:1537   */\n      swap1\n      pop\n        /* \"#utility.yul\":1592:1596   */\n      0x20\n        /* \"#utility.yul\":1586:1590   */\n      dup2\n        /* \"#utility.yul\":1582:1597   */\n      add\n        /* \"#utility.yul\":1574:1597   */\n      swap1\n      pop\n        /* \"#utility.yul\":1296:1604   */\n      swap2\n      swap1\n      pop\n      jump\t// out\n        /* \"#utility.yul\":1610:1756   */\n    tag_112:\n        /* \"#utility.yul\":1707:1713   */\n      dup3\n        /* \"#utility.yul\":1702:1705   */\n      dup2\n        /* \"#utility.yul\":1697:1700   */\n      dup4\n        /* \"#utility.yul\":1684:1714   */\n      calldatacopy\n        /* \"#utility.yul\":1748:1749   */\n      0x00\n        /* \"#utility.yul\":1739:1745   */\n      dup4\n        /* \"#utility.yul\":1734:1737   */\n      dup4\n        /* \"#utility.yul\":1730:1746   */\n      add\n        /* \"#utility.yul\":1723:1750   */\n      mstore\n        /* \"#utility.yul\":1610:1756   */\n      pop\n      pop\n      pop\n      jump\t// out\n        /* \"#utility.yul\":1762:2187   */\n    tag_113:\n        /* \"#utility.yul\":1840:1845   */\n      0x00\n        /* \"#utility.yul\":1865:1931   */\n      tag_188\n        /* \"#utility.yul\":1881:1930   */\n      tag_189\n        /* \"#utility.yul\":1923:1929   */\n      dup5\n        /* \"#utility.yul\":1881:1930   */\n      tag_111\n      jump\t// in\n    tag_189:\n        /* \"#utility.yul\":1865:1931   */\n      tag_110\n      jump\t// in\n    tag_188:\n        /* \"#utility.yul\":1856:1931   */\n      swap1\n      pop\n        /* \"#utility.yul\":1954:1960   */\n      dup3\n        /* \"#utility.yul\":1947:1952   */\n      dup2\n        /* \"#utility.yul\":1940:1961   */\n      mstore\n        /* \"#utility.yul\":1992:1996   */\n      0x20\n        /* \"#utility.yul\":1985:1990   */\n      dup2\n        /* \"#utility.yul\":1981:1997   */\n      add\n        /* \"#utility.yul\":2030:2033   */\n      dup5\n        /* \"#utility.yul\":2021:2027   */\n      dup5\n        /* \"#utility.yul\":2016:2019   */\n      dup5\n        /* \"#utility.yul\":2012:2028   */\n      add\n        /* \"#utility.yul\":2009:2034   */\n      gt\n        /* \"#utility.yul\":2006:2118   */\n      iszero\n      tag_190\n      jumpi\n        /* \"#utility.yul\":2037:2116   */\n      tag_191\n      tag_106\n      jump\t// in\n    tag_191:\n        /* \"#utility.yul\":2006:2118   */\n    tag_190:\n        /* \"#utility.yul\":2127:2181   */\n      tag_192\n        /* \"#utility.yul\":2174:2180   */\n      dup5\n        /* \"#utility.yul\":2169:2172   */\n      dup3\n        /* \"#utility.yul\":2164:2167   */\n      dup6\n        /* \"#utility.yul\":2127:2181   */\n      tag_112\n      jump\t// in\n    tag_192:\n        /* \"#utility.yul\":1846:2187   */\n      pop\n        /* \"#utility.yul\":1762:2187   */\n      swap4\n      swap3\n      pop\n      pop\n      pop\n      jump\t// out\n        /* \"#utility.yul\":2207:2547   */\n    tag_114:\n        /* \"#utility.yul\":2263:2268   */\n      0x00\n        /* \"#utility.yul\":2312:2315   */\n      dup3\n        /* \"#utility.yul\":2305:2309   */\n      0x1f\n        /* \"#utility.yul\":2297:2303   */\n      dup4\n        /* \"#utility.yul\":2293:2310   */\n      add\n        /* \"#utility.yul\":2289:2316   */\n      slt\n        /* \"#utility.yul\":2279:2401   */\n      tag_194\n      jumpi\n        /* \"#utility.yul\":2320:2399   */\n      tag_195\n      tag_105\n      jump\t// in\n    tag_195:\n        /* \"#utility.yul\":2279:2401   */\n    tag_194:\n        /* \"#utility.yul\":2437:2443   */\n      dup2\n        /* \"#utility.yul\":2424:2444   */\n      calldataload\n        /* \"#utility.yul\":2462:2541   */\n      tag_196\n        /* \"#utility.yul\":2537:2540   */\n      dup5\n        /* \"#utility.yul\":2529:2535   */\n      dup3\n        /* \"#utility.yul\":2522:2526   */\n      0x20\n        /* \"#utility.yul\":2514:2520   */\n      dup7\n        /* \"#utility.yul\":2510:2527   */\n      add\n        /* \"#utility.yul\":2462:2541   */\n      tag_113\n      jump\t// in\n    tag_196:\n        /* \"#utility.yul\":2453:2541   */\n      swap2\n      pop\n        /* \"#utility.yul\":2269:2547   */\n      pop\n        /* \"#utility.yul\":2207:2547   */\n      swap3\n      swap2\n      pop\n      pop\n      jump\t// out\n        /* \"#utility.yul\":2553:3062   */\n    tag_15:\n        /* \"#utility.yul\":2622:2628   */\n      0x00\n        /* \"#utility.yul\":2671:2673   */\n      0x20\n        /* \"#utility.yul\":2659:2668   */\n      dup3\n        /* \"#utility.yul\":2650:2657   */\n      dup5\n        /* \"#utility.yul\":2646:2669   */\n      sub\n        /* \"#utility.yul\":2642:2674   */\n      slt\n        /* \"#utility.yul\":2639:2758   */\n      iszero\n      tag_198\n      jumpi\n        /* \"#utility.yul\":2677:2756   */\n      tag_199\n      tag_103\n      jump\t// in\n    tag_199:\n        /* \"#utility.yul\":2639:2758   */\n    tag_198:\n        /* \"#utility.yul\":2825:2826   */\n      0x00\n        /* \"#utility.yul\":2814:2823   */\n      dup3\n        /* \"#utility.yul\":2810:2827   */\n      add\n        /* \"#utility.yul\":2797:2828   */\n      calldataload\n        /* \"#utility.yul\":2855:2873   */\n      0xffffffffffffffff\n        /* \"#utility.yul\":2847:2853   */\n      dup2\n        /* \"#utility.yul\":2844:2874   */\n      gt\n        /* \"#utility.yul\":2841:2958   */\n      iszero\n      tag_200\n      jumpi\n        /* \"#utility.yul\":2877:2956   */\n      tag_201\n      tag_104\n      jump\t// in\n    tag_201:\n        /* \"#utility.yul\":2841:2958   */\n    tag_200:\n        /* \"#utility.yul\":2982:3045   */\n      tag_202\n        /* \"#utility.yul\":3037:3044   */\n      dup5\n        /* \"#utility.yul\":3028:3034   */\n      dup3\n        /* \"#utility.yul\":3017:3026   */\n      dup6\n        /* \"#utility.yul\":3013:3035   */\n      add\n        /* \"#utility.yul\":2982:3045   */\n      tag_114\n      jump\t// in\n    tag_202:\n        /* \"#utility.yul\":2972:3045   */\n      swap2\n      pop\n        /* \"#utility.yul\":2768:3055   */\n      pop\n        /* \"#utility.yul\":2553:3062   */\n      swap3\n      swap2\n      pop\n      pop\n      jump\t// out\n        /* \"#utility.yul\":3068:3145   */\n    tag_115:\n        /* \"#utility.yul\":3105:3112   */\n      0x00\n        /* \"#utility.yul\":3134:3139   */\n      dup2\n        /* \"#utility.yul\":3123:3139   */\n      swap1\n      pop\n        /* \"#utility.yul\":3068:3145   */\n      swap2\n      swap1\n      pop\n      jump\t// out\n        /* \"#utility.yul\":3151:3269   */\n    tag_116:\n        /* \"#utility.yul\":3238:3262   */\n      tag_205\n        /* \"#utility.yul\":3256:3261   */\n      dup2\n        /* \"#utility.yul\":3238:3262   */\n      tag_115\n      jump\t// in\n    tag_205:\n        /* \"#utility.yul\":3233:3236   */\n      dup3\n        /* \"#utility.yul\":3226:3263   */\n      mstore\n        /* \"#utility.yul\":3151:3269   */\n      pop\n      pop\n      jump\t// out\n        /* \"#utility.yul\":3275:3497   */\n    tag_18:\n        /* \"#utility.yul\":3368:3372   */\n      0x00\n        /* \"#utility.yul\":3406:3408   */\n      0x20\n        /* \"#utility.yul\":3395:3404   */\n      dup3\n        /* \"#utility.yul\":3391:3409   */\n      add\n        /* \"#utility.yul\":3383:3409   */\n      swap1\n      pop\n        /* \"#utility.yul\":3419:3490   */\n      tag_207\n        /* \"#utility.yul\":3487:3488   */\n      0x00\n        /* \"#utility.yul\":3476:3485   */\n      dup4\n        /* \"#utility.yul\":3472:3489   */\n      add\n        /* \"#utility.yul\":3463:3469   */\n      dup5\n        /* \"#utility.yul\":3419:3490   */\n      tag_116\n      jump\t// in\n    tag_207:\n        /* \"#utility.yul\":3275:3497   */\n      swap3\n      swap2\n      pop\n      pop\n      jump\t// out\n        /* \"#utility.yul\":3503:3629   */\n    tag_117:\n        /* \"#utility.yul\":3540:3547   */\n      0x00\n        /* \"#utility.yul\":3580:3622   */\n      0xffffffffffffffffffffffffffffffffffffffff\n        /* \"#utility.yul\":3573:3578   */\n      dup3\n        /* \"#utility.yul\":3569:3623   */\n      and\n        /* \"#utility.yul\":3558:3623   */\n      swap1\n      pop\n        /* \"#utility.yul\":3503:3629   */\n      swap2\n      swap1\n      pop\n      jump\t// out\n        /* \"#utility.yul\":3635:3731   */\n    tag_118:\n        /* \"#utility.yul\":3672:3679   */\n      0x00\n        /* \"#utility.yul\":3701:3725   */\n      tag_210\n        /* \"#utility.yul\":3719:3724   */\n      dup3\n        /* \"#utility.yul\":3701:3725   */\n      tag_117\n      jump\t// in\n    tag_210:\n        /* \"#utility.yul\":3690:3725   */\n      swap1\n      pop\n        /* \"#utility.yul\":3635:3731   */\n      swap2\n      swap1\n      pop\n      jump\t// out\n        /* \"#utility.yul\":3737:3859   */\n    tag_119:\n        /* \"#utility.yul\":3810:3834   */\n      tag_212\n        /* \"#utility.yul\":3828:3833   */\n      dup2\n        /* \"#utility.yul\":3810:3834   */\n      tag_118\n      jump\t// in\n    tag_212:\n        /* \"#utility.yul\":3803:3808   */\n      dup2\n        /* \"#utility.yul\":3800:3835   */\n      eq\n        /* \"#utility.yul\":3790:3853   */\n      tag_213\n      jumpi\n        /* \"#utility.yul\":3849:3850   */\n      0x00\n        /* \"#utility.yul\":3846:3847   */\n      dup1\n        /* \"#utility.yul\":3839:3851   */\n      revert\n        /* \"#utility.yul\":3790:3853   */\n    tag_213:\n        /* \"#utility.yul\":3737:3859   */\n      pop\n      jump\t// out\n        /* \"#utility.yul\":3865:4004   */\n    tag_120:\n        /* \"#utility.yul\":3911:3916   */\n      0x00\n        /* \"#utility.yul\":3949:3955   */\n      dup2\n        /* \"#utility.yul\":3936:3956   */\n      calldataload\n        /* \"#utility.yul\":3927:3956   */\n      swap1\n      pop\n        /* \"#utility.yul\":3965:3998   */\n      tag_215\n        /* \"#utility.yul\":3992:3997   */\n      dup2\n        /* \"#utility.yul\":3965:3998   */\n      tag_119\n      jump\t// in\n    tag_215:\n        /* \"#utility.yul\":3865:4004   */\n      swap3\n      swap2\n      pop\n      pop\n      jump\t// out\n        /* \"#utility.yul\":4010:4339   */\n    tag_27:\n        /* \"#utility.yul\":4069:4075   */\n      0x00\n        /* \"#utility.yul\":4118:4120   */\n      0x20\n        /* \"#utility.yul\":4106:4115   */\n      dup3\n        /* \"#utility.yul\":4097:4104   */\n      dup5\n        /* \"#utility.yul\":4093:4116   */\n      sub\n        /* \"#utility.yul\":4089:4121   */\n      slt\n        /* \"#utility.yul\":4086:4205   */\n      iszero\n      tag_217\n      jumpi\n        /* \"#utility.yul\":4124:4203   */\n      tag_218\n      tag_103\n      jump\t// in\n    tag_218:\n        /* \"#utility.yul\":4086:4205   */\n    tag_217:\n        /* \"#utility.yul\":4244:4245   */\n      0x00\n        /* \"#utility.yul\":4269:4322   */\n      tag_219\n        /* \"#utility.yul\":4314:4321   */\n      dup5\n        /* \"#utility.yul\":4305:4311   */\n      dup3\n        /* \"#utility.yul\":4294:4303   */\n      dup6\n        /* \"#utility.yul\":4290:4312   */\n      add\n        /* \"#utility.yul\":4269:4322   */\n      tag_120\n      jump\t// in\n    tag_219:\n        /* \"#utility.yul\":4259:4322   */\n      swap2\n      pop\n        /* \"#utility.yul\":4215:4332   */\n      pop\n        /* \"#utility.yul\":4010:4339   */\n      swap3\n      swap2\n      pop\n      pop\n      jump\t// out\n        /* \"#utility.yul\":4345:4463   */\n    tag_121:\n        /* \"#utility.yul\":4432:4456   */\n      tag_221\n        /* \"#utility.yul\":4450:4455   */\n      dup2\n        /* \"#utility.yul\":4432:4456   */\n      tag_118\n      jump\t// in\n    tag_221:\n        /* \"#utility.yul\":4427:4430   */\n      dup3\n        /* \"#utility.yul\":4420:4457   */\n      mstore\n        /* \"#utility.yul\":4345:4463   */\n      pop\n      pop\n      jump\t// out\n        /* \"#utility.yul\":4469:4691   */\n    tag_38:\n        /* \"#utility.yul\":4562:4566   */\n      0x00\n        /* \"#utility.yul\":4600:4602   */\n      0x20\n        /* \"#utility.yul\":4589:4598   */\n      dup3\n        /* \"#utility.yul\":4585:4603   */\n      add\n        /* \"#utility.yul\":4577:4603   */\n      swap1\n      pop\n        /* \"#utility.yul\":4613:4684   */\n      tag_223\n        /* \"#utility.yul\":4681:4682   */\n      0x00\n        /* \"#utility.yul\":4670:4679   */\n      dup4\n        /* \"#utility.yul\":4666:4683   */\n      add\n        /* \"#utility.yul\":4657:4663   */\n      dup5\n        /* \"#utility.yul\":4613:4684   */\n      tag_121\n      jump\t// in\n    tag_223:\n        /* \"#utility.yul\":4469:4691   */\n      swap3\n      swap2\n      pop\n      pop\n      jump\t// out\n        /* \"#utility.yul\":4697:4821   */\n    tag_122:\n        /* \"#utility.yul\":4774:4780   */\n      0x00\n        /* \"#utility.yul\":4808:4813   */\n      dup2\n        /* \"#utility.yul\":4802:4814   */\n      mload\n        /* \"#utility.yul\":4792:4814   */\n      swap1\n      pop\n        /* \"#utility.yul\":4697:4821   */\n      swap2\n      swap1\n      pop\n      jump\t// out\n        /* \"#utility.yul\":4827:5021   */\n    tag_123:\n        /* \"#utility.yul\":4936:4947   */\n      0x00\n        /* \"#utility.yul\":4970:4976   */\n      dup3\n        /* \"#utility.yul\":4965:4968   */\n      dup3\n        /* \"#utility.yul\":4958:4977   */\n      mstore\n        /* \"#utility.yul\":5010:5014   */\n      0x20\n        /* \"#utility.yul\":5005:5008   */\n      dup3\n        /* \"#utility.yul\":5001:5015   */\n      add\n        /* \"#utility.yul\":4986:5015   */\n      swap1\n      pop\n        /* \"#utility.yul\":4827:5021   */\n      swap3\n      swap2\n      pop\n      pop\n      jump\t// out\n        /* \"#utility.yul\":5027:5169   */\n    tag_124:\n        /* \"#utility.yul\":5104:5108   */\n      0x00\n        /* \"#utility.yul\":5127:5130   */\n      dup2\n        /* \"#utility.yul\":5119:5130   */\n      swap1\n      pop\n        /* \"#utility.yul\":5157:5161   */\n      0x20\n        /* \"#utility.yul\":5152:5155   */\n      dup3\n        /* \"#utility.yul\":5148:5162   */\n      add\n        /* \"#utility.yul\":5140:5162   */\n      swap1\n      pop\n        /* \"#utility.yul\":5027:5169   */\n      swap2\n      swap1\n      pop\n      jump\t// out\n        /* \"#utility.yul\":5175:5274   */\n    tag_125:\n        /* \"#utility.yul\":5227:5233   */\n      0x00\n        /* \"#utility.yul\":5261:5266   */\n      dup2\n        /* \"#utility.yul\":5255:5267   */\n      mload\n        /* \"#utility.yul\":5245:5267   */\n      swap1\n      pop\n        /* \"#utility.yul\":5175:5274   */\n      swap2\n      swap1\n      pop\n      jump\t// out\n        /* \"#utility.yul\":5280:5439   */\n    tag_126:\n        /* \"#utility.yul\":5354:5365   */\n      0x00\n        /* \"#utility.yul\":5388:5394   */\n      dup3\n        /* \"#utility.yul\":5383:5386   */\n      dup3\n        /* \"#utility.yul\":5376:5395   */\n      mstore\n        /* \"#utility.yul\":5428:5432   */\n      0x20\n        /* \"#utility.yul\":5423:5426   */\n      dup3\n        /* \"#utility.yul\":5419:5433   */\n      add\n        /* \"#utility.yul\":5404:5433   */\n      swap1\n      pop\n        /* \"#utility.yul\":5280:5439   */\n      swap3\n      swap2\n      pop\n      pop\n      jump\t// out\n        /* \"#utility.yul\":5445:5691   */\n    tag_127:\n        /* \"#utility.yul\":5526:5527   */\n      0x00\n        /* \"#utility.yul\":5536:5649   */\n    tag_230:\n        /* \"#utility.yul\":5550:5556   */\n      dup4\n        /* \"#utility.yul\":5547:5548   */\n      dup2\n        /* \"#utility.yul\":5544:5557   */\n      lt\n        /* \"#utility.yul\":5536:5649   */\n      iszero\n      tag_232\n      jumpi\n        /* \"#utility.yul\":5635:5636   */\n      dup1\n        /* \"#utility.yul\":5630:5633   */\n      dup3\n        /* \"#utility.yul\":5626:5637   */\n      add\n        /* \"#utility.yul\":5620:5638   */\n      mload\n        /* \"#utility.yul\":5616:5617   */\n      dup2\n        /* \"#utility.yul\":5611:5614   */\n      dup5\n        /* \"#utility.yul\":5607:5618   */\n      add\n        /* \"#utility.yul\":5600:5639   */\n      mstore\n        /* \"#utility.yul\":5572:5574   */\n      0x20\n        /* \"#utility.yul\":5569:5570   */\n      dup2\n        /* \"#utility.yul\":5565:5575   */\n      add\n        /* \"#utility.yul\":5560:5575   */\n      swap1\n      pop\n        /* \"#utility.yul\":5536:5649   */\n      jump(tag_230)\n    tag_232:\n        /* \"#utility.yul\":5683:5684   */\n      0x00\n        /* \"#utility.yul\":5674:5680   */\n      dup5\n        /* \"#utility.yul\":5669:5672   */\n      dup5\n        /* \"#utility.yul\":5665:5681   */\n      add\n        /* \"#utility.yul\":5658:5685   */\n      mstore\n        /* \"#utility.yul\":5507:5691   */\n      pop\n        /* \"#utility.yul\":5445:5691   */\n      pop\n      pop\n      pop\n      jump\t// out\n        /* \"#utility.yul\":5697:6054   */\n    tag_128:\n        /* \"#utility.yul\":5775:5778   */\n      0x00\n        /* \"#utility.yul\":5803:5842   */\n      tag_234\n        /* \"#utility.yul\":5836:5841   */\n      dup3\n        /* \"#utility.yul\":5803:5842   */\n      tag_125\n      jump\t// in\n    tag_234:\n        /* \"#utility.yul\":5858:5919   */\n      tag_235\n        /* \"#utility.yul\":5912:5918   */\n      dup2\n        /* \"#utility.yul\":5907:5910   */\n      dup6\n        /* \"#utility.yul\":5858:5919   */\n      tag_126\n      jump\t// in\n    tag_235:\n        /* \"#utility.yul\":5851:5919   */\n      swap4\n      pop\n        /* \"#utility.yul\":5928:5993   */\n      tag_236\n        /* \"#utility.yul\":5986:5992   */\n      dup2\n        /* \"#utility.yul\":5981:5984   */\n      dup6\n        /* \"#utility.yul\":5974:5978   */\n      0x20\n        /* \"#utility.yul\":5967:5972   */\n      dup7\n        /* \"#utility.yul\":5963:5979   */\n      add\n        /* \"#utility.yul\":5928:5993   */\n      tag_127\n      jump\t// in\n    tag_236:\n        /* \"#utility.yul\":6018:6047   */\n      tag_237\n        /* \"#utility.yul\":6040:6046   */\n      dup2\n        /* \"#utility.yul\":6018:6047   */\n      tag_107\n      jump\t// in\n    tag_237:\n        /* \"#utility.yul\":6013:6016   */\n      dup5\n        /* \"#utility.yul\":6009:6048   */\n      add\n        /* \"#utility.yul\":6002:6048   */\n      swap2\n      pop\n        /* \"#utility.yul\":5779:6054   */\n      pop\n        /* \"#utility.yul\":5697:6054   */\n      swap3\n      swap2\n      pop\n      pop\n      jump\t// out\n        /* \"#utility.yul\":6060:6256   */\n    tag_129:\n        /* \"#utility.yul\":6149:6159   */\n      0x00\n        /* \"#utility.yul\":6184:6250   */\n      tag_239\n        /* \"#utility.yul\":6246:6249   */\n      dup4\n        /* \"#utility.yul\":6238:6244   */\n      dup4\n        /* \"#utility.yul\":6184:6250   */\n      tag_128\n      jump\t// in\n    tag_239:\n        /* \"#utility.yul\":6170:6250   */\n      swap1\n      pop\n        /* \"#utility.yul\":6060:6256   */\n      swap3\n      swap2\n      pop\n      pop\n      jump\t// out\n        /* \"#utility.yul\":6262:6385   */\n    tag_130:\n        /* \"#utility.yul\":6342:6346   */\n      0x00\n        /* \"#utility.yul\":6374:6378   */\n      0x20\n        /* \"#utility.yul\":6369:6372   */\n      dup3\n        /* \"#utility.yul\":6365:6379   */\n      add\n        /* \"#utility.yul\":6357:6379   */\n      swap1\n      pop\n        /* \"#utility.yul\":6262:6385   */\n      swap2\n      swap1\n      pop\n      jump\t// out\n        /* \"#utility.yul\":6419:7410   */\n    tag_131:\n        /* \"#utility.yul\":6558:6561   */\n      0x00\n        /* \"#utility.yul\":6587:6651   */\n      tag_242\n        /* \"#utility.yul\":6645:6650   */\n      dup3\n        /* \"#utility.yul\":6587:6651   */\n      tag_122\n      jump\t// in\n    tag_242:\n        /* \"#utility.yul\":6667:6763   */\n      tag_243\n        /* \"#utility.yul\":6756:6762   */\n      dup2\n        /* \"#utility.yul\":6751:6754   */\n      dup6\n        /* \"#utility.yul\":6667:6763   */\n      tag_123\n      jump\t// in\n    tag_243:\n        /* \"#utility.yul\":6660:6763   */\n      swap4\n      pop\n        /* \"#utility.yul\":6789:6792   */\n      dup4\n        /* \"#utility.yul\":6834:6838   */\n      0x20\n        /* \"#utility.yul\":6826:6832   */\n      dup3\n        /* \"#utility.yul\":6822:6839   */\n      mul\n        /* \"#utility.yul\":6817:6820   */\n      dup6\n        /* \"#utility.yul\":6813:6840   */\n      add\n        /* \"#utility.yul\":6864:6930   */\n      tag_244\n        /* \"#utility.yul\":6924:6929   */\n      dup6\n        /* \"#utility.yul\":6864:6930   */\n      tag_124\n      jump\t// in\n    tag_244:\n        /* \"#utility.yul\":6953:6960   */\n      dup1\n        /* \"#utility.yul\":6984:6985   */\n      0x00\n        /* \"#utility.yul\":6969:7365   */\n    tag_245:\n        /* \"#utility.yul\":6994:7000   */\n      dup6\n        /* \"#utility.yul\":6991:6992   */\n      dup2\n        /* \"#utility.yul\":6988:7001   */\n      lt\n        /* \"#utility.yul\":6969:7365   */\n      iszero\n      tag_247\n      jumpi\n        /* \"#utility.yul\":7065:7074   */\n      dup5\n        /* \"#utility.yul\":7059:7063   */\n      dup5\n        /* \"#utility.yul\":7055:7075   */\n      sub\n        /* \"#utility.yul\":7050:7053   */\n      dup10\n        /* \"#utility.yul\":7043:7076   */\n      mstore\n        /* \"#utility.yul\":7116:7122   */\n      dup2\n        /* \"#utility.yul\":7110:7123   */\n      mload\n        /* \"#utility.yul\":7144:7228   */\n      tag_248\n        /* \"#utility.yul\":7223:7227   */\n      dup6\n        /* \"#utility.yul\":7208:7221   */\n      dup3\n        /* \"#utility.yul\":7144:7228   */\n      tag_129\n      jump\t// in\n    tag_248:\n        /* \"#utility.yul\":7136:7228   */\n      swap5\n      pop\n        /* \"#utility.yul\":7251:7321   */\n      tag_249\n        /* \"#utility.yul\":7314:7320   */\n      dup4\n        /* \"#utility.yul\":7251:7321   */\n      tag_130\n      jump\t// in\n    tag_249:\n        /* \"#utility.yul\":7241:7321   */\n      swap3\n      pop\n        /* \"#utility.yul\":7350:7354   */\n      0x20\n        /* \"#utility.yul\":7345:7348   */\n      dup11\n        /* \"#utility.yul\":7341:7355   */\n      add\n        /* \"#utility.yul\":7334:7355   */\n      swap10\n      pop\n        /* \"#utility.yul\":7029:7365   */\n      pop\n        /* \"#utility.yul\":7016:7017   */\n      0x01\n        /* \"#utility.yul\":7013:7014   */\n      dup2\n        /* \"#utility.yul\":7009:7018   */\n      add\n        /* \"#utility.yul\":7004:7018   */\n      swap1\n      pop\n        /* \"#utility.yul\":6969:7365   */\n      jump(tag_245)\n    tag_247:\n        /* \"#utility.yul\":6973:6987   */\n      pop\n        /* \"#utility.yul\":7381:7385   */\n      dup3\n        /* \"#utility.yul\":7374:7385   */\n      swap8\n      pop\n        /* \"#utility.yul\":7401:7404   */\n      dup8\n        /* \"#utility.yul\":7394:7404   */\n      swap6\n      pop\n        /* \"#utility.yul\":6563:7410   */\n      pop\n      pop\n      pop\n      pop\n      pop\n        /* \"#utility.yul\":6419:7410   */\n      swap3\n      swap2\n      pop\n      pop\n      jump\t// out\n        /* \"#utility.yul\":7416:7829   */\n    tag_51:\n        /* \"#utility.yul\":7579:7583   */\n      0x00\n        /* \"#utility.yul\":7617:7619   */\n      0x20\n        /* \"#utility.yul\":7606:7615   */\n      dup3\n        /* \"#utility.yul\":7602:7620   */\n      add\n        /* \"#utility.yul\":7594:7620   */\n      swap1\n      pop\n        /* \"#utility.yul\":7666:7675   */\n      dup2\n        /* \"#utility.yul\":7660:7664   */\n      dup2\n        /* \"#utility.yul\":7656:7676   */\n      sub\n        /* \"#utility.yul\":7652:7653   */\n      0x00\n        /* \"#utility.yul\":7641:7650   */\n      dup4\n        /* \"#utility.yul\":7637:7654   */\n      add\n        /* \"#utility.yul\":7630:7677   */\n      mstore\n        /* \"#utility.yul\":7694:7822   */\n      tag_251\n        /* \"#utility.yul\":7817:7821   */\n      dup2\n        /* \"#utility.yul\":7808:7814   */\n      dup5\n        /* \"#utility.yul\":7694:7822   */\n      tag_131\n      jump\t// in\n    tag_251:\n        /* \"#utility.yul\":7686:7822   */\n      swap1\n      pop\n        /* \"#utility.yul\":7416:7829   */\n      swap3\n      swap2\n      pop\n      pop\n      jump\t// out\n        /* \"#utility.yul\":7835:7957   */\n    tag_132:\n        /* \"#utility.yul\":7908:7932   */\n      tag_253\n        /* \"#utility.yul\":7926:7931   */\n      dup2\n        /* \"#utility.yul\":7908:7932   */\n      tag_115\n      jump\t// in\n    tag_253:\n        /* \"#utility.yul\":7901:7906   */\n      dup2\n        /* \"#utility.yul\":7898:7933   */\n      eq\n        /* \"#utility.yul\":7888:7951   */\n      tag_254\n      jumpi\n        /* \"#utility.yul\":7947:7948   */\n      0x00\n        /* \"#utility.yul\":7944:7945   */\n      dup1\n        /* \"#utility.yul\":7937:7949   */\n      revert\n        /* \"#utility.yul\":7888:7951   */\n    tag_254:\n        /* \"#utility.yul\":7835:7957   */\n      pop\n      jump\t// out\n        /* \"#utility.yul\":7963:8102   */\n    tag_133:\n        /* \"#utility.yul\":8009:8014   */\n      0x00\n        /* \"#utility.yul\":8047:8053   */\n      dup2\n        /* \"#utility.yul\":8034:8054   */\n      calldataload\n        /* \"#utility.yul\":8025:8054   */\n      swap1\n      pop\n        /* \"#utility.yul\":8063:8096   */\n      tag_256\n        /* \"#utility.yul\":8090:8095   */\n      dup2\n        /* \"#utility.yul\":8063:8096   */\n      tag_132\n      jump\t// in\n    tag_256:\n        /* \"#utility.yul\":7963:8102   */\n      swap3\n      swap2\n      pop\n      pop\n      jump\t// out\n        /* \"#utility.yul\":8108:8762   */\n    tag_55:\n        /* \"#utility.yul\":8186:8192   */\n      0x00\n        /* \"#utility.yul\":8194:8200   */\n      dup1\n        /* \"#utility.yul\":8243:8245   */\n      0x40\n        /* \"#utility.yul\":8231:8240   */\n      dup4\n        /* \"#utility.yul\":8222:8229   */\n      dup6\n        /* \"#utility.yul\":8218:8241   */\n      sub\n        /* \"#utility.yul\":8214:8246   */\n      slt\n        /* \"#utility.yul\":8211:8330   */\n      iszero\n      tag_258\n      jumpi\n        /* \"#utility.yul\":8249:8328   */\n      tag_259\n      tag_103\n      jump\t// in\n    tag_259:\n        /* \"#utility.yul\":8211:8330   */\n    tag_258:\n        /* \"#utility.yul\":8397:8398   */\n      0x00\n        /* \"#utility.yul\":8386:8395   */\n      dup4\n        /* \"#utility.yul\":8382:8399   */\n      add\n        /* \"#utility.yul\":8369:8400   */\n      calldataload\n        /* \"#utility.yul\":8427:8445   */\n      0xffffffffffffffff\n        /* \"#utility.yul\":8419:8425   */\n      dup2\n        /* \"#utility.yul\":8416:8446   */\n      gt\n        /* \"#utility.yul\":8413:8530   */\n      iszero\n      tag_260\n      jumpi\n        /* \"#utility.yul\":8449:8528   */\n      tag_261\n      tag_104\n      jump\t// in\n    tag_261:\n        /* \"#utility.yul\":8413:8530   */\n    tag_260:\n        /* \"#utility.yul\":8554:8617   */\n      tag_262\n        /* \"#utility.yul\":8609:8616   */\n      dup6\n        /* \"#utility.yul\":8600:8606   */\n      dup3\n        /* \"#utility.yul\":8589:8598   */\n      dup7\n        /* \"#utility.yul\":8585:8607   */\n      add\n        /* \"#utility.yul\":8554:8617   */\n      tag_114\n      jump\t// in\n    tag_262:\n        /* \"#utility.yul\":8544:8617   */\n      swap3\n      pop\n        /* \"#utility.yul\":8340:8627   */\n      pop\n        /* \"#utility.yul\":8666:8668   */\n      0x20\n        /* \"#utility.yul\":8692:8745   */\n      tag_263\n        /* \"#utility.yul\":8737:8744   */\n      dup6\n        /* \"#utility.yul\":8728:8734   */\n      dup3\n        /* \"#utility.yul\":8717:8726   */\n      dup7\n        /* \"#utility.yul\":8713:8735   */\n      add\n        /* \"#utility.yul\":8692:8745   */\n      tag_133\n      jump\t// in\n    tag_263:\n        /* \"#utility.yul\":8682:8745   */\n      swap2\n      pop\n        /* \"#utility.yul\":8637:8755   */\n      pop\n        /* \"#utility.yul\":8108:8762   */\n      swap3\n      pop\n      swap3\n      swap1\n      pop\n      jump\t// out\n        /* \"#utility.yul\":8768:8916   */\n    tag_134:\n        /* \"#utility.yul\":8870:8881   */\n      0x00\n        /* \"#utility.yul\":8907:8910   */\n      dup2\n        /* \"#utility.yul\":8892:8910   */\n      swap1\n      pop\n        /* \"#utility.yul\":8768:8916   */\n      swap3\n      swap2\n      pop\n      pop\n      jump\t// out\n        /* \"#utility.yul\":8922:9312   */\n    tag_135:\n        /* \"#utility.yul\":9028:9031   */\n      0x00\n        /* \"#utility.yul\":9056:9095   */\n      tag_266\n        /* \"#utility.yul\":9089:9094   */\n      dup3\n        /* \"#utility.yul\":9056:9095   */\n      tag_125\n      jump\t// in\n    tag_266:\n        /* \"#utility.yul\":9111:9200   */\n      tag_267\n        /* \"#utility.yul\":9193:9199   */\n      dup2\n        /* \"#utility.yul\":9188:9191   */\n      dup6\n        /* \"#utility.yul\":9111:9200   */\n      tag_134\n      jump\t// in\n    tag_267:\n        /* \"#utility.yul\":9104:9200   */\n      swap4\n      pop\n        /* \"#utility.yul\":9209:9274   */\n      tag_268\n        /* \"#utility.yul\":9267:9273   */\n      dup2\n        /* \"#utility.yul\":9262:9265   */\n      dup6\n        /* \"#utility.yul\":9255:9259   */\n      0x20\n        /* \"#utility.yul\":9248:9253   */\n      dup7\n        /* \"#utility.yul\":9244:9260   */\n      add\n        /* \"#utility.yul\":9209:9274   */\n      tag_127\n      jump\t// in\n    tag_268:\n        /* \"#utility.yul\":9299:9305   */\n      dup1\n        /* \"#utility.yul\":9294:9297   */\n      dup5\n        /* \"#utility.yul\":9290:9306   */\n      add\n        /* \"#utility.yul\":9283:9306   */\n      swap2\n      pop\n        /* \"#utility.yul\":9032:9312   */\n      pop\n        /* \"#utility.yul\":8922:9312   */\n      swap3\n      swap2\n      pop\n      pop\n      jump\t// out\n        /* \"#utility.yul\":9318:9593   */\n    tag_59:\n        /* \"#utility.yul\":9450:9453   */\n      0x00\n        /* \"#utility.yul\":9472:9567   */\n      tag_270\n        /* \"#utility.yul\":9563:9566   */\n      dup3\n        /* \"#utility.yul\":9554:9560   */\n      dup5\n        /* \"#utility.yul\":9472:9567   */\n      tag_135\n      jump\t// in\n    tag_270:\n        /* \"#utility.yul\":9465:9567   */\n      swap2\n      pop\n        /* \"#utility.yul\":9584:9587   */\n      dup2\n        /* \"#utility.yul\":9577:9587   */\n      swap1\n      pop\n        /* \"#utility.yul\":9318:9593   */\n      swap3\n      swap2\n      pop\n      pop\n      jump\t// out\n        /* \"#utility.yul\":9599:9768   */\n    tag_136:\n        /* \"#utility.yul\":9683:9694   */\n      0x00\n        /* \"#utility.yul\":9717:9723   */\n      dup3\n        /* \"#utility.yul\":9712:9715   */\n      dup3\n        /* \"#utility.yul\":9705:9724   */\n      mstore\n        /* \"#utility.yul\":9757:9761   */\n      0x20\n        /* \"#utility.yul\":9752:9755   */\n      dup3\n        /* \"#utility.yul\":9748:9762   */\n      add\n        /* \"#utility.yul\":9733:9762   */\n      swap1\n      pop\n        /* \"#utility.yul\":9599:9768   */\n      swap3\n      swap2\n      pop\n      pop\n      jump\t// out\n        /* \"#utility.yul\":9774:9943   */\n    tag_137:\n        /* \"#utility.yul\":9914:9935   */\n      0x4e6f7420612076616c69642041756374696f6e00000000000000000000000000\n        /* \"#utility.yul\":9910:9911   */\n      0x00\n        /* \"#utility.yul\":9902:9908   */\n      dup3\n        /* \"#utility.yul\":9898:9912   */\n      add\n        /* \"#utility.yul\":9891:9936   */\n      mstore\n        /* \"#utility.yul\":9774:9943   */\n      pop\n      jump\t// out\n        /* \"#utility.yul\":9949:10315   */\n    tag_138:\n        /* \"#utility.yul\":10091:10094   */\n      0x00\n        /* \"#utility.yul\":10112:10179   */\n      tag_274\n        /* \"#utility.yul\":10176:10178   */\n      0x13\n        /* \"#utility.yul\":10171:10174   */\n      dup4\n        /* \"#utility.yul\":10112:10179   */\n      tag_136\n      jump\t// in\n    tag_274:\n        /* \"#utility.yul\":10105:10179   */\n      swap2\n      pop\n        /* \"#utility.yul\":10188:10281   */\n      tag_275\n        /* \"#utility.yul\":10277:10280   */\n      dup3\n        /* \"#utility.yul\":10188:10281   */\n      tag_137\n      jump\t// in\n    tag_275:\n        /* \"#utility.yul\":10306:10308   */\n      0x20\n        /* \"#utility.yul\":10301:10304   */\n      dup3\n        /* \"#utility.yul\":10297:10309   */\n      add\n        /* \"#utility.yul\":10290:10309   */\n      swap1\n      pop\n        /* \"#utility.yul\":9949:10315   */\n      swap2\n      swap1\n      pop\n      jump\t// out\n        /* \"#utility.yul\":10321:10740   */\n    tag_62:\n        /* \"#utility.yul\":10487:10491   */\n      0x00\n        /* \"#utility.yul\":10525:10527   */\n      0x20\n        /* \"#utility.yul\":10514:10523   */\n      dup3\n        /* \"#utility.yul\":10510:10528   */\n      add\n        /* \"#utility.yul\":10502:10528   */\n      swap1\n      pop\n        /* \"#utility.yul\":10574:10583   */\n      dup2\n        /* \"#utility.yul\":10568:10572   */\n      dup2\n        /* \"#utility.yul\":10564:10584   */\n      sub\n        /* \"#utility.yul\":10560:10561   */\n      0x00\n        /* \"#utility.yul\":10549:10558   */\n      dup4\n        /* \"#utility.yul\":10545:10562   */\n      add\n        /* \"#utility.yul\":10538:10585   */\n      mstore\n        /* \"#utility.yul\":10602:10733   */\n      tag_277\n        /* \"#utility.yul\":10728:10732   */\n      dup2\n        /* \"#utility.yul\":10602:10733   */\n      tag_138\n      jump\t// in\n    tag_277:\n        /* \"#utility.yul\":10594:10733   */\n      swap1\n      pop\n        /* \"#utility.yul\":10321:10740   */\n      swap2\n      swap1\n      pop\n      jump\t// out\n        /* \"#utility.yul\":10746:10904   */\n    tag_139:\n        /* \"#utility.yul\":10886:10896   */\n      0x54696d65206f7574000000000000000000000000000000000000000000000000\n        /* \"#utility.yul\":10882:10883   */\n      0x00\n        /* \"#utility.yul\":10874:10880   */\n      dup3\n        /* \"#utility.yul\":10870:10884   */\n      add\n        /* \"#utility.yul\":10863:10897   */\n      mstore\n        /* \"#utility.yul\":10746:10904   */\n      pop\n      jump\t// out\n        /* \"#utility.yul\":10910:11275   */\n    tag_140:\n        /* \"#utility.yul\":11052:11055   */\n      0x00\n        /* \"#utility.yul\":11073:11139   */\n      tag_280\n        /* \"#utility.yul\":11137:11138   */\n      0x08\n        /* \"#utility.yul\":11132:11135   */\n      dup4\n        /* \"#utility.yul\":11073:11139   */\n      tag_136\n      jump\t// in\n    tag_280:\n        /* \"#utility.yul\":11066:11139   */\n      swap2\n      pop\n        /* \"#utility.yul\":11148:11241   */\n      tag_281\n        /* \"#utility.yul\":11237:11240   */\n      dup3\n        /* \"#utility.yul\":11148:11241   */\n      tag_139\n      jump\t// in\n    tag_281:\n        /* \"#utility.yul\":11266:11268   */\n      0x20\n        /* \"#utility.yul\":11261:11264   */\n      dup3\n        /* \"#utility.yul\":11257:11269   */\n      add\n        /* \"#utility.yul\":11250:11269   */\n      swap1\n      pop\n        /* \"#utility.yul\":10910:11275   */\n      swap2\n      swap1\n      pop\n      jump\t// out\n        /* \"#utility.yul\":11281:11700   */\n    tag_68:\n        /* \"#utility.yul\":11447:11451   */\n      0x00\n        /* \"#utility.yul\":11485:11487   */\n      0x20\n        /* \"#utility.yul\":11474:11483   */\n      dup3\n        /* \"#utility.yul\":11470:11488   */\n      add\n        /* \"#utility.yul\":11462:11488   */\n      swap1\n      pop\n        /* \"#utility.yul\":11534:11543   */\n      dup2\n        /* \"#utility.yul\":11528:11532   */\n      dup2\n        /* \"#utility.yul\":11524:11544   */\n      sub\n        /* \"#utility.yul\":11520:11521   */\n      0x00\n        /* \"#utility.yul\":11509:11518   */\n      dup4\n        /* \"#utility.yul\":11505:11522   */\n      add\n        /* \"#utility.yul\":11498:11545   */\n      mstore\n        /* \"#utility.yul\":11562:11693   */\n      tag_283\n        /* \"#utility.yul\":11688:11692   */\n      dup2\n        /* \"#utility.yul\":11562:11693   */\n      tag_140\n      jump\t// in\n    tag_283:\n        /* \"#utility.yul\":11554:11693   */\n      swap1\n      pop\n        /* \"#utility.yul\":11281:11700   */\n      swap2\n      swap1\n      pop\n      jump\t// out\n        /* \"#utility.yul\":11706:11880   */\n    tag_141:\n        /* \"#utility.yul\":11846:11872   */\n      0x506c65617365206269642068696768657220616d6f756e740000000000000000\n        /* \"#utility.yul\":11842:11843   */\n      0x00\n        /* \"#utility.yul\":11834:11840   */\n      dup3\n        /* \"#utility.yul\":11830:11844   */\n      add\n        /* \"#utility.yul\":11823:11873   */\n      mstore\n        /* \"#utility.yul\":11706:11880   */\n      pop\n      jump\t// out\n        /* \"#utility.yul\":11886:12252   */\n    tag_142:\n        /* \"#utility.yul\":12028:12031   */\n      0x00\n        /* \"#utility.yul\":12049:12116   */\n      tag_286\n        /* \"#utility.yul\":12113:12115   */\n      0x18\n        /* \"#utility.yul\":12108:12111   */\n      dup4\n        /* \"#utility.yul\":12049:12116   */\n      tag_136\n      jump\t// in\n    tag_286:\n        /* \"#utility.yul\":12042:12116   */\n      swap2\n      pop\n        /* \"#utility.yul\":12125:12218   */\n      tag_287\n        /* \"#utility.yul\":12214:12217   */\n      dup3\n        /* \"#utility.yul\":12125:12218   */\n      tag_141\n      jump\t// in\n    tag_287:\n        /* \"#utility.yul\":12243:12245   */\n      0x20\n        /* \"#utility.yul\":12238:12241   */\n      dup3\n        /* \"#utility.yul\":12234:12246   */\n      add\n        /* \"#utility.yul\":12227:12246   */\n      swap1\n      pop\n        /* \"#utility.yul\":11886:12252   */\n      swap2\n      swap1\n      pop\n      jump\t// out\n        /* \"#utility.yul\":12258:12677   */\n    tag_71:\n        /* \"#utility.yul\":12424:12428   */\n      0x00\n        /* \"#utility.yul\":12462:12464   */\n      0x20\n        /* \"#utility.yul\":12451:12460   */\n      dup3\n        /* \"#utility.yul\":12447:12465   */\n      add\n        /* \"#utility.yul\":12439:12465   */\n      swap1\n      pop\n        /* \"#utility.yul\":12511:12520   */\n      dup2\n        /* \"#utility.yul\":12505:12509   */\n      dup2\n        /* \"#utility.yul\":12501:12521   */\n      sub\n        /* \"#utility.yul\":12497:12498   */\n      0x00\n        /* \"#utility.yul\":12486:12495   */\n      dup4\n        /* \"#utility.yul\":12482:12499   */\n      add\n        /* \"#utility.yul\":12475:12522   */\n      mstore\n        /* \"#utility.yul\":12539:12670   */\n      tag_289\n        /* \"#utility.yul\":12665:12669   */\n      dup2\n        /* \"#utility.yul\":12539:12670   */\n      tag_142\n      jump\t// in\n    tag_289:\n        /* \"#utility.yul\":12531:12670   */\n      swap1\n      pop\n        /* \"#utility.yul\":12258:12677   */\n      swap2\n      swap1\n      pop\n      jump\t// out\n        /* \"#utility.yul\":12683:12856   */\n    tag_143:\n        /* \"#utility.yul\":12823:12848   */\n      0x636f6c6c6572206973206e6f7420746865206f776e6572000000000000000000\n        /* \"#utility.yul\":12819:12820   */\n      0x00\n        /* \"#utility.yul\":12811:12817   */\n      dup3\n        /* \"#utility.yul\":12807:12821   */\n      add\n        /* \"#utility.yul\":12800:12849   */\n      mstore\n        /* \"#utility.yul\":12683:12856   */\n      pop\n      jump\t// out\n        /* \"#utility.yul\":12862:13228   */\n    tag_144:\n        /* \"#utility.yul\":13004:13007   */\n      0x00\n        /* \"#utility.yul\":13025:13092   */\n      tag_292\n        /* \"#utility.yul\":13089:13091   */\n      0x17\n        /* \"#utility.yul\":13084:13087   */\n      dup4\n        /* \"#utility.yul\":13025:13092   */\n      tag_136\n      jump\t// in\n    tag_292:\n        /* \"#utility.yul\":13018:13092   */\n      swap2\n      pop\n        /* \"#utility.yul\":13101:13194   */\n      tag_293\n        /* \"#utility.yul\":13190:13193   */\n      dup3\n        /* \"#utility.yul\":13101:13194   */\n      tag_143\n      jump\t// in\n    tag_293:\n        /* \"#utility.yul\":13219:13221   */\n      0x20\n        /* \"#utility.yul\":13214:13217   */\n      dup3\n        /* \"#utility.yul\":13210:13222   */\n      add\n        /* \"#utility.yul\":13203:13222   */\n      swap1\n      pop\n        /* \"#utility.yul\":12862:13228   */\n      swap2\n      swap1\n      pop\n      jump\t// out\n        /* \"#utility.yul\":13234:13653   */\n    tag_74:\n        /* \"#utility.yul\":13400:13404   */\n      0x00\n        /* \"#utility.yul\":13438:13440   */\n      0x20\n        /* \"#utility.yul\":13427:13436   */\n      dup3\n        /* \"#utility.yul\":13423:13441   */\n      add\n        /* \"#utility.yul\":13415:13441   */\n      swap1\n      pop\n        /* \"#utility.yul\":13487:13496   */\n      dup2\n        /* \"#utility.yul\":13481:13485   */\n      dup2\n        /* \"#utility.yul\":13477:13497   */\n      sub\n        /* \"#utility.yul\":13473:13474   */\n      0x00\n        /* \"#utility.yul\":13462:13471   */\n      dup4\n        /* \"#utility.yul\":13458:13475   */\n      add\n        /* \"#utility.yul\":13451:13498   */\n      mstore\n        /* \"#utility.yul\":13515:13646   */\n      tag_295\n        /* \"#utility.yul\":13641:13645   */\n      dup2\n        /* \"#utility.yul\":13515:13646   */\n      tag_144\n      jump\t// in\n    tag_295:\n        /* \"#utility.yul\":13507:13646   */\n      swap1\n      pop\n        /* \"#utility.yul\":13234:13653   */\n      swap2\n      swap1\n      pop\n      jump\t// out\n        /* \"#utility.yul\":13659:13839   */\n    tag_145:\n        /* \"#utility.yul\":13707:13784   */\n      0x4e487b7100000000000000000000000000000000000000000000000000000000\n        /* \"#utility.yul\":13704:13705   */\n      0x00\n        /* \"#utility.yul\":13697:13785   */\n      mstore\n        /* \"#utility.yul\":13804:13808   */\n      0x11\n        /* \"#utility.yul\":13801:13802   */\n      0x04\n        /* \"#utility.yul\":13794:13809   */\n      mstore\n        /* \"#utility.yul\":13828:13832   */\n      0x24\n        /* \"#utility.yul\":13825:13826   */\n      0x00\n        /* \"#utility.yul\":13818:13833   */\n      revert\n        /* \"#utility.yul\":13845:14036   */\n    tag_77:\n        /* \"#utility.yul\":13885:13888   */\n      0x00\n        /* \"#utility.yul\":13904:13924   */\n      tag_298\n        /* \"#utility.yul\":13922:13923   */\n      dup3\n        /* \"#utility.yul\":13904:13924   */\n      tag_115\n      jump\t// in\n    tag_298:\n        /* \"#utility.yul\":13899:13924   */\n      swap2\n      pop\n        /* \"#utility.yul\":13938:13958   */\n      tag_299\n        /* \"#utility.yul\":13956:13957   */\n      dup4\n        /* \"#utility.yul\":13938:13958   */\n      tag_115\n      jump\t// in\n    tag_299:\n        /* \"#utility.yul\":13933:13958   */\n      swap3\n      pop\n        /* \"#utility.yul\":13981:13982   */\n      dup3\n        /* \"#utility.yul\":13978:13979   */\n      dup3\n        /* \"#utility.yul\":13974:13983   */\n      add\n        /* \"#utility.yul\":13967:13983   */\n      swap1\n      pop\n        /* \"#utility.yul\":14002:14005   */\n      dup1\n        /* \"#utility.yul\":13999:14000   */\n      dup3\n        /* \"#utility.yul\":13996:14006   */\n      gt\n        /* \"#utility.yul\":13993:14029   */\n      iszero\n      tag_300\n      jumpi\n        /* \"#utility.yul\":14009:14027   */\n      tag_301\n      tag_145\n      jump\t// in\n    tag_301:\n        /* \"#utility.yul\":13993:14029   */\n    tag_300:\n        /* \"#utility.yul\":13845:14036   */\n      swap3\n      swap2\n      pop\n      pop\n      jump\t// out\n        /* \"#utility.yul\":14042:14419   */\n    tag_146:\n        /* \"#utility.yul\":14130:14133   */\n      0x00\n        /* \"#utility.yul\":14158:14197   */\n      tag_303\n        /* \"#utility.yul\":14191:14196   */\n      dup3\n        /* \"#utility.yul\":14158:14197   */\n      tag_125\n      jump\t// in\n    tag_303:\n        /* \"#utility.yul\":14213:14284   */\n      tag_304\n        /* \"#utility.yul\":14277:14283   */\n      dup2\n        /* \"#utility.yul\":14272:14275   */\n      dup6\n        /* \"#utility.yul\":14213:14284   */\n      tag_136\n      jump\t// in\n    tag_304:\n        /* \"#utility.yul\":14206:14284   */\n      swap4\n      pop\n        /* \"#utility.yul\":14293:14358   */\n      tag_305\n        /* \"#utility.yul\":14351:14357   */\n      dup2\n        /* \"#utility.yul\":14346:14349   */\n      dup6\n        /* \"#utility.yul\":14339:14343   */\n      0x20\n        /* \"#utility.yul\":14332:14337   */\n      dup7\n        /* \"#utility.yul\":14328:14344   */\n      add\n        /* \"#utility.yul\":14293:14358   */\n      tag_127\n      jump\t// in\n    tag_305:\n        /* \"#utility.yul\":14383:14412   */\n      tag_306\n        /* \"#utility.yul\":14405:14411   */\n      dup2\n        /* \"#utility.yul\":14383:14412   */\n      tag_107\n      jump\t// in\n    tag_306:\n        /* \"#utility.yul\":14378:14381   */\n      dup5\n        /* \"#utility.yul\":14374:14413   */\n      add\n        /* \"#utility.yul\":14367:14413   */\n      swap2\n      pop\n        /* \"#utility.yul\":14134:14419   */\n      pop\n        /* \"#utility.yul\":14042:14419   */\n      swap3\n      swap2\n      pop\n      pop\n      jump\t// out\n        /* \"#utility.yul\":14425:14958   */\n    tag_79:\n        /* \"#utility.yul\":14594:14598   */\n      0x00\n        /* \"#utility.yul\":14632:14634   */\n      0x60\n        /* \"#utility.yul\":14621:14630   */\n      dup3\n        /* \"#utility.yul\":14617:14635   */\n      add\n        /* \"#utility.yul\":14609:14635   */\n      swap1\n      pop\n        /* \"#utility.yul\":14645:14716   */\n      tag_308\n        /* \"#utility.yul\":14713:14714   */\n      0x00\n        /* \"#utility.yul\":14702:14711   */\n      dup4\n        /* \"#utility.yul\":14698:14715   */\n      add\n        /* \"#utility.yul\":14689:14695   */\n      dup7\n        /* \"#utility.yul\":14645:14716   */\n      tag_121\n      jump\t// in\n    tag_308:\n        /* \"#utility.yul\":14726:14798   */\n      tag_309\n        /* \"#utility.yul\":14794:14796   */\n      0x20\n        /* \"#utility.yul\":14783:14792   */\n      dup4\n        /* \"#utility.yul\":14779:14797   */\n      add\n        /* \"#utility.yul\":14770:14776   */\n      dup6\n        /* \"#utility.yul\":14726:14798   */\n      tag_116\n      jump\t// in\n    tag_309:\n        /* \"#utility.yul\":14845:14854   */\n      dup2\n        /* \"#utility.yul\":14839:14843   */\n      dup2\n        /* \"#utility.yul\":14835:14855   */\n      sub\n        /* \"#utility.yul\":14830:14832   */\n      0x40\n        /* \"#utility.yul\":14819:14828   */\n      dup4\n        /* \"#utility.yul\":14815:14833   */\n      add\n        /* \"#utility.yul\":14808:14856   */\n      mstore\n        /* \"#utility.yul\":14873:14951   */\n      tag_310\n        /* \"#utility.yul\":14946:14950   */\n      dup2\n        /* \"#utility.yul\":14937:14943   */\n      dup5\n        /* \"#utility.yul\":14873:14951   */\n      tag_146\n      jump\t// in\n    tag_310:\n        /* \"#utility.yul\":14865:14951   */\n      swap1\n      pop\n        /* \"#utility.yul\":14425:14958   */\n      swap5\n      swap4\n      pop\n      pop\n      pop\n      pop\n      jump\t// out\n        /* \"#utility.yul\":14964:15144   */\n    tag_147:\n        /* \"#utility.yul\":15012:15089   */\n      0x4e487b7100000000000000000000000000000000000000000000000000000000\n        /* \"#utility.yul\":15009:15010   */\n      0x00\n        /* \"#utility.yul\":15002:15090   */\n      mstore\n        /* \"#utility.yul\":15109:15113   */\n      0x22\n        /* \"#utility.yul\":15106:15107   */\n      0x04\n        /* \"#utility.yul\":15099:15114   */\n      mstore\n        /* \"#utility.yul\":15133:15137   */\n      0x24\n        /* \"#utility.yul\":15130:15131   */\n      0x00\n        /* \"#utility.yul\":15123:15138   */\n      revert\n        /* \"#utility.yul\":15150:15470   */\n    tag_85:\n        /* \"#utility.yul\":15194:15200   */\n      0x00\n        /* \"#utility.yul\":15231:15232   */\n      0x02\n        /* \"#utility.yul\":15225:15229   */\n      dup3\n        /* \"#utility.yul\":15221:15233   */\n      div\n        /* \"#utility.yul\":15211:15233   */\n      swap1\n      pop\n        /* \"#utility.yul\":15278:15279   */\n      0x01\n        /* \"#utility.yul\":15272:15276   */\n      dup3\n        /* \"#utility.yul\":15268:15280   */\n      and\n        /* \"#utility.yul\":15299:15317   */\n      dup1\n        /* \"#utility.yul\":15289:15370   */\n      tag_313\n      jumpi\n        /* \"#utility.yul\":15355:15359   */\n      0x7f\n        /* \"#utility.yul\":15347:15353   */\n      dup3\n        /* \"#utility.yul\":15343:15360   */\n      and\n        /* \"#utility.yul\":15333:15360   */\n      swap2\n      pop\n        /* \"#utility.yul\":15289:15370   */\n    tag_313:\n        /* \"#utility.yul\":15417:15419   */\n      0x20\n        /* \"#utility.yul\":15409:15415   */\n      dup3\n        /* \"#utility.yul\":15406:15420   */\n      lt\n        /* \"#utility.yul\":15386:15404   */\n      dup2\n        /* \"#utility.yul\":15383:15421   */\n      sub\n        /* \"#utility.yul\":15380:15464   */\n      tag_314\n      jumpi\n        /* \"#utility.yul\":15436:15454   */\n      tag_315\n      tag_147\n      jump\t// in\n    tag_315:\n        /* \"#utility.yul\":15380:15464   */\n    tag_314:\n        /* \"#utility.yul\":15201:15470   */\n      pop\n        /* \"#utility.yul\":15150:15470   */\n      swap2\n      swap1\n      pop\n      jump\t// out\n        /* \"#utility.yul\":15476:15705   */\n    tag_148:\n        /* \"#utility.yul\":15616:15650   */\n      0x4f6e6c79207468652061756374696f6e6565722063616e206372656174652061\n        /* \"#utility.yul\":15612:15613   */\n      0x00\n        /* \"#utility.yul\":15604:15610   */\n      dup3\n        /* \"#utility.yul\":15600:15614   */\n      add\n        /* \"#utility.yul\":15593:15651   */\n      mstore\n        /* \"#utility.yul\":15685:15697   */\n      0x6e2061756374696f6e2000000000000000000000000000000000000000000000\n        /* \"#utility.yul\":15680:15682   */\n      0x20\n        /* \"#utility.yul\":15672:15678   */\n      dup3\n        /* \"#utility.yul\":15668:15683   */\n      add\n        /* \"#utility.yul\":15661:15698   */\n      mstore\n        /* \"#utility.yul\":15476:15705   */\n      pop\n      jump\t// out\n        /* \"#utility.yul\":15711:16077   */\n    tag_149:\n        /* \"#utility.yul\":15853:15856   */\n      0x00\n        /* \"#utility.yul\":15874:15941   */\n      tag_318\n        /* \"#utility.yul\":15938:15940   */\n      0x2a\n        /* \"#utility.yul\":15933:15936   */\n      dup4\n        /* \"#utility.yul\":15874:15941   */\n      tag_136\n      jump\t// in\n    tag_318:\n        /* \"#utility.yul\":15867:15941   */\n      swap2\n      pop\n        /* \"#utility.yul\":15950:16043   */\n      tag_319\n        /* \"#utility.yul\":16039:16042   */\n      dup3\n        /* \"#utility.yul\":15950:16043   */\n      tag_148\n      jump\t// in\n    tag_319:\n        /* \"#utility.yul\":16068:16070   */\n      0x40\n        /* \"#utility.yul\":16063:16066   */\n      dup3\n        /* \"#utility.yul\":16059:16071   */\n      add\n        /* \"#utility.yul\":16052:16071   */\n      swap1\n      pop\n        /* \"#utility.yul\":15711:16077   */\n      swap2\n      swap1\n      pop\n      jump\t// out\n        /* \"#utility.yul\":16083:16502   */\n    tag_93:\n        /* \"#utility.yul\":16249:16253   */\n      0x00\n        /* \"#utility.yul\":16287:16289   */\n      0x20\n        /* \"#utility.yul\":16276:16285   */\n      dup3\n        /* \"#utility.yul\":16272:16290   */\n      add\n        /* \"#utility.yul\":16264:16290   */\n      swap1\n      pop\n        /* \"#utility.yul\":16336:16345   */\n      dup2\n        /* \"#utility.yul\":16330:16334   */\n      dup2\n        /* \"#utility.yul\":16326:16346   */\n      sub\n        /* \"#utility.yul\":16322:16323   */\n      0x00\n        /* \"#utility.yul\":16311:16320   */\n      dup4\n        /* \"#utility.yul\":16307:16324   */\n      add\n        /* \"#utility.yul\":16300:16347   */\n      mstore\n        /* \"#utility.yul\":16364:16495   */\n      tag_321\n        /* \"#utility.yul\":16490:16494   */\n      dup2\n        /* \"#utility.yul\":16364:16495   */\n      tag_149\n      jump\t// in\n    tag_321:\n        /* \"#utility.yul\":16356:16495   */\n      swap1\n      pop\n        /* \"#utility.yul\":16083:16502   */\n      swap2\n      swap1\n      pop\n      jump\t// out\n        /* \"#utility.yul\":16508:16674   */\n    tag_150:\n        /* \"#utility.yul\":16648:16666   */\n      0x696e76616c69642074696d65206f757400000000000000000000000000000000\n        /* \"#utility.yul\":16644:16645   */\n      0x00\n        /* \"#utility.yul\":16636:16642   */\n      dup3\n        /* \"#utility.yul\":16632:16646   */\n      add\n        /* \"#utility.yul\":16625:16667   */\n      mstore\n        /* \"#utility.yul\":16508:16674   */\n      pop\n      jump\t// out\n        /* \"#utility.yul\":16680:17046   */\n    tag_151:\n        /* \"#utility.yul\":16822:16825   */\n      0x00\n        /* \"#utility.yul\":16843:16910   */\n      tag_324\n        /* \"#utility.yul\":16907:16909   */\n      0x10\n        /* \"#utility.yul\":16902:16905   */\n      dup4\n        /* \"#utility.yul\":16843:16910   */\n      tag_136\n      jump\t// in\n    tag_324:\n        /* \"#utility.yul\":16836:16910   */\n      swap2\n      pop\n        /* \"#utility.yul\":16919:17012   */\n      tag_325\n        /* \"#utility.yul\":17008:17011   */\n      dup3\n        /* \"#utility.yul\":16919:17012   */\n      tag_150\n      jump\t// in\n    tag_325:\n        /* \"#utility.yul\":17037:17039   */\n      0x20\n        /* \"#utility.yul\":17032:17035   */\n      dup3\n        /* \"#utility.yul\":17028:17040   */\n      add\n        /* \"#utility.yul\":17021:17040   */\n      swap1\n      pop\n        /* \"#utility.yul\":16680:17046   */\n      swap2\n      swap1\n      pop\n      jump\t// out\n        /* \"#utility.yul\":17052:17471   */\n    tag_96:\n        /* \"#utility.yul\":17218:17222   */\n      0x00\n        /* \"#utility.yul\":17256:17258   */\n      0x20\n        /* \"#utility.yul\":17245:17254   */\n      dup3\n        /* \"#utility.yul\":17241:17259   */\n      add\n        /* \"#utility.yul\":17233:17259   */\n      swap1\n      pop\n        /* \"#utility.yul\":17305:17314   */\n      dup2\n        /* \"#utility.yul\":17299:17303   */\n      dup2\n        /* \"#utility.yul\":17295:17315   */\n      sub\n        /* \"#utility.yul\":17291:17292   */\n      0x00\n        /* \"#utility.yul\":17280:17289   */\n      dup4\n        /* \"#utility.yul\":17276:17293   */\n      add\n        /* \"#utility.yul\":17269:17316   */\n      mstore\n        /* \"#utility.yul\":17333:17464   */\n      tag_327\n        /* \"#utility.yul\":17459:17463   */\n      dup2\n        /* \"#utility.yul\":17333:17464   */\n      tag_151\n      jump\t// in\n    tag_327:\n        /* \"#utility.yul\":17325:17464   */\n      swap1\n      pop\n        /* \"#utility.yul\":17052:17471   */\n      swap2\n      swap1\n      pop\n      jump\t// out\n        /* \"#utility.yul\":17477:17618   */\n    tag_152:\n        /* \"#utility.yul\":17526:17530   */\n      0x00\n        /* \"#utility.yul\":17549:17552   */\n      dup2\n        /* \"#utility.yul\":17541:17552   */\n      swap1\n      pop\n        /* \"#utility.yul\":17572:17575   */\n      dup2\n        /* \"#utility.yul\":17569:17570   */\n      0x00\n        /* \"#utility.yul\":17562:17576   */\n      mstore\n        /* \"#utility.yul\":17606:17610   */\n      0x20\n        /* \"#utility.yul\":17603:17604   */\n      0x00\n        /* \"#utility.yul\":17593:17611   */\n      keccak256\n        /* \"#utility.yul\":17585:17611   */\n      swap1\n      pop\n        /* \"#utility.yul\":17477:17618   */\n      swap2\n      swap1\n      pop\n      jump\t// out\n        /* \"#utility.yul\":17624:17717   */\n    tag_153:\n        /* \"#utility.yul\":17661:17667   */\n      0x00\n        /* \"#utility.yul\":17708:17710   */\n      0x20\n        /* \"#utility.yul\":17703:17705   */\n      0x1f\n        /* \"#utility.yul\":17696:17701   */\n      dup4\n        /* \"#utility.yul\":17692:17706   */\n      add\n        /* \"#utility.yul\":17688:17711   */\n      div\n        /* \"#utility.yul\":17678:17711   */\n      swap1\n      pop\n        /* \"#utility.yul\":17624:17717   */\n      swap2\n      swap1\n      pop\n      jump\t// out\n        /* \"#utility.yul\":17723:17830   */\n    tag_154:\n        /* \"#utility.yul\":17767:17775   */\n      0x00\n        /* \"#utility.yul\":17817:17822   */\n      dup3\n        /* \"#utility.yul\":17811:17815   */\n      dup3\n        /* \"#utility.yul\":17807:17823   */\n      shl\n        /* \"#utility.yul\":17786:17823   */\n      swap1\n      pop\n        /* \"#utility.yul\":17723:17830   */\n      swap3\n      swap2\n      pop\n      pop\n      jump\t// out\n        /* \"#utility.yul\":17836:18229   */\n    tag_155:\n        /* \"#utility.yul\":17905:17911   */\n      0x00\n        /* \"#utility.yul\":17955:17956   */\n      0x08\n        /* \"#utility.yul\":17943:17953   */\n      dup4\n        /* \"#utility.yul\":17939:17957   */\n      mul\n        /* \"#utility.yul\":17978:18075   */\n      tag_332\n        /* \"#utility.yul\":18008:18074   */\n      0xffffffffffffffffffffffffffffffffffffffffffffffffffffffffffffffff\n        /* \"#utility.yul\":17997:18006   */\n      dup3\n        /* \"#utility.yul\":17978:18075   */\n      tag_154\n      jump\t// in\n    tag_332:\n        /* \"#utility.yul\":18096:18135   */\n      tag_333\n        /* \"#utility.yul\":18126:18134   */\n      dup7\n        /* \"#utility.yul\":18115:18124   */\n      dup4\n        /* \"#utility.yul\":18096:18135   */\n      tag_154\n      jump\t// in\n    tag_333:\n        /* \"#utility.yul\":18084:18135   */\n      swap6\n      pop\n        /* \"#utility.yul\":18168:18172   */\n      dup1\n        /* \"#utility.yul\":18164:18173   */\n      not\n        /* \"#utility.yul\":18157:18162   */\n      dup5\n        /* \"#utility.yul\":18153:18174   */\n      and\n        /* \"#utility.yul\":18144:18174   */\n      swap4\n      pop\n        /* \"#utility.yul\":18217:18221   */\n      dup1\n        /* \"#utility.yul\":18207:18215   */\n      dup7\n        /* \"#utility.yul\":18203:18222   */\n      and\n        /* \"#utility.yul\":18196:18201   */\n      dup5\n        /* \"#utility.yul\":18193:18223   */\n      or\n        /* \"#utility.yul\":18183:18223   */\n      swap3\n      pop\n        /* \"#utility.yul\":17912:18229   */\n      pop\n      pop\n        /* \"#utility.yul\":17836:18229   */\n      swap4\n      swap3\n      pop\n      pop\n      pop\n      jump\t// out\n        /* \"#utility.yul\":18235:18295   */\n    tag_156:\n        /* \"#utility.yul\":18263:18266   */\n      0x00\n        /* \"#utility.yul\":18284:18289   */\n      dup2\n        /* \"#utility.yul\":18277:18289   */\n      swap1\n      pop\n        /* \"#utility.yul\":18235:18295   */\n      swap2\n      swap1\n      pop\n      jump\t// out\n        /* \"#utility.yul\":18301:18443   */\n    tag_157:\n        /* \"#utility.yul\":18351:18360   */\n      0x00\n        /* \"#utility.yul\":18384:18437   */\n      tag_336\n        /* \"#utility.yul\":18402:18436   */\n      tag_337\n        /* \"#utility.yul\":18411:18435   */\n      tag_338\n        /* \"#utility.yul\":18429:18434   */\n      dup5\n        /* \"#utility.yul\":18411:18435   */\n      tag_115\n      jump\t// in\n    tag_338:\n        /* \"#utility.yul\":18402:18436   */\n      tag_156\n      jump\t// in\n    tag_337:\n        /* \"#utility.yul\":18384:18437   */\n      tag_115\n      jump\t// in\n    tag_336:\n        /* \"#utility.yul\":18371:18437   */\n      swap1\n      pop\n        /* \"#utility.yul\":18301:18443   */\n      swap2\n      swap1\n      pop\n      jump\t// out\n        /* \"#utility.yul\":18449:18524   */\n    tag_158:\n        /* \"#utility.yul\":18492:18495   */\n      0x00\n        /* \"#utility.yul\":18513:18518   */\n      dup2\n        /* \"#utility.yul\":18506:18518   */\n      swap1\n      pop\n        /* \"#utility.yul\":18449:18524   */\n      swap2\n      swap1\n      pop\n      jump\t// out\n        /* \"#utility.yul\":18530:18799   */\n    tag_159:\n        /* \"#utility.yul\":18640:18679   */\n      tag_341\n        /* \"#utility.yul\":18671:18678   */\n      dup4\n        /* \"#utility.yul\":18640:18679   */\n      tag_157\n      jump\t// in\n    tag_341:\n        /* \"#utility.yul\":18701:18792   */\n      tag_342\n        /* \"#utility.yul\":18750:18791   */\n      tag_343\n        /* \"#utility.yul\":18774:18790   */\n      dup3\n        /* \"#utility.yul\":18750:18791   */\n      tag_158\n      jump\t// in\n    tag_343:\n        /* \"#utility.yul\":18742:18748   */\n      dup5\n        /* \"#utility.yul\":18735:18739   */\n      dup5\n        /* \"#utility.yul\":18729:18740   */\n      sload\n        /* \"#utility.yul\":18701:18792   */\n      tag_155\n      jump\t// in\n    tag_342:\n        /* \"#utility.yul\":18695:18699   */\n      dup3\n        /* \"#utility.yul\":18688:18793   */\n      sstore\n        /* \"#utility.yul\":18606:18799   */\n      pop\n        /* \"#utility.yul\":18530:18799   */\n      pop\n      pop\n      pop\n      jump\t// out\n        /* \"#utility.yul\":18805:18878   */\n    tag_160:\n        /* \"#utility.yul\":18850:18853   */\n      0x00\n        /* \"#utility.yul\":18805:18878   */\n      swap1\n      jump\t// out\n        /* \"#utility.yul\":18884:19073   */\n    tag_161:\n        /* \"#utility.yul\":18961:18993   */\n      tag_346\n      tag_160\n      jump\t// in\n    tag_346:\n        /* \"#utility.yul\":19002:19067   */\n      tag_347\n        /* \"#utility.yul\":19060:19066   */\n      dup2\n        /* \"#utility.yul\":19052:19058   */\n      dup5\n        /* \"#utility.yul\":19046:19050   */\n      dup5\n        /* \"#utility.yul\":19002:19067   */\n      tag_159\n      jump\t// in\n    tag_347:\n        /* \"#utility.yul\":18937:19073   */\n      pop\n        /* \"#utility.yul\":18884:19073   */\n      pop\n      pop\n      jump\t// out\n        /* \"#utility.yul\":19079:19265   */\n    tag_162:\n        /* \"#utility.yul\":19139:19259   */\n    tag_349:\n        /* \"#utility.yul\":19156:19159   */\n      dup2\n        /* \"#utility.yul\":19149:19154   */\n      dup2\n        /* \"#utility.yul\":19146:19160   */\n      lt\n        /* \"#utility.yul\":19139:19259   */\n      iszero\n      tag_351\n      jumpi\n        /* \"#utility.yul\":19210:19249   */\n      tag_352\n        /* \"#utility.yul\":19247:19248   */\n      0x00\n        /* \"#utility.yul\":19240:19245   */\n      dup3\n        /* \"#utility.yul\":19210:19249   */\n      tag_161\n      jump\t// in\n    tag_352:\n        /* \"#utility.yul\":19183:19184   */\n      0x01\n        /* \"#utility.yul\":19176:19181   */\n      dup2\n        /* \"#utility.yul\":19172:19185   */\n      add\n        /* \"#utility.yul\":19163:19185   */\n      swap1\n      pop\n        /* \"#utility.yul\":19139:19259   */\n      jump(tag_349)\n    tag_351:\n        /* \"#utility.yul\":19079:19265   */\n      pop\n      pop\n      jump\t// out\n        /* \"#utility.yul\":19271:19814   */\n    tag_163:\n        /* \"#utility.yul\":19372:19374   */\n      0x1f\n        /* \"#utility.yul\":19367:19370   */\n      dup3\n        /* \"#utility.yul\":19364:19375   */\n      gt\n        /* \"#utility.yul\":19361:19807   */\n      iszero\n      tag_354\n      jumpi\n        /* \"#utility.yul\":19406:19444   */\n      tag_355\n        /* \"#utility.yul\":19438:19443   */\n      dup2\n        /* \"#utility.yul\":19406:19444   */\n      tag_152\n      jump\t// in\n    tag_355:\n        /* \"#utility.yul\":19490:19519   */\n      tag_356\n        /* \"#utility.yul\":19508:19518   */\n      dup5\n        /* \"#utility.yul\":19490:19519   */\n      tag_153\n      jump\t// in\n    tag_356:\n        /* \"#utility.yul\":19480:19488   */\n      dup2\n        /* \"#utility.yul\":19476:19520   */\n      add\n        /* \"#utility.yul\":19673:19675   */\n      0x20\n        /* \"#utility.yul\":19661:19671   */\n      dup6\n        /* \"#utility.yul\":19658:19676   */\n      lt\n        /* \"#utility.yul\":19655:19704   */\n      iszero\n      tag_357\n      jumpi\n        /* \"#utility.yul\":19694:19702   */\n      dup2\n        /* \"#utility.yul\":19679:19702   */\n      swap1\n      pop\n        /* \"#utility.yul\":19655:19704   */\n    tag_357:\n        /* \"#utility.yul\":19717:19797   */\n      tag_358\n        /* \"#utility.yul\":19773:19795   */\n      tag_359\n        /* \"#utility.yul\":19791:19794   */\n      dup6\n        /* \"#utility.yul\":19773:19795   */\n      tag_153\n      jump\t// in\n    tag_359:\n        /* \"#utility.yul\":19763:19771   */\n      dup4\n        /* \"#utility.yul\":19759:19796   */\n      add\n        /* \"#utility.yul\":19746:19757   */\n      dup3\n        /* \"#utility.yul\":19717:19797   */\n      tag_162\n      jump\t// in\n    tag_358:\n        /* \"#utility.yul\":19376:19807   */\n      pop\n      pop\n        /* \"#utility.yul\":19361:19807   */\n    tag_354:\n        /* \"#utility.yul\":19271:19814   */\n      pop\n      pop\n      pop\n      jump\t// out\n        /* \"#utility.yul\":19820:19937   */\n    tag_164:\n        /* \"#utility.yul\":19874:19882   */\n      0x00\n        /* \"#utility.yul\":19924:19929   */\n      dup3\n        /* \"#utility.yul\":19918:19922   */\n      dup3\n        /* \"#utility.yul\":19914:19930   */\n      shr\n        /* \"#utility.yul\":19893:19930   */\n      swap1\n      pop\n        /* \"#utility.yul\":19820:19937   */\n      swap3\n      swap2\n      pop\n      pop\n      jump\t// out\n        /* \"#utility.yul\":19943:20112   */\n    tag_165:\n        /* \"#utility.yul\":19987:19993   */\n      0x00\n        /* \"#utility.yul\":20020:20071   */\n      tag_362\n        /* \"#utility.yul\":20068:20069   */\n      0x00\n        /* \"#utility.yul\":20064:20070   */\n      not\n        /* \"#utility.yul\":20056:20061   */\n      dup5\n        /* \"#utility.yul\":20053:20054   */\n      0x08\n        /* \"#utility.yul\":20049:20062   */\n      mul\n        /* \"#utility.yul\":20020:20071   */\n      tag_164\n      jump\t// in\n    tag_362:\n        /* \"#utility.yul\":20016:20072   */\n      not\n        /* \"#utility.yul\":20101:20105   */\n      dup1\n        /* \"#utility.yul\":20095:20099   */\n      dup4\n        /* \"#utility.yul\":20091:20106   */\n      and\n        /* \"#utility.yul\":20081:20106   */\n      swap2\n      pop\n        /* \"#utility.yul\":19994:20112   */\n      pop\n        /* \"#utility.yul\":19943:20112   */\n      swap3\n      swap2\n      pop\n      pop\n      jump\t// out\n        /* \"#utility.yul\":20117:20412   */\n    tag_166:\n        /* \"#utility.yul\":20193:20197   */\n      0x00\n        /* \"#utility.yul\":20339:20368   */\n      tag_364\n        /* \"#utility.yul\":20364:20367   */\n      dup4\n        /* \"#utility.yul\":20358:20362   */\n      dup4\n        /* \"#utility.yul\":20339:20368   */\n      tag_165\n      jump\t// in\n    tag_364:\n        /* \"#utility.yul\":20331:20368   */\n      swap2\n      pop\n        /* \"#utility.yul\":20401:20404   */\n      dup3\n        /* \"#utility.yul\":20398:20399   */\n      0x02\n        /* \"#utility.yul\":20394:20405   */\n      mul\n        /* \"#utility.yul\":20388:20392   */\n      dup3\n        /* \"#utility.yul\":20385:20406   */\n      or\n        /* \"#utility.yul\":20377:20406   */\n      swap1\n      pop\n        /* \"#utility.yul\":20117:20412   */\n      swap3\n      swap2\n      pop\n      pop\n      jump\t// out\n        /* \"#utility.yul\":20417:21812   */\n    tag_101:\n        /* \"#utility.yul\":20534:20571   */\n      tag_366\n        /* \"#utility.yul\":20567:20570   */\n      dup3\n        /* \"#utility.yul\":20534:20571   */\n      tag_125\n      jump\t// in\n    tag_366:\n        /* \"#utility.yul\":20636:20654   */\n      0xffffffffffffffff\n        /* \"#utility.yul\":20628:20634   */\n      dup2\n        /* \"#utility.yul\":20625:20655   */\n      gt\n        /* \"#utility.yul\":20622:20678   */\n      iszero\n      tag_367\n      jumpi\n        /* \"#utility.yul\":20658:20676   */\n      tag_368\n      tag_108\n      jump\t// in\n    tag_368:\n        /* \"#utility.yul\":20622:20678   */\n    tag_367:\n        /* \"#utility.yul\":20702:20740   */\n      tag_369\n        /* \"#utility.yul\":20734:20738   */\n      dup3\n        /* \"#utility.yul\":20728:20739   */\n      sload\n        /* \"#utility.yul\":20702:20740   */\n      tag_85\n      jump\t// in\n    tag_369:\n        /* \"#utility.yul\":20787:20854   */\n      tag_370\n        /* \"#utility.yul\":20847:20853   */\n      dup3\n        /* \"#utility.yul\":20839:20845   */\n      dup3\n        /* \"#utility.yul\":20833:20837   */\n      dup6\n        /* \"#utility.yul\":20787:20854   */\n      tag_163\n      jump\t// in\n    tag_370:\n        /* \"#utility.yul\":20881:20882   */\n      0x00\n        /* \"#utility.yul\":20905:20909   */\n      0x20\n        /* \"#utility.yul\":20892:20909   */\n      swap1\n      pop\n        /* \"#utility.yul\":20937:20939   */\n      0x1f\n        /* \"#utility.yul\":20929:20935   */\n      dup4\n        /* \"#utility.yul\":20926:20940   */\n      gt\n        /* \"#utility.yul\":20954:20955   */\n      0x01\n        /* \"#utility.yul\":20949:21567   */\n      dup2\n      eq\n      tag_372\n      jumpi\n        /* \"#utility.yul\":21611:21612   */\n      0x00\n        /* \"#utility.yul\":21628:21634   */\n      dup5\n        /* \"#utility.yul\":21625:21702   */\n      iszero\n      tag_373\n      jumpi\n        /* \"#utility.yul\":21677:21686   */\n      dup3\n        /* \"#utility.yul\":21672:21675   */\n      dup8\n        /* \"#utility.yul\":21668:21687   */\n      add\n        /* \"#utility.yul\":21662:21688   */\n      mload\n        /* \"#utility.yul\":21653:21688   */\n      swap1\n      pop\n        /* \"#utility.yul\":21625:21702   */\n    tag_373:\n        /* \"#utility.yul\":21728:21795   */\n      tag_374\n        /* \"#utility.yul\":21788:21794   */\n      dup6\n        /* \"#utility.yul\":21781:21786   */\n      dup3\n        /* \"#utility.yul\":21728:21795   */\n      tag_166\n      jump\t// in\n    tag_374:\n        /* \"#utility.yul\":21722:21726   */\n      dup7\n        /* \"#utility.yul\":21715:21796   */\n      sstore\n        /* \"#utility.yul\":21584:21806   */\n      pop\n        /* \"#utility.yul\":20919:21806   */\n      jump(tag_371)\n        /* \"#utility.yul\":20949:21567   */\n    tag_372:\n        /* \"#utility.yul\":21001:21005   */\n      0x1f\n        /* \"#utility.yul\":20997:21006   */\n      not\n        /* \"#utility.yul\":20989:20995   */\n      dup5\n        /* \"#utility.yul\":20985:21007   */\n      and\n        /* \"#utility.yul\":21035:21072   */\n      tag_375\n        /* \"#utility.yul\":21067:21071   */\n      dup7\n        /* \"#utility.yul\":21035:21072   */\n      tag_152\n      jump\t// in\n    tag_375:\n        /* \"#utility.yul\":21094:21095   */\n      0x00\n        /* \"#utility.yul\":21108:21316   */\n    tag_376:\n        /* \"#utility.yul\":21122:21129   */\n      dup3\n        /* \"#utility.yul\":21119:21120   */\n      dup2\n        /* \"#utility.yul\":21116:21130   */\n      lt\n        /* \"#utility.yul\":21108:21316   */\n      iszero\n      tag_378\n      jumpi\n        /* \"#utility.yul\":21201:21210   */\n      dup5\n        /* \"#utility.yul\":21196:21199   */\n      dup10\n        /* \"#utility.yul\":21192:21211   */\n      add\n        /* \"#utility.yul\":21186:21212   */\n      mload\n        /* \"#utility.yul\":21178:21184   */\n      dup3\n        /* \"#utility.yul\":21171:21213   */\n      sstore\n        /* \"#utility.yul\":21252:21253   */\n      0x01\n        /* \"#utility.yul\":21244:21250   */\n      dup3\n        /* \"#utility.yul\":21240:21254   */\n      add\n        /* \"#utility.yul\":21230:21254   */\n      swap2\n      pop\n        /* \"#utility.yul\":21299:21301   */\n      0x20\n        /* \"#utility.yul\":21288:21297   */\n      dup6\n        /* \"#utility.yul\":21284:21302   */\n      add\n        /* \"#utility.yul\":21271:21302   */\n      swap5\n      pop\n        /* \"#utility.yul\":21145:21149   */\n      0x20\n        /* \"#utility.yul\":21142:21143   */\n      dup2\n        /* \"#utility.yul\":21138:21150   */\n      add\n        /* \"#utility.yul\":21133:21150   */\n      swap1\n      pop\n        /* \"#utility.yul\":21108:21316   */\n      jump(tag_376)\n    tag_378:\n        /* \"#utility.yul\":21344:21350   */\n      dup7\n        /* \"#utility.yul\":21335:21342   */\n      dup4\n        /* \"#utility.yul\":21332:21351   */\n      lt\n        /* \"#utility.yul\":21329:21508   */\n      iszero\n      tag_379\n      jumpi\n        /* \"#utility.yul\":21402:21411   */\n      dup5\n        /* \"#utility.yul\":21397:21400   */\n      dup10\n        /* \"#utility.yul\":21393:21412   */\n      add\n        /* \"#utility.yul\":21387:21413   */\n      mload\n        /* \"#utility.yul\":21445:21493   */\n      tag_380\n        /* \"#utility.yul\":21487:21491   */\n      0x1f\n        /* \"#utility.yul\":21479:21485   */\n      dup10\n        /* \"#utility.yul\":21475:21492   */\n      and\n        /* \"#utility.yul\":21464:21473   */\n      dup3\n        /* \"#utility.yul\":21445:21493   */\n      tag_165\n      jump\t// in\n    tag_380:\n        /* \"#utility.yul\":21437:21443   */\n      dup4\n        /* \"#utility.yul\":21430:21494   */\n      sstore\n        /* \"#utility.yul\":21352:21508   */\n      pop\n        /* \"#utility.yul\":21329:21508   */\n    tag_379:\n        /* \"#utility.yul\":21554:21555   */\n      0x01\n        /* \"#utility.yul\":21550:21551   */\n      0x02\n        /* \"#utility.yul\":21542:21548   */\n      dup9\n        /* \"#utility.yul\":21538:21552   */\n      mul\n        /* \"#utility.yul\":21534:21556   */\n      add\n        /* \"#utility.yul\":21528:21532   */\n      dup9\n        /* \"#utility.yul\":21521:21557   */\n      sstore\n        /* \"#utility.yul\":20956:21567   */\n      pop\n      pop\n      pop\n        /* \"#utility.yul\":20919:21806   */\n    tag_371:\n      pop\n        /* \"#utility.yul\":20509:21812   */\n      pop\n      pop\n      pop\n        /* \"#utility.yul\":20417:21812   */\n      pop\n      pop\n      jump\t// out\n\n    auxdata: 0xa26469706673582212208ff2c5f1629146aa6a8cb187657cda7f9ceb95bd9e77d4a23f24318b8d8212b164736f6c63430008110033\n}\n",
				"bytecode": {
					"linkReferences": {},
					"object": "608060405234801561001057600080fd5b50336000806101000a81548173ffffffffffffffffffffffffffffffffffffffff021916908373ffffffffffffffffffffffffffffffffffffffff1602179055506113c9806100606000396000f3fe6080604052600436106100865760003560e01c806391f901571161005957806391f901571461016d578063a6aa80d514610198578063af96af54146101b4578063fb0f9363146101df578063ff8952391461021c57610086565b8063099ef2f91461008b57806343279f12146100c85780634881b603146101055780637d141e6414610142575b600080fd5b34801561009757600080fd5b506100b260048036038101906100ad91906109ac565b610245565b6040516100bf9190610a0e565b60405180910390f35b3480156100d457600080fd5b506100ef60048036038101906100ea91906109ac565b610273565b6040516100fc9190610a0e565b60405180910390f35b34801561011157600080fd5b5061012c60048036038101906101279190610a87565b6102a1565b6040516101399190610a0e565b60405180910390f35b34801561014e57600080fd5b506101576102b9565b6040516101649190610a0e565b60405180910390f35b34801561017957600080fd5b506101826102bf565b60405161018f9190610ac3565b60405180910390f35b6101b260048036038101906101ad91906109ac565b6102e5565b005b3480156101c057600080fd5b506101c961058a565b6040516101d69190610ac3565b60405180910390f35b3480156101eb57600080fd5b5061020660048036038101906102019190610a87565b6105ae565b6040516102139190610c1f565b60405180910390f35b34801561022857600080fd5b50610243600480360381019061023e9190610c6d565b6106c6565b005b6003818051602081018201805184825260208301602085012081835280955050505050506000915090505481565b6002818051602081018201805184825260208301602085012081835280955050505050506000915090505481565b60016020528060005260406000206000915090505481565b60055481565b600660009054906101000a900473ffffffffffffffffffffffffffffffffffffffff1681565b60006002826040516102f79190610d05565b90815260200160405180910390205411610346576040517f08c379a000000000000000000000000000000000000000000000000000000000815260040161033d90610d79565b60405180910390fd5b426002826040516103579190610d05565b90815260200160405180910390205410801561039057504260038260405161037f9190610d05565b908152602001604051809103902054115b6103cf576040517f08c379a00000000000000000000000000000000000000000000000000000000081526004016103c690610de5565b60405180910390fd5b6005543411610413576040517f08c379a000000000000000000000000000000000000000000000000000000000815260040161040a90610e51565b60405180910390fd5b3373ffffffffffffffffffffffffffffffffffffffff1660008054906101000a900473ffffffffffffffffffffffffffffffffffffffff1673ffffffffffffffffffffffffffffffffffffffff16036104a1576040517f08c379a000000000000000000000000000000000000000000000000000000000815260040161049890610ebd565b60405180910390fd5b60006005541461050457600554600160003373ffffffffffffffffffffffffffffffffffffffff1673ffffffffffffffffffffffffffffffffffffffff16815260200190815260200160002060008282546104fc9190610f0c565b925050819055505b3460058190555033600660006101000a81548173ffffffffffffffffffffffffffffffffffffffff021916908373ffffffffffffffffffffffffffffffffffffffff1602179055507f2a4cc6fc148520fa44b855783ccc6323b231e724015f6e98cb6b274c86acc42b33348360405161057f93929190610f79565b60405180910390a150565b60008054906101000a900473ffffffffffffffffffffffffffffffffffffffff1681565b6060600460008373ffffffffffffffffffffffffffffffffffffffff1673ffffffffffffffffffffffffffffffffffffffff168152602001908152602001600020805480602002602001604051908101604052809291908181526020016000905b828210156106bb57838290600052602060002001805461062e90610fe6565b80601f016020809104026020016040519081016040528092919081815260200182805461065a90610fe6565b80156106a75780601f1061067c576101008083540402835291602001916106a7565b820191906000526020600020905b81548152906001019060200180831161068a57829003601f168201915b50505050508152602001906001019061060f565b505050509050919050565b60008054906101000a900473ffffffffffffffffffffffffffffffffffffffff1673ffffffffffffffffffffffffffffffffffffffff163373ffffffffffffffffffffffffffffffffffffffff1614610754576040517f08c379a000000000000000000000000000000000000000000000000000000000815260040161074b90611089565b60405180910390fd5b428111610796576040517f08c379a000000000000000000000000000000000000000000000000000000000815260040161078d906110f5565b60405180910390fd5b426002836040516107a79190610d05565b908152602001604051809103902081905550806003836040516107ca9190610d05565b908152602001604051809103902081905550600460003373ffffffffffffffffffffffffffffffffffffffff1673ffffffffffffffffffffffffffffffffffffffff1681526020019081526020016000208290806001815401808255809150506001900390600052602060002001600090919091909150908161084d91906112c1565b505050565b6000604051905090565b600080fd5b600080fd5b600080fd5b600080fd5b6000601f19601f8301169050919050565b7f4e487b7100000000000000000000000000000000000000000000000000000000600052604160045260246000fd5b6108b982610870565b810181811067ffffffffffffffff821117156108d8576108d7610881565b5b80604052505050565b60006108eb610852565b90506108f782826108b0565b919050565b600067ffffffffffffffff82111561091757610916610881565b5b61092082610870565b9050602081019050919050565b82818337600083830152505050565b600061094f61094a846108fc565b6108e1565b90508281526020810184848401111561096b5761096a61086b565b5b61097684828561092d565b509392505050565b600082601f83011261099357610992610866565b5b81356109a384826020860161093c565b91505092915050565b6000602082840312156109c2576109c161085c565b5b600082013567ffffffffffffffff8111156109e0576109df610861565b5b6109ec8482850161097e565b91505092915050565b6000819050919050565b610a08816109f5565b82525050565b6000602082019050610a2360008301846109ff565b92915050565b600073ffffffffffffffffffffffffffffffffffffffff82169050919050565b6000610a5482610a29565b9050919050565b610a6481610a49565b8114610a6f57600080fd5b50565b600081359050610a8181610a5b565b92915050565b600060208284031215610a9d57610a9c61085c565b5b6000610aab84828501610a72565b91505092915050565b610abd81610a49565b82525050565b6000602082019050610ad86000830184610ab4565b92915050565b600081519050919050565b600082825260208201905092915050565b6000819050602082019050919050565b600081519050919050565b600082825260208201905092915050565b60005b83811015610b44578082015181840152602081019050610b29565b60008484015250505050565b6000610b5b82610b0a565b610b658185610b15565b9350610b75818560208601610b26565b610b7e81610870565b840191505092915050565b6000610b958383610b50565b905092915050565b6000602082019050919050565b6000610bb582610ade565b610bbf8185610ae9565b935083602082028501610bd185610afa565b8060005b85811015610c0d5784840389528151610bee8582610b89565b9450610bf983610b9d565b925060208a01995050600181019050610bd5565b50829750879550505050505092915050565b60006020820190508181036000830152610c398184610baa565b905092915050565b610c4a816109f5565b8114610c5557600080fd5b50565b600081359050610c6781610c41565b92915050565b60008060408385031215610c8457610c8361085c565b5b600083013567ffffffffffffffff811115610ca257610ca1610861565b5b610cae8582860161097e565b9250506020610cbf85828601610c58565b9150509250929050565b600081905092915050565b6000610cdf82610b0a565b610ce98185610cc9565b9350610cf9818560208601610b26565b80840191505092915050565b6000610d118284610cd4565b915081905092915050565b600082825260208201905092915050565b7f4e6f7420612076616c69642041756374696f6e00000000000000000000000000600082015250565b6000610d63601383610d1c565b9150610d6e82610d2d565b602082019050919050565b60006020820190508181036000830152610d9281610d56565b9050919050565b7f54696d65206f7574000000000000000000000000000000000000000000000000600082015250565b6000610dcf600883610d1c565b9150610dda82610d99565b602082019050919050565b60006020820190508181036000830152610dfe81610dc2565b9050919050565b7f506c65617365206269642068696768657220616d6f756e740000000000000000600082015250565b6000610e3b601883610d1c565b9150610e4682610e05565b602082019050919050565b60006020820190508181036000830152610e6a81610e2e565b9050919050565b7f636f6c6c6572206973206e6f7420746865206f776e6572000000000000000000600082015250565b6000610ea7601783610d1c565b9150610eb282610e71565b602082019050919050565b60006020820190508181036000830152610ed681610e9a565b9050919050565b7f4e487b7100000000000000000000000000000000000000000000000000000000600052601160045260246000fd5b6000610f17826109f5565b9150610f22836109f5565b9250828201905080821115610f3a57610f39610edd565b5b92915050565b6000610f4b82610b0a565b610f558185610d1c565b9350610f65818560208601610b26565b610f6e81610870565b840191505092915050565b6000606082019050610f8e6000830186610ab4565b610f9b60208301856109ff565b8181036040830152610fad8184610f40565b9050949350505050565b7f4e487b7100000000000000000000000000000000000000000000000000000000600052602260045260246000fd5b60006002820490506001821680610ffe57607f821691505b60208210810361101157611010610fb7565b5b50919050565b7f4f6e6c79207468652061756374696f6e6565722063616e20637265617465206160008201527f6e2061756374696f6e2000000000000000000000000000000000000000000000602082015250565b6000611073602a83610d1c565b915061107e82611017565b604082019050919050565b600060208201905081810360008301526110a281611066565b9050919050565b7f696e76616c69642074696d65206f757400000000000000000000000000000000600082015250565b60006110df601083610d1c565b91506110ea826110a9565b602082019050919050565b6000602082019050818103600083015261110e816110d2565b9050919050565b60008190508160005260206000209050919050565b60006020601f8301049050919050565b600082821b905092915050565b6000600883026111777fffffffffffffffffffffffffffffffffffffffffffffffffffffffffffffffff8261113a565b611181868361113a565b95508019841693508086168417925050509392505050565b6000819050919050565b60006111be6111b96111b4846109f5565b611199565b6109f5565b9050919050565b6000819050919050565b6111d8836111a3565b6111ec6111e4826111c5565b848454611147565b825550505050565b600090565b6112016111f4565b61120c8184846111cf565b505050565b5b81811015611230576112256000826111f9565b600181019050611212565b5050565b601f8211156112755761124681611115565b61124f8461112a565b8101602085101561125e578190505b61127261126a8561112a565b830182611211565b50505b505050565b600082821c905092915050565b60006112986000198460080261127a565b1980831691505092915050565b60006112b18383611287565b9150826002028217905092915050565b6112ca82610b0a565b67ffffffffffffffff8111156112e3576112e2610881565b5b6112ed8254610fe6565b6112f8828285611234565b600060209050601f83116001811461132b5760008415611319578287015190505b61132385826112a5565b86555061138b565b601f19841661133986611115565b60005b828110156113615784890151825560018201915060208501945060208101905061133c565b8683101561137e578489015161137a601f891682611287565b8355505b6001600288020188555050505b50505050505056fea26469706673582212208ff2c5f1629146aa6a8cb187657cda7f9ceb95bd9e77d4a23f24318b8d8212b164736f6c63430008110033",
					"opcodes": "PUSH1 0x80 PUSH1 0x40 MSTORE CALLVALUE DUP1 ISZERO PUSH2 0x10 JUMPI PUSH1 0x0 DUP1 REVERT JUMPDEST POP CALLER PUSH1 0x0 DUP1 PUSH2 0x100 EXP DUP2 SLOAD DUP2 PUSH20 0xFFFFFFFFFFFFFFFFFFFFFFFFFFFFFFFFFFFFFFFF MUL NOT AND SWAP1 DUP4 PUSH20 0xFFFFFFFFFFFFFFFFFFFFFFFFFFFFFFFFFFFFFFFF AND MUL OR SWAP1 SSTORE POP PUSH2 0x13C9 DUP1 PUSH2 0x60 PUSH1 0x0 CODECOPY PUSH1 0x0 RETURN INVALID PUSH1 0x80 PUSH1 0x40 MSTORE PUSH1 0x4 CALLDATASIZE LT PUSH2 0x86 JUMPI PUSH1 0x0 CALLDATALOAD PUSH1 0xE0 SHR DUP1 PUSH4 0x91F90157 GT PUSH2 0x59 JUMPI DUP1 PUSH4 0x91F90157 EQ PUSH2 0x16D JUMPI DUP1 PUSH4 0xA6AA80D5 EQ PUSH2 0x198 JUMPI DUP1 PUSH4 0xAF96AF54 EQ PUSH2 0x1B4 JUMPI DUP1 PUSH4 0xFB0F9363 EQ PUSH2 0x1DF JUMPI DUP1 PUSH4 0xFF895239 EQ PUSH2 0x21C JUMPI PUSH2 0x86 JUMP JUMPDEST DUP1 PUSH4 0x99EF2F9 EQ PUSH2 0x8B JUMPI DUP1 PUSH4 0x43279F12 EQ PUSH2 0xC8 JUMPI DUP1 PUSH4 0x4881B603 EQ PUSH2 0x105 JUMPI DUP1 PUSH4 0x7D141E64 EQ PUSH2 0x142 JUMPI JUMPDEST PUSH1 0x0 DUP1 REVERT JUMPDEST CALLVALUE DUP1 ISZERO PUSH2 0x97 JUMPI PUSH1 0x0 DUP1 REVERT JUMPDEST POP PUSH2 0xB2 PUSH1 0x4 DUP1 CALLDATASIZE SUB DUP2 ADD SWAP1 PUSH2 0xAD SWAP2 SWAP1 PUSH2 0x9AC JUMP JUMPDEST PUSH2 0x245 JUMP JUMPDEST PUSH1 0x40 MLOAD PUSH2 0xBF SWAP2 SWAP1 PUSH2 0xA0E JUMP JUMPDEST PUSH1 0x40 MLOAD DUP1 SWAP2 SUB SWAP1 RETURN JUMPDEST CALLVALUE DUP1 ISZERO PUSH2 0xD4 JUMPI PUSH1 0x0 DUP1 REVERT JUMPDEST POP PUSH2 0xEF PUSH1 0x4 DUP1 CALLDATASIZE SUB DUP2 ADD SWAP1 PUSH2 0xEA SWAP2 SWAP1 PUSH2 0x9AC JUMP JUMPDEST PUSH2 0x273 JUMP JUMPDEST PUSH1 0x40 MLOAD PUSH2 0xFC SWAP2 SWAP1 PUSH2 0xA0E JUMP JUMPDEST PUSH1 0x40 MLOAD DUP1 SWAP2 SUB SWAP1 RETURN JUMPDEST CALLVALUE DUP1 ISZERO PUSH2 0x111 JUMPI PUSH1 0x0 DUP1 REVERT JUMPDEST POP PUSH2 0x12C PUSH1 0x4 DUP1 CALLDATASIZE SUB DUP2 ADD SWAP1 PUSH2 0x127 SWAP2 SWAP1 PUSH2 0xA87 JUMP JUMPDEST PUSH2 0x2A1 JUMP JUMPDEST PUSH1 0x40 MLOAD PUSH2 0x139 SWAP2 SWAP1 PUSH2 0xA0E JUMP JUMPDEST PUSH1 0x40 MLOAD DUP1 SWAP2 SUB SWAP1 RETURN JUMPDEST CALLVALUE DUP1 ISZERO PUSH2 0x14E JUMPI PUSH1 0x0 DUP1 REVERT JUMPDEST POP PUSH2 0x157 PUSH2 0x2B9 JUMP JUMPDEST PUSH1 0x40 MLOAD PUSH2 0x164 SWAP2 SWAP1 PUSH2 0xA0E JUMP JUMPDEST PUSH1 0x40 MLOAD DUP1 SWAP2 SUB SWAP1 RETURN JUMPDEST CALLVALUE DUP1 ISZERO PUSH2 0x179 JUMPI PUSH1 0x0 DUP1 REVERT JUMPDEST POP PUSH2 0x182 PUSH2 0x2BF JUMP JUMPDEST PUSH1 0x40 MLOAD PUSH2 0x18F SWAP2 SWAP1 PUSH2 0xAC3 JUMP JUMPDEST PUSH1 0x40 MLOAD DUP1 SWAP2 SUB SWAP1 RETURN JUMPDEST PUSH2 0x1B2 PUSH1 0x4 DUP1 CALLDATASIZE SUB DUP2 ADD SWAP1 PUSH2 0x1AD SWAP2 SWAP1 PUSH2 0x9AC JUMP JUMPDEST PUSH2 0x2E5 JUMP JUMPDEST STOP JUMPDEST CALLVALUE DUP1 ISZERO PUSH2 0x1C0 JUMPI PUSH1 0x0 DUP1 REVERT JUMPDEST POP PUSH2 0x1C9 PUSH2 0x58A JUMP JUMPDEST PUSH1 0x40 MLOAD PUSH2 0x1D6 SWAP2 SWAP1 PUSH2 0xAC3 JUMP JUMPDEST PUSH1 0x40 MLOAD DUP1 SWAP2 SUB SWAP1 RETURN JUMPDEST CALLVALUE DUP1 ISZERO PUSH2 0x1EB JUMPI PUSH1 0x0 DUP1 REVERT JUMPDEST POP PUSH2 0x206 PUSH1 0x4 DUP1 CALLDATASIZE SUB DUP2 ADD SWAP1 PUSH2 0x201 SWAP2 SWAP1 PUSH2 0xA87 JUMP JUMPDEST PUSH2 0x5AE JUMP JUMPDEST PUSH1 0x40 MLOAD PUSH2 0x213 SWAP2 SWAP1 PUSH2 0xC1F JUMP JUMPDEST PUSH1 0x40 MLOAD DUP1 SWAP2 SUB SWAP1 RETURN JUMPDEST CALLVALUE DUP1 ISZERO PUSH2 0x228 JUMPI PUSH1 0x0 DUP1 REVERT JUMPDEST POP PUSH2 0x243 PUSH1 0x4 DUP1 CALLDATASIZE SUB DUP2 ADD SWAP1 PUSH2 0x23E SWAP2 SWAP1 PUSH2 0xC6D JUMP JUMPDEST PUSH2 0x6C6 JUMP JUMPDEST STOP JUMPDEST PUSH1 0x3 DUP2 DUP1 MLOAD PUSH1 0x20 DUP2 ADD DUP3 ADD DUP1 MLOAD DUP5 DUP3 MSTORE PUSH1 0x20 DUP4 ADD PUSH1 0x20 DUP6 ADD KECCAK256 DUP2 DUP4 MSTORE DUP1 SWAP6 POP POP POP POP POP POP PUSH1 0x0 SWAP2 POP SWAP1 POP SLOAD DUP2 JUMP JUMPDEST PUSH1 0x2 DUP2 DUP1 MLOAD PUSH1 0x20 DUP2 ADD DUP3 ADD DUP1 MLOAD DUP5 DUP3 MSTORE PUSH1 0x20 DUP4 ADD PUSH1 0x20 DUP6 ADD KECCAK256 DUP2 DUP4 MSTORE DUP1 SWAP6 POP POP POP POP POP POP PUSH1 0x0 SWAP2 POP SWAP1 POP SLOAD DUP2 JUMP JUMPDEST PUSH1 0x1 PUSH1 0x20 MSTORE DUP1 PUSH1 0x0 MSTORE PUSH1 0x40 PUSH1 0x0 KECCAK256 PUSH1 0x0 SWAP2 POP SWAP1 POP SLOAD DUP2 JUMP JUMPDEST PUSH1 0x5 SLOAD DUP2 JUMP JUMPDEST PUSH1 0x6 PUSH1 0x0 SWAP1 SLOAD SWAP1 PUSH2 0x100 EXP SWAP1 DIV PUSH20 0xFFFFFFFFFFFFFFFFFFFFFFFFFFFFFFFFFFFFFFFF AND DUP2 JUMP JUMPDEST PUSH1 0x0 PUSH1 0x2 DUP3 PUSH1 0x40 MLOAD PUSH2 0x2F7 SWAP2 SWAP1 PUSH2 0xD05 JUMP JUMPDEST SWAP1 DUP2 MSTORE PUSH1 0x20 ADD PUSH1 0x40 MLOAD DUP1 SWAP2 SUB SWAP1 KECCAK256 SLOAD GT PUSH2 0x346 JUMPI PUSH1 0x40 MLOAD PUSH32 0x8C379A000000000000000000000000000000000000000000000000000000000 DUP2 MSTORE PUSH1 0x4 ADD PUSH2 0x33D SWAP1 PUSH2 0xD79 JUMP JUMPDEST PUSH1 0x40 MLOAD DUP1 SWAP2 SUB SWAP1 REVERT JUMPDEST TIMESTAMP PUSH1 0x2 DUP3 PUSH1 0x40 MLOAD PUSH2 0x357 SWAP2 SWAP1 PUSH2 0xD05 JUMP JUMPDEST SWAP1 DUP2 MSTORE PUSH1 0x20 ADD PUSH1 0x40 MLOAD DUP1 SWAP2 SUB SWAP1 KECCAK256 SLOAD LT DUP1 ISZERO PUSH2 0x390 JUMPI POP TIMESTAMP PUSH1 0x3 DUP3 PUSH1 0x40 MLOAD PUSH2 0x37F SWAP2 SWAP1 PUSH2 0xD05 JUMP JUMPDEST SWAP1 DUP2 MSTORE PUSH1 0x20 ADD PUSH1 0x40 MLOAD DUP1 SWAP2 SUB SWAP1 KECCAK256 SLOAD GT JUMPDEST PUSH2 0x3CF JUMPI PUSH1 0x40 MLOAD PUSH32 0x8C379A000000000000000000000000000000000000000000000000000000000 DUP2 MSTORE PUSH1 0x4 ADD PUSH2 0x3C6 SWAP1 PUSH2 0xDE5 JUMP JUMPDEST PUSH1 0x40 MLOAD DUP1 SWAP2 SUB SWAP1 REVERT JUMPDEST PUSH1 0x5 SLOAD CALLVALUE GT PUSH2 0x413 JUMPI PUSH1 0x40 MLOAD PUSH32 0x8C379A000000000000000000000000000000000000000000000000000000000 DUP2 MSTORE PUSH1 0x4 ADD PUSH2 0x40A SWAP1 PUSH2 0xE51 JUMP JUMPDEST PUSH1 0x40 MLOAD DUP1 SWAP2 SUB SWAP1 REVERT JUMPDEST CALLER PUSH20 0xFFFFFFFFFFFFFFFFFFFFFFFFFFFFFFFFFFFFFFFF AND PUSH1 0x0 DUP1 SLOAD SWAP1 PUSH2 0x100 EXP SWAP1 DIV PUSH20 0xFFFFFFFFFFFFFFFFFFFFFFFFFFFFFFFFFFFFFFFF AND PUSH20 0xFFFFFFFFFFFFFFFFFFFFFFFFFFFFFFFFFFFFFFFF AND SUB PUSH2 0x4A1 JUMPI PUSH1 0x40 MLOAD PUSH32 0x8C379A000000000000000000000000000000000000000000000000000000000 DUP2 MSTORE PUSH1 0x4 ADD PUSH2 0x498 SWAP1 PUSH2 0xEBD JUMP JUMPDEST PUSH1 0x40 MLOAD DUP1 SWAP2 SUB SWAP1 REVERT JUMPDEST PUSH1 0x0 PUSH1 0x5 SLOAD EQ PUSH2 0x504 JUMPI PUSH1 0x5 SLOAD PUSH1 0x1 PUSH1 0x0 CALLER PUSH20 0xFFFFFFFFFFFFFFFFFFFFFFFFFFFFFFFFFFFFFFFF AND PUSH20 0xFFFFFFFFFFFFFFFFFFFFFFFFFFFFFFFFFFFFFFFF AND DUP2 MSTORE PUSH1 0x20 ADD SWAP1 DUP2 MSTORE PUSH1 0x20 ADD PUSH1 0x0 KECCAK256 PUSH1 0x0 DUP3 DUP3 SLOAD PUSH2 0x4FC SWAP2 SWAP1 PUSH2 0xF0C JUMP JUMPDEST SWAP3 POP POP DUP2 SWAP1 SSTORE POP JUMPDEST CALLVALUE PUSH1 0x5 DUP2 SWAP1 SSTORE POP CALLER PUSH1 0x6 PUSH1 0x0 PUSH2 0x100 EXP DUP2 SLOAD DUP2 PUSH20 0xFFFFFFFFFFFFFFFFFFFFFFFFFFFFFFFFFFFFFFFF MUL NOT AND SWAP1 DUP4 PUSH20 0xFFFFFFFFFFFFFFFFFFFFFFFFFFFFFFFFFFFFFFFF AND MUL OR SWAP1 SSTORE POP PUSH32 0x2A4CC6FC148520FA44B855783CCC6323B231E724015F6E98CB6B274C86ACC42B CALLER CALLVALUE DUP4 PUSH1 0x40 MLOAD PUSH2 0x57F SWAP4 SWAP3 SWAP2 SWAP1 PUSH2 0xF79 JUMP JUMPDEST PUSH1 0x40 MLOAD DUP1 SWAP2 SUB SWAP1 LOG1 POP JUMP JUMPDEST PUSH1 0x0 DUP1 SLOAD SWAP1 PUSH2 0x100 EXP SWAP1 DIV PUSH20 0xFFFFFFFFFFFFFFFFFFFFFFFFFFFFFFFFFFFFFFFF AND DUP2 JUMP JUMPDEST PUSH1 0x60 PUSH1 0x4 PUSH1 0x0 DUP4 PUSH20 0xFFFFFFFFFFFFFFFFFFFFFFFFFFFFFFFFFFFFFFFF AND PUSH20 0xFFFFFFFFFFFFFFFFFFFFFFFFFFFFFFFFFFFFFFFF AND DUP2 MSTORE PUSH1 0x20 ADD SWAP1 DUP2 MSTORE PUSH1 0x20 ADD PUSH1 0x0 KECCAK256 DUP1 SLOAD DUP1 PUSH1 0x20 MUL PUSH1 0x20 ADD PUSH1 0x40 MLOAD SWAP1 DUP2 ADD PUSH1 0x40 MSTORE DUP1 SWAP3 SWAP2 SWAP1 DUP2 DUP2 MSTORE PUSH1 0x20 ADD PUSH1 0x0 SWAP1 JUMPDEST DUP3 DUP3 LT ISZERO PUSH2 0x6BB JUMPI DUP4 DUP3 SWAP1 PUSH1 0x0 MSTORE PUSH1 0x20 PUSH1 0x0 KECCAK256 ADD DUP1 SLOAD PUSH2 0x62E SWAP1 PUSH2 0xFE6 JUMP JUMPDEST DUP1 PUSH1 0x1F ADD PUSH1 0x20 DUP1 SWAP2 DIV MUL PUSH1 0x20 ADD PUSH1 0x40 MLOAD SWAP1 DUP2 ADD PUSH1 0x40 MSTORE DUP1 SWAP3 SWAP2 SWAP1 DUP2 DUP2 MSTORE PUSH1 0x20 ADD DUP3 DUP1 SLOAD PUSH2 0x65A SWAP1 PUSH2 0xFE6 JUMP JUMPDEST DUP1 ISZERO PUSH2 0x6A7 JUMPI DUP1 PUSH1 0x1F LT PUSH2 0x67C JUMPI PUSH2 0x100 DUP1 DUP4 SLOAD DIV MUL DUP4 MSTORE SWAP2 PUSH1 0x20 ADD SWAP2 PUSH2 0x6A7 JUMP JUMPDEST DUP3 ADD SWAP2 SWAP1 PUSH1 0x0 MSTORE PUSH1 0x20 PUSH1 0x0 KECCAK256 SWAP1 JUMPDEST DUP2 SLOAD DUP2 MSTORE SWAP1 PUSH1 0x1 ADD SWAP1 PUSH1 0x20 ADD DUP1 DUP4 GT PUSH2 0x68A JUMPI DUP3 SWAP1 SUB PUSH1 0x1F AND DUP3 ADD SWAP2 JUMPDEST POP POP POP POP POP DUP2 MSTORE PUSH1 0x20 ADD SWAP1 PUSH1 0x1 ADD SWAP1 PUSH2 0x60F JUMP JUMPDEST POP POP POP POP SWAP1 POP SWAP2 SWAP1 POP JUMP JUMPDEST PUSH1 0x0 DUP1 SLOAD SWAP1 PUSH2 0x100 EXP SWAP1 DIV PUSH20 0xFFFFFFFFFFFFFFFFFFFFFFFFFFFFFFFFFFFFFFFF AND PUSH20 0xFFFFFFFFFFFFFFFFFFFFFFFFFFFFFFFFFFFFFFFF AND CALLER PUSH20 0xFFFFFFFFFFFFFFFFFFFFFFFFFFFFFFFFFFFFFFFF AND EQ PUSH2 0x754 JUMPI PUSH1 0x40 MLOAD PUSH32 0x8C379A000000000000000000000000000000000000000000000000000000000 DUP2 MSTORE PUSH1 0x4 ADD PUSH2 0x74B SWAP1 PUSH2 0x1089 JUMP JUMPDEST PUSH1 0x40 MLOAD DUP1 SWAP2 SUB SWAP1 REVERT JUMPDEST TIMESTAMP DUP2 GT PUSH2 0x796 JUMPI PUSH1 0x40 MLOAD PUSH32 0x8C379A000000000000000000000000000000000000000000000000000000000 DUP2 MSTORE PUSH1 0x4 ADD PUSH2 0x78D SWAP1 PUSH2 0x10F5 JUMP JUMPDEST PUSH1 0x40 MLOAD DUP1 SWAP2 SUB SWAP1 REVERT JUMPDEST TIMESTAMP PUSH1 0x2 DUP4 PUSH1 0x40 MLOAD PUSH2 0x7A7 SWAP2 SWAP1 PUSH2 0xD05 JUMP JUMPDEST SWAP1 DUP2 MSTORE PUSH1 0x20 ADD PUSH1 0x40 MLOAD DUP1 SWAP2 SUB SWAP1 KECCAK256 DUP2 SWAP1 SSTORE POP DUP1 PUSH1 0x3 DUP4 PUSH1 0x40 MLOAD PUSH2 0x7CA SWAP2 SWAP1 PUSH2 0xD05 JUMP JUMPDEST SWAP1 DUP2 MSTORE PUSH1 0x20 ADD PUSH1 0x40 MLOAD DUP1 SWAP2 SUB SWAP1 KECCAK256 DUP2 SWAP1 SSTORE POP PUSH1 0x4 PUSH1 0x0 CALLER PUSH20 0xFFFFFFFFFFFFFFFFFFFFFFFFFFFFFFFFFFFFFFFF AND PUSH20 0xFFFFFFFFFFFFFFFFFFFFFFFFFFFFFFFFFFFFFFFF AND DUP2 MSTORE PUSH1 0x20 ADD SWAP1 DUP2 MSTORE PUSH1 0x20 ADD PUSH1 0x0 KECCAK256 DUP3 SWAP1 DUP1 PUSH1 0x1 DUP2 SLOAD ADD DUP1 DUP3 SSTORE DUP1 SWAP2 POP POP PUSH1 0x1 SWAP1 SUB SWAP1 PUSH1 0x0 MSTORE PUSH1 0x20 PUSH1 0x0 KECCAK256 ADD PUSH1 0x0 SWAP1 SWAP2 SWAP1 SWAP2 SWAP1 SWAP2 POP SWAP1 DUP2 PUSH2 0x84D SWAP2 SWAP1 PUSH2 0x12C1 JUMP JUMPDEST POP POP POP JUMP JUMPDEST PUSH1 0x0 PUSH1 0x40 MLOAD SWAP1 POP SWAP1 JUMP JUMPDEST PUSH1 0x0 DUP1 REVERT JUMPDEST PUSH1 0x0 DUP1 REVERT JUMPDEST PUSH1 0x0 DUP1 REVERT JUMPDEST PUSH1 0x0 DUP1 REVERT JUMPDEST PUSH1 0x0 PUSH1 0x1F NOT PUSH1 0x1F DUP4 ADD AND SWAP1 POP SWAP2 SWAP1 POP JUMP JUMPDEST PUSH32 0x4E487B7100000000000000000000000000000000000000000000000000000000 PUSH1 0x0 MSTORE PUSH1 0x41 PUSH1 0x4 MSTORE PUSH1 0x24 PUSH1 0x0 REVERT JUMPDEST PUSH2 0x8B9 DUP3 PUSH2 0x870 JUMP JUMPDEST DUP2 ADD DUP2 DUP2 LT PUSH8 0xFFFFFFFFFFFFFFFF DUP3 GT OR ISZERO PUSH2 0x8D8 JUMPI PUSH2 0x8D7 PUSH2 0x881 JUMP JUMPDEST JUMPDEST DUP1 PUSH1 0x40 MSTORE POP POP POP JUMP JUMPDEST PUSH1 0x0 PUSH2 0x8EB PUSH2 0x852 JUMP JUMPDEST SWAP1 POP PUSH2 0x8F7 DUP3 DUP3 PUSH2 0x8B0 JUMP JUMPDEST SWAP2 SWAP1 POP JUMP JUMPDEST PUSH1 0x0 PUSH8 0xFFFFFFFFFFFFFFFF DUP3 GT ISZERO PUSH2 0x917 JUMPI PUSH2 0x916 PUSH2 0x881 JUMP JUMPDEST JUMPDEST PUSH2 0x920 DUP3 PUSH2 0x870 JUMP JUMPDEST SWAP1 POP PUSH1 0x20 DUP2 ADD SWAP1 POP SWAP2 SWAP1 POP JUMP JUMPDEST DUP3 DUP2 DUP4 CALLDATACOPY PUSH1 0x0 DUP4 DUP4 ADD MSTORE POP POP POP JUMP JUMPDEST PUSH1 0x0 PUSH2 0x94F PUSH2 0x94A DUP5 PUSH2 0x8FC JUMP JUMPDEST PUSH2 0x8E1 JUMP JUMPDEST SWAP1 POP DUP3 DUP2 MSTORE PUSH1 0x20 DUP2 ADD DUP5 DUP5 DUP5 ADD GT ISZERO PUSH2 0x96B JUMPI PUSH2 0x96A PUSH2 0x86B JUMP JUMPDEST JUMPDEST PUSH2 0x976 DUP5 DUP3 DUP6 PUSH2 0x92D JUMP JUMPDEST POP SWAP4 SWAP3 POP POP POP JUMP JUMPDEST PUSH1 0x0 DUP3 PUSH1 0x1F DUP4 ADD SLT PUSH2 0x993 JUMPI PUSH2 0x992 PUSH2 0x866 JUMP JUMPDEST JUMPDEST DUP2 CALLDATALOAD PUSH2 0x9A3 DUP5 DUP3 PUSH1 0x20 DUP7 ADD PUSH2 0x93C JUMP JUMPDEST SWAP2 POP POP SWAP3 SWAP2 POP POP JUMP JUMPDEST PUSH1 0x0 PUSH1 0x20 DUP3 DUP5 SUB SLT ISZERO PUSH2 0x9C2 JUMPI PUSH2 0x9C1 PUSH2 0x85C JUMP JUMPDEST JUMPDEST PUSH1 0x0 DUP3 ADD CALLDATALOAD PUSH8 0xFFFFFFFFFFFFFFFF DUP2 GT ISZERO PUSH2 0x9E0 JUMPI PUSH2 0x9DF PUSH2 0x861 JUMP JUMPDEST JUMPDEST PUSH2 0x9EC DUP5 DUP3 DUP6 ADD PUSH2 0x97E JUMP JUMPDEST SWAP2 POP POP SWAP3 SWAP2 POP POP JUMP JUMPDEST PUSH1 0x0 DUP2 SWAP1 POP SWAP2 SWAP1 POP JUMP JUMPDEST PUSH2 0xA08 DUP2 PUSH2 0x9F5 JUMP JUMPDEST DUP3 MSTORE POP POP JUMP JUMPDEST PUSH1 0x0 PUSH1 0x20 DUP3 ADD SWAP1 POP PUSH2 0xA23 PUSH1 0x0 DUP4 ADD DUP5 PUSH2 0x9FF JUMP JUMPDEST SWAP3 SWAP2 POP POP JUMP JUMPDEST PUSH1 0x0 PUSH20 0xFFFFFFFFFFFFFFFFFFFFFFFFFFFFFFFFFFFFFFFF DUP3 AND SWAP1 POP SWAP2 SWAP1 POP JUMP JUMPDEST PUSH1 0x0 PUSH2 0xA54 DUP3 PUSH2 0xA29 JUMP JUMPDEST SWAP1 POP SWAP2 SWAP1 POP JUMP JUMPDEST PUSH2 0xA64 DUP2 PUSH2 0xA49 JUMP JUMPDEST DUP2 EQ PUSH2 0xA6F JUMPI PUSH1 0x0 DUP1 REVERT JUMPDEST POP JUMP JUMPDEST PUSH1 0x0 DUP2 CALLDATALOAD SWAP1 POP PUSH2 0xA81 DUP2 PUSH2 0xA5B JUMP JUMPDEST SWAP3 SWAP2 POP POP JUMP JUMPDEST PUSH1 0x0 PUSH1 0x20 DUP3 DUP5 SUB SLT ISZERO PUSH2 0xA9D JUMPI PUSH2 0xA9C PUSH2 0x85C JUMP JUMPDEST JUMPDEST PUSH1 0x0 PUSH2 0xAAB DUP5 DUP3 DUP6 ADD PUSH2 0xA72 JUMP JUMPDEST SWAP2 POP POP SWAP3 SWAP2 POP POP JUMP JUMPDEST PUSH2 0xABD DUP2 PUSH2 0xA49 JUMP JUMPDEST DUP3 MSTORE POP POP JUMP JUMPDEST PUSH1 0x0 PUSH1 0x20 DUP3 ADD SWAP1 POP PUSH2 0xAD8 PUSH1 0x0 DUP4 ADD DUP5 PUSH2 0xAB4 JUMP JUMPDEST SWAP3 SWAP2 POP POP JUMP JUMPDEST PUSH1 0x0 DUP2 MLOAD SWAP1 POP SWAP2 SWAP1 POP JUMP JUMPDEST PUSH1 0x0 DUP3 DUP3 MSTORE PUSH1 0x20 DUP3 ADD SWAP1 POP SWAP3 SWAP2 POP POP JUMP JUMPDEST PUSH1 0x0 DUP2 SWAP1 POP PUSH1 0x20 DUP3 ADD SWAP1 POP SWAP2 SWAP1 POP JUMP JUMPDEST PUSH1 0x0 DUP2 MLOAD SWAP1 POP SWAP2 SWAP1 POP JUMP JUMPDEST PUSH1 0x0 DUP3 DUP3 MSTORE PUSH1 0x20 DUP3 ADD SWAP1 POP SWAP3 SWAP2 POP POP JUMP JUMPDEST PUSH1 0x0 JUMPDEST DUP4 DUP2 LT ISZERO PUSH2 0xB44 JUMPI DUP1 DUP3 ADD MLOAD DUP2 DUP5 ADD MSTORE PUSH1 0x20 DUP2 ADD SWAP1 POP PUSH2 0xB29 JUMP JUMPDEST PUSH1 0x0 DUP5 DUP5 ADD MSTORE POP POP POP POP JUMP JUMPDEST PUSH1 0x0 PUSH2 0xB5B DUP3 PUSH2 0xB0A JUMP JUMPDEST PUSH2 0xB65 DUP2 DUP6 PUSH2 0xB15 JUMP JUMPDEST SWAP4 POP PUSH2 0xB75 DUP2 DUP6 PUSH1 0x20 DUP7 ADD PUSH2 0xB26 JUMP JUMPDEST PUSH2 0xB7E DUP2 PUSH2 0x870 JUMP JUMPDEST DUP5 ADD SWAP2 POP POP SWAP3 SWAP2 POP POP JUMP JUMPDEST PUSH1 0x0 PUSH2 0xB95 DUP4 DUP4 PUSH2 0xB50 JUMP JUMPDEST SWAP1 POP SWAP3 SWAP2 POP POP JUMP JUMPDEST PUSH1 0x0 PUSH1 0x20 DUP3 ADD SWAP1 POP SWAP2 SWAP1 POP JUMP JUMPDEST PUSH1 0x0 PUSH2 0xBB5 DUP3 PUSH2 0xADE JUMP JUMPDEST PUSH2 0xBBF DUP2 DUP6 PUSH2 0xAE9 JUMP JUMPDEST SWAP4 POP DUP4 PUSH1 0x20 DUP3 MUL DUP6 ADD PUSH2 0xBD1 DUP6 PUSH2 0xAFA JUMP JUMPDEST DUP1 PUSH1 0x0 JUMPDEST DUP6 DUP2 LT ISZERO PUSH2 0xC0D JUMPI DUP5 DUP5 SUB DUP10 MSTORE DUP2 MLOAD PUSH2 0xBEE DUP6 DUP3 PUSH2 0xB89 JUMP JUMPDEST SWAP5 POP PUSH2 0xBF9 DUP4 PUSH2 0xB9D JUMP JUMPDEST SWAP3 POP PUSH1 0x20 DUP11 ADD SWAP10 POP POP PUSH1 0x1 DUP2 ADD SWAP1 POP PUSH2 0xBD5 JUMP JUMPDEST POP DUP3 SWAP8 POP DUP8 SWAP6 POP POP POP POP POP POP SWAP3 SWAP2 POP POP JUMP JUMPDEST PUSH1 0x0 PUSH1 0x20 DUP3 ADD SWAP1 POP DUP2 DUP2 SUB PUSH1 0x0 DUP4 ADD MSTORE PUSH2 0xC39 DUP2 DUP5 PUSH2 0xBAA JUMP JUMPDEST SWAP1 POP SWAP3 SWAP2 POP POP JUMP JUMPDEST PUSH2 0xC4A DUP2 PUSH2 0x9F5 JUMP JUMPDEST DUP2 EQ PUSH2 0xC55 JUMPI PUSH1 0x0 DUP1 REVERT JUMPDEST POP JUMP JUMPDEST PUSH1 0x0 DUP2 CALLDATALOAD SWAP1 POP PUSH2 0xC67 DUP2 PUSH2 0xC41 JUMP JUMPDEST SWAP3 SWAP2 POP POP JUMP JUMPDEST PUSH1 0x0 DUP1 PUSH1 0x40 DUP4 DUP6 SUB SLT ISZERO PUSH2 0xC84 JUMPI PUSH2 0xC83 PUSH2 0x85C JUMP JUMPDEST JUMPDEST PUSH1 0x0 DUP4 ADD CALLDATALOAD PUSH8 0xFFFFFFFFFFFFFFFF DUP2 GT ISZERO PUSH2 0xCA2 JUMPI PUSH2 0xCA1 PUSH2 0x861 JUMP JUMPDEST JUMPDEST PUSH2 0xCAE DUP6 DUP3 DUP7 ADD PUSH2 0x97E JUMP JUMPDEST SWAP3 POP POP PUSH1 0x20 PUSH2 0xCBF DUP6 DUP3 DUP7 ADD PUSH2 0xC58 JUMP JUMPDEST SWAP2 POP POP SWAP3 POP SWAP3 SWAP1 POP JUMP JUMPDEST PUSH1 0x0 DUP2 SWAP1 POP SWAP3 SWAP2 POP POP JUMP JUMPDEST PUSH1 0x0 PUSH2 0xCDF DUP3 PUSH2 0xB0A JUMP JUMPDEST PUSH2 0xCE9 DUP2 DUP6 PUSH2 0xCC9 JUMP JUMPDEST SWAP4 POP PUSH2 0xCF9 DUP2 DUP6 PUSH1 0x20 DUP7 ADD PUSH2 0xB26 JUMP JUMPDEST DUP1 DUP5 ADD SWAP2 POP POP SWAP3 SWAP2 POP POP JUMP JUMPDEST PUSH1 0x0 PUSH2 0xD11 DUP3 DUP5 PUSH2 0xCD4 JUMP JUMPDEST SWAP2 POP DUP2 SWAP1 POP SWAP3 SWAP2 POP POP JUMP JUMPDEST PUSH1 0x0 DUP3 DUP3 MSTORE PUSH1 0x20 DUP3 ADD SWAP1 POP SWAP3 SWAP2 POP POP JUMP JUMPDEST PUSH32 0x4E6F7420612076616C69642041756374696F6E00000000000000000000000000 PUSH1 0x0 DUP3 ADD MSTORE POP JUMP JUMPDEST PUSH1 0x0 PUSH2 0xD63 PUSH1 0x13 DUP4 PUSH2 0xD1C JUMP JUMPDEST SWAP2 POP PUSH2 0xD6E DUP3 PUSH2 0xD2D JUMP JUMPDEST PUSH1 0x20 DUP3 ADD SWAP1 POP SWAP2 SWAP1 POP JUMP JUMPDEST PUSH1 0x0 PUSH1 0x20 DUP3 ADD SWAP1 POP DUP2 DUP2 SUB PUSH1 0x0 DUP4 ADD MSTORE PUSH2 0xD92 DUP2 PUSH2 0xD56 JUMP JUMPDEST SWAP1 POP SWAP2 SWAP1 POP JUMP JUMPDEST PUSH32 0x54696D65206F7574000000000000000000000000000000000000000000000000 PUSH1 0x0 DUP3 ADD MSTORE POP JUMP JUMPDEST PUSH1 0x0 PUSH2 0xDCF PUSH1 0x8 DUP4 PUSH2 0xD1C JUMP JUMPDEST SWAP2 POP PUSH2 0xDDA DUP3 PUSH2 0xD99 JUMP JUMPDEST PUSH1 0x20 DUP3 ADD SWAP1 POP SWAP2 SWAP1 POP JUMP JUMPDEST PUSH1 0x0 PUSH1 0x20 DUP3 ADD SWAP1 POP DUP2 DUP2 SUB PUSH1 0x0 DUP4 ADD MSTORE PUSH2 0xDFE DUP2 PUSH2 0xDC2 JUMP JUMPDEST SWAP1 POP SWAP2 SWAP1 POP JUMP JUMPDEST PUSH32 0x506C65617365206269642068696768657220616D6F756E740000000000000000 PUSH1 0x0 DUP3 ADD MSTORE POP JUMP JUMPDEST PUSH1 0x0 PUSH2 0xE3B PUSH1 0x18 DUP4 PUSH2 0xD1C JUMP JUMPDEST SWAP2 POP PUSH2 0xE46 DUP3 PUSH2 0xE05 JUMP JUMPDEST PUSH1 0x20 DUP3 ADD SWAP1 POP SWAP2 SWAP1 POP JUMP JUMPDEST PUSH1 0x0 PUSH1 0x20 DUP3 ADD SWAP1 POP DUP2 DUP2 SUB PUSH1 0x0 DUP4 ADD MSTORE PUSH2 0xE6A DUP2 PUSH2 0xE2E JUMP JUMPDEST SWAP1 POP SWAP2 SWAP1 POP JUMP JUMPDEST PUSH32 0x636F6C6C6572206973206E6F7420746865206F776E6572000000000000000000 PUSH1 0x0 DUP3 ADD MSTORE POP JUMP JUMPDEST PUSH1 0x0 PUSH2 0xEA7 PUSH1 0x17 DUP4 PUSH2 0xD1C JUMP JUMPDEST SWAP2 POP PUSH2 0xEB2 DUP3 PUSH2 0xE71 JUMP JUMPDEST PUSH1 0x20 DUP3 ADD SWAP1 POP SWAP2 SWAP1 POP JUMP JUMPDEST PUSH1 0x0 PUSH1 0x20 DUP3 ADD SWAP1 POP DUP2 DUP2 SUB PUSH1 0x0 DUP4 ADD MSTORE PUSH2 0xED6 DUP2 PUSH2 0xE9A JUMP JUMPDEST SWAP1 POP SWAP2 SWAP1 POP JUMP JUMPDEST PUSH32 0x4E487B7100000000000000000000000000000000000000000000000000000000 PUSH1 0x0 MSTORE PUSH1 0x11 PUSH1 0x4 MSTORE PUSH1 0x24 PUSH1 0x0 REVERT JUMPDEST PUSH1 0x0 PUSH2 0xF17 DUP3 PUSH2 0x9F5 JUMP JUMPDEST SWAP2 POP PUSH2 0xF22 DUP4 PUSH2 0x9F5 JUMP JUMPDEST SWAP3 POP DUP3 DUP3 ADD SWAP1 POP DUP1 DUP3 GT ISZERO PUSH2 0xF3A JUMPI PUSH2 0xF39 PUSH2 0xEDD JUMP JUMPDEST JUMPDEST SWAP3 SWAP2 POP POP JUMP JUMPDEST PUSH1 0x0 PUSH2 0xF4B DUP3 PUSH2 0xB0A JUMP JUMPDEST PUSH2 0xF55 DUP2 DUP6 PUSH2 0xD1C JUMP JUMPDEST SWAP4 POP PUSH2 0xF65 DUP2 DUP6 PUSH1 0x20 DUP7 ADD PUSH2 0xB26 JUMP JUMPDEST PUSH2 0xF6E DUP2 PUSH2 0x870 JUMP JUMPDEST DUP5 ADD SWAP2 POP POP SWAP3 SWAP2 POP POP JUMP JUMPDEST PUSH1 0x0 PUSH1 0x60 DUP3 ADD SWAP1 POP PUSH2 0xF8E PUSH1 0x0 DUP4 ADD DUP7 PUSH2 0xAB4 JUMP JUMPDEST PUSH2 0xF9B PUSH1 0x20 DUP4 ADD DUP6 PUSH2 0x9FF JUMP JUMPDEST DUP2 DUP2 SUB PUSH1 0x40 DUP4 ADD MSTORE PUSH2 0xFAD DUP2 DUP5 PUSH2 0xF40 JUMP JUMPDEST SWAP1 POP SWAP5 SWAP4 POP POP POP POP JUMP JUMPDEST PUSH32 0x4E487B7100000000000000000000000000000000000000000000000000000000 PUSH1 0x0 MSTORE PUSH1 0x22 PUSH1 0x4 MSTORE PUSH1 0x24 PUSH1 0x0 REVERT JUMPDEST PUSH1 0x0 PUSH1 0x2 DUP3 DIV SWAP1 POP PUSH1 0x1 DUP3 AND DUP1 PUSH2 0xFFE JUMPI PUSH1 0x7F DUP3 AND SWAP2 POP JUMPDEST PUSH1 0x20 DUP3 LT DUP2 SUB PUSH2 0x1011 JUMPI PUSH2 0x1010 PUSH2 0xFB7 JUMP JUMPDEST JUMPDEST POP SWAP2 SWAP1 POP JUMP JUMPDEST PUSH32 0x4F6E6C79207468652061756374696F6E6565722063616E206372656174652061 PUSH1 0x0 DUP3 ADD MSTORE PUSH32 0x6E2061756374696F6E2000000000000000000000000000000000000000000000 PUSH1 0x20 DUP3 ADD MSTORE POP JUMP JUMPDEST PUSH1 0x0 PUSH2 0x1073 PUSH1 0x2A DUP4 PUSH2 0xD1C JUMP JUMPDEST SWAP2 POP PUSH2 0x107E DUP3 PUSH2 0x1017 JUMP JUMPDEST PUSH1 0x40 DUP3 ADD SWAP1 POP SWAP2 SWAP1 POP JUMP JUMPDEST PUSH1 0x0 PUSH1 0x20 DUP3 ADD SWAP1 POP DUP2 DUP2 SUB PUSH1 0x0 DUP4 ADD MSTORE PUSH2 0x10A2 DUP2 PUSH2 0x1066 JUMP JUMPDEST SWAP1 POP SWAP2 SWAP1 POP JUMP JUMPDEST PUSH32 0x696E76616C69642074696D65206F757400000000000000000000000000000000 PUSH1 0x0 DUP3 ADD MSTORE POP JUMP JUMPDEST PUSH1 0x0 PUSH2 0x10DF PUSH1 0x10 DUP4 PUSH2 0xD1C JUMP JUMPDEST SWAP2 POP PUSH2 0x10EA DUP3 PUSH2 0x10A9 JUMP JUMPDEST PUSH1 0x20 DUP3 ADD SWAP1 POP SWAP2 SWAP1 POP JUMP JUMPDEST PUSH1 0x0 PUSH1 0x20 DUP3 ADD SWAP1 POP DUP2 DUP2 SUB PUSH1 0x0 DUP4 ADD MSTORE PUSH2 0x110E DUP2 PUSH2 0x10D2 JUMP JUMPDEST SWAP1 POP SWAP2 SWAP1 POP JUMP JUMPDEST PUSH1 0x0 DUP2 SWAP1 POP DUP2 PUSH1 0x0 MSTORE PUSH1 0x20 PUSH1 0x0 KECCAK256 SWAP1 POP SWAP2 SWAP1 POP JUMP JUMPDEST PUSH1 0x0 PUSH1 0x20 PUSH1 0x1F DUP4 ADD DIV SWAP1 POP SWAP2 SWAP1 POP JUMP JUMPDEST PUSH1 0x0 DUP3 DUP3 SHL SWAP1 POP SWAP3 SWAP2 POP POP JUMP JUMPDEST PUSH1 0x0 PUSH1 0x8 DUP4 MUL PUSH2 0x1177 PUSH32 0xFFFFFFFFFFFFFFFFFFFFFFFFFFFFFFFFFFFFFFFFFFFFFFFFFFFFFFFFFFFFFFFF DUP3 PUSH2 0x113A JUMP JUMPDEST PUSH2 0x1181 DUP7 DUP4 PUSH2 0x113A JUMP JUMPDEST SWAP6 POP DUP1 NOT DUP5 AND SWAP4 POP DUP1 DUP7 AND DUP5 OR SWAP3 POP POP POP SWAP4 SWAP3 POP POP POP JUMP JUMPDEST PUSH1 0x0 DUP2 SWAP1 POP SWAP2 SWAP1 POP JUMP JUMPDEST PUSH1 0x0 PUSH2 0x11BE PUSH2 0x11B9 PUSH2 0x11B4 DUP5 PUSH2 0x9F5 JUMP JUMPDEST PUSH2 0x1199 JUMP JUMPDEST PUSH2 0x9F5 JUMP JUMPDEST SWAP1 POP SWAP2 SWAP1 POP JUMP JUMPDEST PUSH1 0x0 DUP2 SWAP1 POP SWAP2 SWAP1 POP JUMP JUMPDEST PUSH2 0x11D8 DUP4 PUSH2 0x11A3 JUMP JUMPDEST PUSH2 0x11EC PUSH2 0x11E4 DUP3 PUSH2 0x11C5 JUMP JUMPDEST DUP5 DUP5 SLOAD PUSH2 0x1147 JUMP JUMPDEST DUP3 SSTORE POP POP POP POP JUMP JUMPDEST PUSH1 0x0 SWAP1 JUMP JUMPDEST PUSH2 0x1201 PUSH2 0x11F4 JUMP JUMPDEST PUSH2 0x120C DUP2 DUP5 DUP5 PUSH2 0x11CF JUMP JUMPDEST POP POP POP JUMP JUMPDEST JUMPDEST DUP2 DUP2 LT ISZERO PUSH2 0x1230 JUMPI PUSH2 0x1225 PUSH1 0x0 DUP3 PUSH2 0x11F9 JUMP JUMPDEST PUSH1 0x1 DUP2 ADD SWAP1 POP PUSH2 0x1212 JUMP JUMPDEST POP POP JUMP JUMPDEST PUSH1 0x1F DUP3 GT ISZERO PUSH2 0x1275 JUMPI PUSH2 0x1246 DUP2 PUSH2 0x1115 JUMP JUMPDEST PUSH2 0x124F DUP5 PUSH2 0x112A JUMP JUMPDEST DUP2 ADD PUSH1 0x20 DUP6 LT ISZERO PUSH2 0x125E JUMPI DUP2 SWAP1 POP JUMPDEST PUSH2 0x1272 PUSH2 0x126A DUP6 PUSH2 0x112A JUMP JUMPDEST DUP4 ADD DUP3 PUSH2 0x1211 JUMP JUMPDEST POP POP JUMPDEST POP POP POP JUMP JUMPDEST PUSH1 0x0 DUP3 DUP3 SHR SWAP1 POP SWAP3 SWAP2 POP POP JUMP JUMPDEST PUSH1 0x0 PUSH2 0x1298 PUSH1 0x0 NOT DUP5 PUSH1 0x8 MUL PUSH2 0x127A JUMP JUMPDEST NOT DUP1 DUP4 AND SWAP2 POP POP SWAP3 SWAP2 POP POP JUMP JUMPDEST PUSH1 0x0 PUSH2 0x12B1 DUP4 DUP4 PUSH2 0x1287 JUMP JUMPDEST SWAP2 POP DUP3 PUSH1 0x2 MUL DUP3 OR SWAP1 POP SWAP3 SWAP2 POP POP JUMP JUMPDEST PUSH2 0x12CA DUP3 PUSH2 0xB0A JUMP JUMPDEST PUSH8 0xFFFFFFFFFFFFFFFF DUP2 GT ISZERO PUSH2 0x12E3 JUMPI PUSH2 0x12E2 PUSH2 0x881 JUMP JUMPDEST JUMPDEST PUSH2 0x12ED DUP3 SLOAD PUSH2 0xFE6 JUMP JUMPDEST PUSH2 0x12F8 DUP3 DUP3 DUP6 PUSH2 0x1234 JUMP JUMPDEST PUSH1 0x0 PUSH1 0x20 SWAP1 POP PUSH1 0x1F DUP4 GT PUSH1 0x1 DUP2 EQ PUSH2 0x132B JUMPI PUSH1 0x0 DUP5 ISZERO PUSH2 0x1319 JUMPI DUP3 DUP8 ADD MLOAD SWAP1 POP JUMPDEST PUSH2 0x1323 DUP6 DUP3 PUSH2 0x12A5 JUMP JUMPDEST DUP7 SSTORE POP PUSH2 0x138B JUMP JUMPDEST PUSH1 0x1F NOT DUP5 AND PUSH2 0x1339 DUP7 PUSH2 0x1115 JUMP JUMPDEST PUSH1 0x0 JUMPDEST DUP3 DUP2 LT ISZERO PUSH2 0x1361 JUMPI DUP5 DUP10 ADD MLOAD DUP3 SSTORE PUSH1 0x1 DUP3 ADD SWAP2 POP PUSH1 0x20 DUP6 ADD SWAP5 POP PUSH1 0x20 DUP2 ADD SWAP1 POP PUSH2 0x133C JUMP JUMPDEST DUP7 DUP4 LT ISZERO PUSH2 0x137E JUMPI DUP5 DUP10 ADD MLOAD PUSH2 0x137A PUSH1 0x1F DUP10 AND DUP3 PUSH2 0x1287 JUMP JUMPDEST DUP4 SSTORE POP JUMPDEST PUSH1 0x1 PUSH1 0x2 DUP9 MUL ADD DUP9 SSTORE POP POP POP JUMPDEST POP POP POP POP POP POP JUMP INVALID LOG2 PUSH5 0x6970667358 0x22 SLT KECCAK256 DUP16 CALLCODE 0xC5 CALL PUSH3 0x9146AA PUSH11 0x8CB187657CDA7F9CEB95BD SWAP15 PUSH24 0xD4A23F24318B8D8212B164736F6C63430008110033000000 "
				},
				"gasEstimates": {
					"creation": {
						"codeDepositCost": "1013000",
						"executionCost": "25320",
						"totalCost": "1038320"
					},
					"external": {
						"Auctioneer()": "2555",
						"auctionEndTime(string)": "infinite",
						"auctionStartTime(string)": "infinite",
						"bidAmount(address)": "2859",
						"bidding(string)": "infinite",
						"createAuction(string,uint256)": "infinite",
						"getAuctions(address)": "infinite",
						"highestBidder()": "2514",
						"hightestBid()": "2496"
					}
				},
				"methodIdentifiers": {
					"Auctioneer()": "af96af54",
					"auctionEndTime(string)": "099ef2f9",
					"auctionStartTime(string)": "43279f12",
					"bidAmount(address)": "4881b603",
					"bidding(string)": "a6aa80d5",
					"createAuction(string,uint256)": "ff895239",
					"getAuctions(address)": "fb0f9363",
					"highestBidder()": "91f90157",
					"hightestBid()": "7d141e64"
				}
			},
			"storageLayout": {
				"storage": [
					{
						"astId": 3,
						"contract": "KAMIL SIR/PROJECT03/contracts/Auction-Contract.sol:Auction",
						"label": "Auctioneer",
						"offset": 0,
						"slot": "0",
						"type": "t_address"
					},
					{
						"astId": 7,
						"contract": "KAMIL SIR/PROJECT03/contracts/Auction-Contract.sol:Auction",
						"label": "bidAmount",
						"offset": 0,
						"slot": "1",
						"type": "t_mapping(t_address,t_uint256)"
					},
					{
						"astId": 11,
						"contract": "KAMIL SIR/PROJECT03/contracts/Auction-Contract.sol:Auction",
						"label": "auctionStartTime",
						"offset": 0,
						"slot": "2",
						"type": "t_mapping(t_string_memory_ptr,t_uint256)"
					},
					{
						"astId": 15,
						"contract": "KAMIL SIR/PROJECT03/contracts/Auction-Contract.sol:Auction",
						"label": "auctionEndTime",
						"offset": 0,
						"slot": "3",
						"type": "t_mapping(t_string_memory_ptr,t_uint256)"
					},
					{
						"astId": 20,
						"contract": "KAMIL SIR/PROJECT03/contracts/Auction-Contract.sol:Auction",
						"label": "auctionOf",
						"offset": 0,
						"slot": "4",
						"type": "t_mapping(t_address,t_array(t_string_storage)dyn_storage)"
					},
					{
						"astId": 22,
						"contract": "KAMIL SIR/PROJECT03/contracts/Auction-Contract.sol:Auction",
						"label": "hightestBid",
						"offset": 0,
						"slot": "5",
						"type": "t_uint256"
					},
					{
						"astId": 24,
						"contract": "KAMIL SIR/PROJECT03/contracts/Auction-Contract.sol:Auction",
						"label": "highestBidder",
						"offset": 0,
						"slot": "6",
						"type": "t_address"
					}
				],
				"types": {
					"t_address": {
						"encoding": "inplace",
						"label": "address",
						"numberOfBytes": "20"
					},
					"t_array(t_string_storage)dyn_storage": {
						"base": "t_string_storage",
						"encoding": "dynamic_array",
						"label": "string[]",
						"numberOfBytes": "32"
					},
					"t_mapping(t_address,t_array(t_string_storage)dyn_storage)": {
						"encoding": "mapping",
						"key": "t_address",
						"label": "mapping(address => string[])",
						"numberOfBytes": "32",
						"value": "t_array(t_string_storage)dyn_storage"
					},
					"t_mapping(t_address,t_uint256)": {
						"encoding": "mapping",
						"key": "t_address",
						"label": "mapping(address => uint256)",
						"numberOfBytes": "32",
						"value": "t_uint256"
					},
					"t_mapping(t_string_memory_ptr,t_uint256)": {
						"encoding": "mapping",
						"key": "t_string_memory_ptr",
						"label": "mapping(string => uint256)",
						"numberOfBytes": "32",
						"value": "t_uint256"
					},
					"t_string_memory_ptr": {
						"encoding": "bytes",
						"label": "string",
						"numberOfBytes": "32"
					},
					"t_string_storage": {
						"encoding": "bytes",
						"label": "string",
						"numberOfBytes": "32"
					},
					"t_uint256": {
						"encoding": "inplace",
						"label": "uint256",
						"numberOfBytes": "32"
					}
				}
			},
			"userdoc": {
				"kind": "user",
				"methods": {},
				"version": 1
			}
		}
	}
}