{
	"KAMIL SIR/PROJECT03/AUCTION-CONTRACT/contract.sol": {
		"Auction": {
			"abi": [
				{
					"inputs": [],
					"stateMutability": "nonpayable",
					"type": "constructor"
				},
				{
					"inputs": [],
					"name": "bid",
					"outputs": [],
					"stateMutability": "payable",
					"type": "function"
				},
				{
					"inputs": [
						{
							"internalType": "address",
							"name": "",
							"type": "address"
						}
					],
					"name": "bids",
					"outputs": [
						{
							"internalType": "uint256",
							"name": "",
							"type": "uint256"
						}
					],
					"stateMutability": "view",
					"type": "function"
				},
				{
					"inputs": [],
					"name": "endAuction",
					"outputs": [],
					"stateMutability": "nonpayable",
					"type": "function"
				},
				{
					"inputs": [],
					"name": "highestBid",
					"outputs": [
						{
							"internalType": "uint256",
							"name": "",
							"type": "uint256"
						}
					],
					"stateMutability": "view",
					"type": "function"
				},
				{
					"inputs": [],
					"name": "highestBidder",
					"outputs": [
						{
							"internalType": "address",
							"name": "",
							"type": "address"
						}
					],
					"stateMutability": "view",
					"type": "function"
				},
				{
					"inputs": [],
					"name": "owner",
					"outputs": [
						{
							"internalType": "address",
							"name": "",
							"type": "address"
						}
					],
					"stateMutability": "view",
					"type": "function"
				},
				{
					"inputs": [],
					"name": "withdraw",
					"outputs": [],
					"stateMutability": "nonpayable",
					"type": "function"
				}
			],
			"devdoc": {
				"kind": "dev",
				"methods": {},
				"version": 1
			},
			"evm": {
				"assembly": "    /* \"KAMIL SIR/PROJECT03/AUCTION-CONTRACT/contract.sol\":61:1168  contract Auction {... */\n  mstore(0x40, 0x80)\n    /* \"KAMIL SIR/PROJECT03/AUCTION-CONTRACT/contract.sol\":227:278  constructor() {... */\n  callvalue\n  dup1\n  iszero\n  tag_1\n  jumpi\n  0x00\n  dup1\n  revert\ntag_1:\n  pop\n    /* \"KAMIL SIR/PROJECT03/AUCTION-CONTRACT/contract.sol\":260:270  msg.sender */\n  caller\n    /* \"KAMIL SIR/PROJECT03/AUCTION-CONTRACT/contract.sol\":252:257  owner */\n  0x00\n  dup1\n    /* \"KAMIL SIR/PROJECT03/AUCTION-CONTRACT/contract.sol\":252:270  owner = msg.sender */\n  0x0100\n  exp\n  dup2\n  sload\n  dup2\n  0xffffffffffffffffffffffffffffffffffffffff\n  mul\n  not\n  and\n  swap1\n  dup4\n  0xffffffffffffffffffffffffffffffffffffffff\n  and\n  mul\n  or\n  swap1\n  sstore\n  pop\n    /* \"KAMIL SIR/PROJECT03/AUCTION-CONTRACT/contract.sol\":61:1168  contract Auction {... */\n  dataSize(sub_0)\n  dup1\n  dataOffset(sub_0)\n  0x00\n  codecopy\n  0x00\n  return\nstop\n\nsub_0: assembly {\n        /* \"KAMIL SIR/PROJECT03/AUCTION-CONTRACT/contract.sol\":61:1168  contract Auction {... */\n      mstore(0x40, 0x80)\n      jumpi(tag_1, lt(calldatasize, 0x04))\n      shr(0xe0, calldataload(0x00))\n      dup1\n      0x8da5cb5b\n      gt\n      tag_9\n      jumpi\n      dup1\n      0x8da5cb5b\n      eq\n      tag_5\n      jumpi\n      dup1\n      0x91f90157\n      eq\n      tag_6\n      jumpi\n      dup1\n      0xd57bde79\n      eq\n      tag_7\n      jumpi\n      dup1\n      0xfe67a54b\n      eq\n      tag_8\n      jumpi\n      jump(tag_1)\n    tag_9:\n      dup1\n      0x1998aeef\n      eq\n      tag_2\n      jumpi\n      dup1\n      0x3ccfd60b\n      eq\n      tag_3\n      jumpi\n      dup1\n      0x62ea82db\n      eq\n      tag_4\n      jumpi\n    tag_1:\n      0x00\n      dup1\n      revert\n        /* \"KAMIL SIR/PROJECT03/AUCTION-CONTRACT/contract.sol\":286:647  function bid() public payable {... */\n    tag_2:\n      tag_10\n      tag_11\n      jump\t// in\n    tag_10:\n      stop\n        /* \"KAMIL SIR/PROJECT03/AUCTION-CONTRACT/contract.sol\":655:876  function withdraw() public {... */\n    tag_3:\n      callvalue\n      dup1\n      iszero\n      tag_12\n      jumpi\n      0x00\n      dup1\n      revert\n    tag_12:\n      pop\n      tag_13\n      tag_14\n      jump\t// in\n    tag_13:\n      stop\n        /* \"KAMIL SIR/PROJECT03/AUCTION-CONTRACT/contract.sol\":179:218  mapping(address => uint256) public bids */\n    tag_4:\n      callvalue\n      dup1\n      iszero\n      tag_15\n      jumpi\n      0x00\n      dup1\n      revert\n    tag_15:\n      pop\n      tag_16\n      0x04\n      dup1\n      calldatasize\n      sub\n      dup2\n      add\n      swap1\n      tag_17\n      swap2\n      swap1\n      tag_18\n      jump\t// in\n    tag_17:\n      tag_19\n      jump\t// in\n    tag_16:\n      mload(0x40)\n      tag_20\n      swap2\n      swap1\n      tag_21\n      jump\t// in\n    tag_20:\n      mload(0x40)\n      dup1\n      swap2\n      sub\n      swap1\n      return\n        /* \"KAMIL SIR/PROJECT03/AUCTION-CONTRACT/contract.sol\":85:105  address public owner */\n    tag_5:\n      callvalue\n      dup1\n      iszero\n      tag_22\n      jumpi\n      0x00\n      dup1\n      revert\n    tag_22:\n      pop\n      tag_23\n      tag_24\n      jump\t// in\n    tag_23:\n      mload(0x40)\n      tag_25\n      swap2\n      swap1\n      tag_26\n      jump\t// in\n    tag_25:\n      mload(0x40)\n      dup1\n      swap2\n      sub\n      swap1\n      return\n        /* \"KAMIL SIR/PROJECT03/AUCTION-CONTRACT/contract.sol\":144:172  address public highestBidder */\n    tag_6:\n      callvalue\n      dup1\n      iszero\n      tag_27\n      jumpi\n      0x00\n      dup1\n      revert\n    tag_27:\n      pop\n      tag_28\n      tag_29\n      jump\t// in\n    tag_28:\n      mload(0x40)\n      tag_30\n      swap2\n      swap1\n      tag_26\n      jump\t// in\n    tag_30:\n      mload(0x40)\n      dup1\n      swap2\n      sub\n      swap1\n      return\n        /* \"KAMIL SIR/PROJECT03/AUCTION-CONTRACT/contract.sol\":112:137  uint256 public highestBid */\n    tag_7:\n      callvalue\n      dup1\n      iszero\n      tag_31\n      jumpi\n      0x00\n      dup1\n      revert\n    tag_31:\n      pop\n      tag_32\n      tag_33\n      jump\t// in\n    tag_32:\n      mload(0x40)\n      tag_34\n      swap2\n      swap1\n      tag_21\n      jump\t// in\n    tag_34:\n      mload(0x40)\n      dup1\n      swap2\n      sub\n      swap1\n      return\n        /* \"KAMIL SIR/PROJECT03/AUCTION-CONTRACT/contract.sol\":884:1165  function endAuction() public {... */\n    tag_8:\n      callvalue\n      dup1\n      iszero\n      tag_35\n      jumpi\n      0x00\n      dup1\n      revert\n    tag_35:\n      pop\n      tag_36\n      tag_37\n      jump\t// in\n    tag_36:\n      stop\n        /* \"KAMIL SIR/PROJECT03/AUCTION-CONTRACT/contract.sol\":286:647  function bid() public payable {... */\n    tag_11:\n        /* \"KAMIL SIR/PROJECT03/AUCTION-CONTRACT/contract.sol\":347:357  highestBid */\n      sload(0x01)\n        /* \"KAMIL SIR/PROJECT03/AUCTION-CONTRACT/contract.sol\":335:344  msg.value */\n      callvalue\n        /* \"KAMIL SIR/PROJECT03/AUCTION-CONTRACT/contract.sol\":335:357  msg.value > highestBid */\n      gt\n        /* \"KAMIL SIR/PROJECT03/AUCTION-CONTRACT/contract.sol\":327:392  require(msg.value > highestBid, \"There is already a higher bid.\") */\n      tag_39\n      jumpi\n      mload(0x40)\n      0x08c379a000000000000000000000000000000000000000000000000000000000\n      dup2\n      mstore\n      0x04\n      add\n      tag_40\n      swap1\n      tag_41\n      jump\t// in\n    tag_40:\n      mload(0x40)\n      dup1\n      swap2\n      sub\n      swap1\n      revert\n    tag_39:\n        /* \"KAMIL SIR/PROJECT03/AUCTION-CONTRACT/contract.sol\":429:439  1634567890 */\n      0x616d86d2\n        /* \"KAMIL SIR/PROJECT03/AUCTION-CONTRACT/contract.sol\":411:426  block.timestamp */\n      timestamp\n        /* \"KAMIL SIR/PROJECT03/AUCTION-CONTRACT/contract.sol\":411:439  block.timestamp < 1634567890 */\n      lt\n        /* \"KAMIL SIR/PROJECT03/AUCTION-CONTRACT/contract.sol\":403:466  require(block.timestamp < 1634567890, \"The auction has ended.\") */\n      tag_42\n      jumpi\n      mload(0x40)\n      0x08c379a000000000000000000000000000000000000000000000000000000000\n      dup2\n      mstore\n      0x04\n      add\n      tag_43\n      swap1\n      tag_44\n      jump\t// in\n    tag_43:\n      mload(0x40)\n      dup1\n      swap2\n      sub\n      swap1\n      revert\n    tag_42:\n        /* \"KAMIL SIR/PROJECT03/AUCTION-CONTRACT/contract.sol\":506:507  0 */\n      0x00\n        /* \"KAMIL SIR/PROJECT03/AUCTION-CONTRACT/contract.sol\":481:508  highestBidder != address(0) */\n      0xffffffffffffffffffffffffffffffffffffffff\n      and\n        /* \"KAMIL SIR/PROJECT03/AUCTION-CONTRACT/contract.sol\":481:494  highestBidder */\n      0x02\n      0x00\n      swap1\n      sload\n      swap1\n      0x0100\n      exp\n      swap1\n      div\n      0xffffffffffffffffffffffffffffffffffffffff\n      and\n        /* \"KAMIL SIR/PROJECT03/AUCTION-CONTRACT/contract.sol\":481:508  highestBidder != address(0) */\n      0xffffffffffffffffffffffffffffffffffffffff\n      and\n      eq\n        /* \"KAMIL SIR/PROJECT03/AUCTION-CONTRACT/contract.sol\":477:570  if (highestBidder != address(0)) {... */\n      tag_45\n      jumpi\n        /* \"KAMIL SIR/PROJECT03/AUCTION-CONTRACT/contract.sol\":548:558  highestBid */\n      sload(0x01)\n        /* \"KAMIL SIR/PROJECT03/AUCTION-CONTRACT/contract.sol\":525:529  bids */\n      0x03\n        /* \"KAMIL SIR/PROJECT03/AUCTION-CONTRACT/contract.sol\":525:544  bids[highestBidder] */\n      0x00\n        /* \"KAMIL SIR/PROJECT03/AUCTION-CONTRACT/contract.sol\":530:543  highestBidder */\n      0x02\n      0x00\n      swap1\n      sload\n      swap1\n      0x0100\n      exp\n      swap1\n      div\n      0xffffffffffffffffffffffffffffffffffffffff\n      and\n        /* \"KAMIL SIR/PROJECT03/AUCTION-CONTRACT/contract.sol\":525:544  bids[highestBidder] */\n      0xffffffffffffffffffffffffffffffffffffffff\n      and\n      0xffffffffffffffffffffffffffffffffffffffff\n      and\n      dup2\n      mstore\n      0x20\n      add\n      swap1\n      dup2\n      mstore\n      0x20\n      add\n      0x00\n      keccak256\n      0x00\n        /* \"KAMIL SIR/PROJECT03/AUCTION-CONTRACT/contract.sol\":525:558  bids[highestBidder] += highestBid */\n      dup3\n      dup3\n      sload\n      tag_46\n      swap2\n      swap1\n      tag_47\n      jump\t// in\n    tag_46:\n      swap3\n      pop\n      pop\n      dup2\n      swap1\n      sstore\n      pop\n        /* \"KAMIL SIR/PROJECT03/AUCTION-CONTRACT/contract.sol\":477:570  if (highestBidder != address(0)) {... */\n    tag_45:\n        /* \"KAMIL SIR/PROJECT03/AUCTION-CONTRACT/contract.sol\":593:602  msg.value */\n      callvalue\n        /* \"KAMIL SIR/PROJECT03/AUCTION-CONTRACT/contract.sol\":580:590  highestBid */\n      0x01\n        /* \"KAMIL SIR/PROJECT03/AUCTION-CONTRACT/contract.sol\":580:602  highestBid = msg.value */\n      dup2\n      swap1\n      sstore\n      pop\n        /* \"KAMIL SIR/PROJECT03/AUCTION-CONTRACT/contract.sol\":629:639  msg.sender */\n      caller\n        /* \"KAMIL SIR/PROJECT03/AUCTION-CONTRACT/contract.sol\":613:626  highestBidder */\n      0x02\n      0x00\n        /* \"KAMIL SIR/PROJECT03/AUCTION-CONTRACT/contract.sol\":613:639  highestBidder = msg.sender */\n      0x0100\n      exp\n      dup2\n      sload\n      dup2\n      0xffffffffffffffffffffffffffffffffffffffff\n      mul\n      not\n      and\n      swap1\n      dup4\n      0xffffffffffffffffffffffffffffffffffffffff\n      and\n      mul\n      or\n      swap1\n      sstore\n      pop\n        /* \"KAMIL SIR/PROJECT03/AUCTION-CONTRACT/contract.sol\":286:647  function bid() public payable {... */\n      jump\t// out\n        /* \"KAMIL SIR/PROJECT03/AUCTION-CONTRACT/contract.sol\":655:876  function withdraw() public {... */\n    tag_14:\n        /* \"KAMIL SIR/PROJECT03/AUCTION-CONTRACT/contract.sol\":693:707  uint256 amount */\n      0x00\n        /* \"KAMIL SIR/PROJECT03/AUCTION-CONTRACT/contract.sol\":710:714  bids */\n      0x03\n        /* \"KAMIL SIR/PROJECT03/AUCTION-CONTRACT/contract.sol\":710:726  bids[msg.sender] */\n      0x00\n        /* \"KAMIL SIR/PROJECT03/AUCTION-CONTRACT/contract.sol\":715:725  msg.sender */\n      caller\n        /* \"KAMIL SIR/PROJECT03/AUCTION-CONTRACT/contract.sol\":710:726  bids[msg.sender] */\n      0xffffffffffffffffffffffffffffffffffffffff\n      and\n      0xffffffffffffffffffffffffffffffffffffffff\n      and\n      dup2\n      mstore\n      0x20\n      add\n      swap1\n      dup2\n      mstore\n      0x20\n      add\n      0x00\n      keccak256\n      sload\n        /* \"KAMIL SIR/PROJECT03/AUCTION-CONTRACT/contract.sol\":693:726  uint256 amount = bids[msg.sender] */\n      swap1\n      pop\n        /* \"KAMIL SIR/PROJECT03/AUCTION-CONTRACT/contract.sol\":754:755  0 */\n      0x00\n        /* \"KAMIL SIR/PROJECT03/AUCTION-CONTRACT/contract.sol\":745:751  amount */\n      dup2\n        /* \"KAMIL SIR/PROJECT03/AUCTION-CONTRACT/contract.sol\":745:755  amount > 0 */\n      gt\n        /* \"KAMIL SIR/PROJECT03/AUCTION-CONTRACT/contract.sol\":737:790  require(amount > 0, \"You have no funds to withdraw.\") */\n      tag_49\n      jumpi\n      mload(0x40)\n      0x08c379a000000000000000000000000000000000000000000000000000000000\n      dup2\n      mstore\n      0x04\n      add\n      tag_50\n      swap1\n      tag_51\n      jump\t// in\n    tag_50:\n      mload(0x40)\n      dup1\n      swap2\n      sub\n      swap1\n      revert\n    tag_49:\n        /* \"KAMIL SIR/PROJECT03/AUCTION-CONTRACT/contract.sol\":820:821  0 */\n      0x00\n        /* \"KAMIL SIR/PROJECT03/AUCTION-CONTRACT/contract.sol\":801:805  bids */\n      0x03\n        /* \"KAMIL SIR/PROJECT03/AUCTION-CONTRACT/contract.sol\":801:817  bids[msg.sender] */\n      0x00\n        /* \"KAMIL SIR/PROJECT03/AUCTION-CONTRACT/contract.sol\":806:816  msg.sender */\n      caller\n        /* \"KAMIL SIR/PROJECT03/AUCTION-CONTRACT/contract.sol\":801:817  bids[msg.sender] */\n      0xffffffffffffffffffffffffffffffffffffffff\n      and\n      0xffffffffffffffffffffffffffffffffffffffff\n      and\n      dup2\n      mstore\n      0x20\n      add\n      swap1\n      dup2\n      mstore\n      0x20\n      add\n      0x00\n      keccak256\n        /* \"KAMIL SIR/PROJECT03/AUCTION-CONTRACT/contract.sol\":801:821  bids[msg.sender] = 0 */\n      dup2\n      swap1\n      sstore\n      pop\n        /* \"KAMIL SIR/PROJECT03/AUCTION-CONTRACT/contract.sol\":840:850  msg.sender */\n      caller\n        /* \"KAMIL SIR/PROJECT03/AUCTION-CONTRACT/contract.sol\":832:860  payable(msg.sender).transfer */\n      0xffffffffffffffffffffffffffffffffffffffff\n      and\n        /* \"KAMIL SIR/PROJECT03/AUCTION-CONTRACT/contract.sol\":832:868  payable(msg.sender).transfer(amount) */\n      0x08fc\n        /* \"KAMIL SIR/PROJECT03/AUCTION-CONTRACT/contract.sol\":861:867  amount */\n      dup3\n        /* \"KAMIL SIR/PROJECT03/AUCTION-CONTRACT/contract.sol\":832:868  payable(msg.sender).transfer(amount) */\n      swap1\n      dup2\n      iszero\n      mul\n      swap1\n      mload(0x40)\n      0x00\n      mload(0x40)\n      dup1\n      dup4\n      sub\n      dup2\n      dup6\n      dup9\n      dup9\n      call\n      swap4\n      pop\n      pop\n      pop\n      pop\n      iszero\n      dup1\n      iszero\n      tag_53\n      jumpi\n      returndatasize\n      0x00\n      dup1\n      returndatacopy\n      revert(0x00, returndatasize)\n    tag_53:\n      pop\n        /* \"KAMIL SIR/PROJECT03/AUCTION-CONTRACT/contract.sol\":682:876  {... */\n      pop\n        /* \"KAMIL SIR/PROJECT03/AUCTION-CONTRACT/contract.sol\":655:876  function withdraw() public {... */\n      jump\t// out\n        /* \"KAMIL SIR/PROJECT03/AUCTION-CONTRACT/contract.sol\":179:218  mapping(address => uint256) public bids */\n    tag_19:\n      mstore(0x20, 0x03)\n      dup1\n      0x00\n      mstore\n      keccak256(0x00, 0x40)\n      0x00\n      swap2\n      pop\n      swap1\n      pop\n      sload\n      dup2\n      jump\t// out\n        /* \"KAMIL SIR/PROJECT03/AUCTION-CONTRACT/contract.sol\":85:105  address public owner */\n    tag_24:\n      0x00\n      dup1\n      sload\n      swap1\n      0x0100\n      exp\n      swap1\n      div\n      0xffffffffffffffffffffffffffffffffffffffff\n      and\n      dup2\n      jump\t// out\n        /* \"KAMIL SIR/PROJECT03/AUCTION-CONTRACT/contract.sol\":144:172  address public highestBidder */\n    tag_29:\n      0x02\n      0x00\n      swap1\n      sload\n      swap1\n      0x0100\n      exp\n      swap1\n      div\n      0xffffffffffffffffffffffffffffffffffffffff\n      and\n      dup2\n      jump\t// out\n        /* \"KAMIL SIR/PROJECT03/AUCTION-CONTRACT/contract.sol\":112:137  uint256 public highestBid */\n    tag_33:\n      sload(0x01)\n      dup2\n      jump\t// out\n        /* \"KAMIL SIR/PROJECT03/AUCTION-CONTRACT/contract.sol\":884:1165  function endAuction() public {... */\n    tag_37:\n        /* \"KAMIL SIR/PROJECT03/AUCTION-CONTRACT/contract.sol\":946:951  owner */\n      0x00\n      dup1\n      sload\n      swap1\n      0x0100\n      exp\n      swap1\n      div\n      0xffffffffffffffffffffffffffffffffffffffff\n      and\n        /* \"KAMIL SIR/PROJECT03/AUCTION-CONTRACT/contract.sol\":932:951  msg.sender == owner */\n      0xffffffffffffffffffffffffffffffffffffffff\n      and\n        /* \"KAMIL SIR/PROJECT03/AUCTION-CONTRACT/contract.sol\":932:942  msg.sender */\n      caller\n        /* \"KAMIL SIR/PROJECT03/AUCTION-CONTRACT/contract.sol\":932:951  msg.sender == owner */\n      0xffffffffffffffffffffffffffffffffffffffff\n      and\n      eq\n        /* \"KAMIL SIR/PROJECT03/AUCTION-CONTRACT/contract.sol\":924:991  require(msg.sender == owner, \"Only the owner can end the auction.\") */\n      tag_55\n      jumpi\n      mload(0x40)\n      0x08c379a000000000000000000000000000000000000000000000000000000000\n      dup2\n      mstore\n      0x04\n      add\n      tag_56\n      swap1\n      tag_57\n      jump\t// in\n    tag_56:\n      mload(0x40)\n      dup1\n      swap2\n      sub\n      swap1\n      revert\n    tag_55:\n        /* \"KAMIL SIR/PROJECT03/AUCTION-CONTRACT/contract.sol\":1043:1053  1634567890 */\n      0x616d86d2\n        /* \"KAMIL SIR/PROJECT03/AUCTION-CONTRACT/contract.sol\":1024:1039  block.timestamp */\n      timestamp\n        /* \"KAMIL SIR/PROJECT03/AUCTION-CONTRACT/contract.sol\":1024:1053  block.timestamp >= 1634567890 */\n      lt\n      iszero\n        /* \"KAMIL SIR/PROJECT03/AUCTION-CONTRACT/contract.sol\":1002:1111  require(... */\n      tag_58\n      jumpi\n      mload(0x40)\n      0x08c379a000000000000000000000000000000000000000000000000000000000\n      dup2\n      mstore\n      0x04\n      add\n      tag_59\n      swap1\n      tag_60\n      jump\t// in\n    tag_59:\n      mload(0x40)\n      dup1\n      swap2\n      sub\n      swap1\n      revert\n    tag_58:\n        /* \"KAMIL SIR/PROJECT03/AUCTION-CONTRACT/contract.sol\":1130:1135  owner */\n      0x00\n      dup1\n      sload\n      swap1\n      0x0100\n      exp\n      swap1\n      div\n      0xffffffffffffffffffffffffffffffffffffffff\n      and\n        /* \"KAMIL SIR/PROJECT03/AUCTION-CONTRACT/contract.sol\":1122:1145  payable(owner).transfer */\n      0xffffffffffffffffffffffffffffffffffffffff\n      and\n        /* \"KAMIL SIR/PROJECT03/AUCTION-CONTRACT/contract.sol\":1122:1157  payable(owner).transfer(highestBid) */\n      0x08fc\n        /* \"KAMIL SIR/PROJECT03/AUCTION-CONTRACT/contract.sol\":1146:1156  highestBid */\n      sload(0x01)\n        /* \"KAMIL SIR/PROJECT03/AUCTION-CONTRACT/contract.sol\":1122:1157  payable(owner).transfer(highestBid) */\n      swap1\n      dup2\n      iszero\n      mul\n      swap1\n      mload(0x40)\n      0x00\n      mload(0x40)\n      dup1\n      dup4\n      sub\n      dup2\n      dup6\n      dup9\n      dup9\n      call\n      swap4\n      pop\n      pop\n      pop\n      pop\n      iszero\n      dup1\n      iszero\n      tag_62\n      jumpi\n      returndatasize\n      0x00\n      dup1\n      returndatacopy\n      revert(0x00, returndatasize)\n    tag_62:\n      pop\n        /* \"KAMIL SIR/PROJECT03/AUCTION-CONTRACT/contract.sol\":884:1165  function endAuction() public {... */\n      jump\t// out\n        /* \"#utility.yul\":88:205   */\n    tag_64:\n        /* \"#utility.yul\":197:198   */\n      0x00\n        /* \"#utility.yul\":194:195   */\n      dup1\n        /* \"#utility.yul\":187:199   */\n      revert\n        /* \"#utility.yul\":334:460   */\n    tag_66:\n        /* \"#utility.yul\":371:378   */\n      0x00\n        /* \"#utility.yul\":411:453   */\n      0xffffffffffffffffffffffffffffffffffffffff\n        /* \"#utility.yul\":404:409   */\n      dup3\n        /* \"#utility.yul\":400:454   */\n      and\n        /* \"#utility.yul\":389:454   */\n      swap1\n      pop\n        /* \"#utility.yul\":334:460   */\n      swap2\n      swap1\n      pop\n      jump\t// out\n        /* \"#utility.yul\":466:562   */\n    tag_67:\n        /* \"#utility.yul\":503:510   */\n      0x00\n        /* \"#utility.yul\":532:556   */\n      tag_91\n        /* \"#utility.yul\":550:555   */\n      dup3\n        /* \"#utility.yul\":532:556   */\n      tag_66\n      jump\t// in\n    tag_91:\n        /* \"#utility.yul\":521:556   */\n      swap1\n      pop\n        /* \"#utility.yul\":466:562   */\n      swap2\n      swap1\n      pop\n      jump\t// out\n        /* \"#utility.yul\":568:690   */\n    tag_68:\n        /* \"#utility.yul\":641:665   */\n      tag_93\n        /* \"#utility.yul\":659:664   */\n      dup2\n        /* \"#utility.yul\":641:665   */\n      tag_67\n      jump\t// in\n    tag_93:\n        /* \"#utility.yul\":634:639   */\n      dup2\n        /* \"#utility.yul\":631:666   */\n      eq\n        /* \"#utility.yul\":621:684   */\n      tag_94\n      jumpi\n        /* \"#utility.yul\":680:681   */\n      0x00\n        /* \"#utility.yul\":677:678   */\n      dup1\n        /* \"#utility.yul\":670:682   */\n      revert\n        /* \"#utility.yul\":621:684   */\n    tag_94:\n        /* \"#utility.yul\":568:690   */\n      pop\n      jump\t// out\n        /* \"#utility.yul\":696:835   */\n    tag_69:\n        /* \"#utility.yul\":742:747   */\n      0x00\n        /* \"#utility.yul\":780:786   */\n      dup2\n        /* \"#utility.yul\":767:787   */\n      calldataload\n        /* \"#utility.yul\":758:787   */\n      swap1\n      pop\n        /* \"#utility.yul\":796:829   */\n      tag_96\n        /* \"#utility.yul\":823:828   */\n      dup2\n        /* \"#utility.yul\":796:829   */\n      tag_68\n      jump\t// in\n    tag_96:\n        /* \"#utility.yul\":696:835   */\n      swap3\n      swap2\n      pop\n      pop\n      jump\t// out\n        /* \"#utility.yul\":841:1170   */\n    tag_18:\n        /* \"#utility.yul\":900:906   */\n      0x00\n        /* \"#utility.yul\":949:951   */\n      0x20\n        /* \"#utility.yul\":937:946   */\n      dup3\n        /* \"#utility.yul\":928:935   */\n      dup5\n        /* \"#utility.yul\":924:947   */\n      sub\n        /* \"#utility.yul\":920:952   */\n      slt\n        /* \"#utility.yul\":917:1036   */\n      iszero\n      tag_98\n      jumpi\n        /* \"#utility.yul\":955:1034   */\n      tag_99\n      tag_64\n      jump\t// in\n    tag_99:\n        /* \"#utility.yul\":917:1036   */\n    tag_98:\n        /* \"#utility.yul\":1075:1076   */\n      0x00\n        /* \"#utility.yul\":1100:1153   */\n      tag_100\n        /* \"#utility.yul\":1145:1152   */\n      dup5\n        /* \"#utility.yul\":1136:1142   */\n      dup3\n        /* \"#utility.yul\":1125:1134   */\n      dup6\n        /* \"#utility.yul\":1121:1143   */\n      add\n        /* \"#utility.yul\":1100:1153   */\n      tag_69\n      jump\t// in\n    tag_100:\n        /* \"#utility.yul\":1090:1153   */\n      swap2\n      pop\n        /* \"#utility.yul\":1046:1163   */\n      pop\n        /* \"#utility.yul\":841:1170   */\n      swap3\n      swap2\n      pop\n      pop\n      jump\t// out\n        /* \"#utility.yul\":1176:1253   */\n    tag_70:\n        /* \"#utility.yul\":1213:1220   */\n      0x00\n        /* \"#utility.yul\":1242:1247   */\n      dup2\n        /* \"#utility.yul\":1231:1247   */\n      swap1\n      pop\n        /* \"#utility.yul\":1176:1253   */\n      swap2\n      swap1\n      pop\n      jump\t// out\n        /* \"#utility.yul\":1259:1377   */\n    tag_71:\n        /* \"#utility.yul\":1346:1370   */\n      tag_103\n        /* \"#utility.yul\":1364:1369   */\n      dup2\n        /* \"#utility.yul\":1346:1370   */\n      tag_70\n      jump\t// in\n    tag_103:\n        /* \"#utility.yul\":1341:1344   */\n      dup3\n        /* \"#utility.yul\":1334:1371   */\n      mstore\n        /* \"#utility.yul\":1259:1377   */\n      pop\n      pop\n      jump\t// out\n        /* \"#utility.yul\":1383:1605   */\n    tag_21:\n        /* \"#utility.yul\":1476:1480   */\n      0x00\n        /* \"#utility.yul\":1514:1516   */\n      0x20\n        /* \"#utility.yul\":1503:1512   */\n      dup3\n        /* \"#utility.yul\":1499:1517   */\n      add\n        /* \"#utility.yul\":1491:1517   */\n      swap1\n      pop\n        /* \"#utility.yul\":1527:1598   */\n      tag_105\n        /* \"#utility.yul\":1595:1596   */\n      0x00\n        /* \"#utility.yul\":1584:1593   */\n      dup4\n        /* \"#utility.yul\":1580:1597   */\n      add\n        /* \"#utility.yul\":1571:1577   */\n      dup5\n        /* \"#utility.yul\":1527:1598   */\n      tag_71\n      jump\t// in\n    tag_105:\n        /* \"#utility.yul\":1383:1605   */\n      swap3\n      swap2\n      pop\n      pop\n      jump\t// out\n        /* \"#utility.yul\":1611:1729   */\n    tag_72:\n        /* \"#utility.yul\":1698:1722   */\n      tag_107\n        /* \"#utility.yul\":1716:1721   */\n      dup2\n        /* \"#utility.yul\":1698:1722   */\n      tag_67\n      jump\t// in\n    tag_107:\n        /* \"#utility.yul\":1693:1696   */\n      dup3\n        /* \"#utility.yul\":1686:1723   */\n      mstore\n        /* \"#utility.yul\":1611:1729   */\n      pop\n      pop\n      jump\t// out\n        /* \"#utility.yul\":1735:1957   */\n    tag_26:\n        /* \"#utility.yul\":1828:1832   */\n      0x00\n        /* \"#utility.yul\":1866:1868   */\n      0x20\n        /* \"#utility.yul\":1855:1864   */\n      dup3\n        /* \"#utility.yul\":1851:1869   */\n      add\n        /* \"#utility.yul\":1843:1869   */\n      swap1\n      pop\n        /* \"#utility.yul\":1879:1950   */\n      tag_109\n        /* \"#utility.yul\":1947:1948   */\n      0x00\n        /* \"#utility.yul\":1936:1945   */\n      dup4\n        /* \"#utility.yul\":1932:1949   */\n      add\n        /* \"#utility.yul\":1923:1929   */\n      dup5\n        /* \"#utility.yul\":1879:1950   */\n      tag_72\n      jump\t// in\n    tag_109:\n        /* \"#utility.yul\":1735:1957   */\n      swap3\n      swap2\n      pop\n      pop\n      jump\t// out\n        /* \"#utility.yul\":1963:2132   */\n    tag_73:\n        /* \"#utility.yul\":2047:2058   */\n      0x00\n        /* \"#utility.yul\":2081:2087   */\n      dup3\n        /* \"#utility.yul\":2076:2079   */\n      dup3\n        /* \"#utility.yul\":2069:2088   */\n      mstore\n        /* \"#utility.yul\":2121:2125   */\n      0x20\n        /* \"#utility.yul\":2116:2119   */\n      dup3\n        /* \"#utility.yul\":2112:2126   */\n      add\n        /* \"#utility.yul\":2097:2126   */\n      swap1\n      pop\n        /* \"#utility.yul\":1963:2132   */\n      swap3\n      swap2\n      pop\n      pop\n      jump\t// out\n        /* \"#utility.yul\":2138:2318   */\n    tag_74:\n        /* \"#utility.yul\":2278:2310   */\n      0x546865726520697320616c7265616479206120686967686572206269642e0000\n        /* \"#utility.yul\":2274:2275   */\n      0x00\n        /* \"#utility.yul\":2266:2272   */\n      dup3\n        /* \"#utility.yul\":2262:2276   */\n      add\n        /* \"#utility.yul\":2255:2311   */\n      mstore\n        /* \"#utility.yul\":2138:2318   */\n      pop\n      jump\t// out\n        /* \"#utility.yul\":2324:2690   */\n    tag_75:\n        /* \"#utility.yul\":2466:2469   */\n      0x00\n        /* \"#utility.yul\":2487:2554   */\n      tag_113\n        /* \"#utility.yul\":2551:2553   */\n      0x1e\n        /* \"#utility.yul\":2546:2549   */\n      dup4\n        /* \"#utility.yul\":2487:2554   */\n      tag_73\n      jump\t// in\n    tag_113:\n        /* \"#utility.yul\":2480:2554   */\n      swap2\n      pop\n        /* \"#utility.yul\":2563:2656   */\n      tag_114\n        /* \"#utility.yul\":2652:2655   */\n      dup3\n        /* \"#utility.yul\":2563:2656   */\n      tag_74\n      jump\t// in\n    tag_114:\n        /* \"#utility.yul\":2681:2683   */\n      0x20\n        /* \"#utility.yul\":2676:2679   */\n      dup3\n        /* \"#utility.yul\":2672:2684   */\n      add\n        /* \"#utility.yul\":2665:2684   */\n      swap1\n      pop\n        /* \"#utility.yul\":2324:2690   */\n      swap2\n      swap1\n      pop\n      jump\t// out\n        /* \"#utility.yul\":2696:3115   */\n    tag_41:\n        /* \"#utility.yul\":2862:2866   */\n      0x00\n        /* \"#utility.yul\":2900:2902   */\n      0x20\n        /* \"#utility.yul\":2889:2898   */\n      dup3\n        /* \"#utility.yul\":2885:2903   */\n      add\n        /* \"#utility.yul\":2877:2903   */\n      swap1\n      pop\n        /* \"#utility.yul\":2949:2958   */\n      dup2\n        /* \"#utility.yul\":2943:2947   */\n      dup2\n        /* \"#utility.yul\":2939:2959   */\n      sub\n        /* \"#utility.yul\":2935:2936   */\n      0x00\n        /* \"#utility.yul\":2924:2933   */\n      dup4\n        /* \"#utility.yul\":2920:2937   */\n      add\n        /* \"#utility.yul\":2913:2960   */\n      mstore\n        /* \"#utility.yul\":2977:3108   */\n      tag_116\n        /* \"#utility.yul\":3103:3107   */\n      dup2\n        /* \"#utility.yul\":2977:3108   */\n      tag_75\n      jump\t// in\n    tag_116:\n        /* \"#utility.yul\":2969:3108   */\n      swap1\n      pop\n        /* \"#utility.yul\":2696:3115   */\n      swap2\n      swap1\n      pop\n      jump\t// out\n        /* \"#utility.yul\":3121:3293   */\n    tag_76:\n        /* \"#utility.yul\":3261:3285   */\n      0x5468652061756374696f6e2068617320656e6465642e00000000000000000000\n        /* \"#utility.yul\":3257:3258   */\n      0x00\n        /* \"#utility.yul\":3249:3255   */\n      dup3\n        /* \"#utility.yul\":3245:3259   */\n      add\n        /* \"#utility.yul\":3238:3286   */\n      mstore\n        /* \"#utility.yul\":3121:3293   */\n      pop\n      jump\t// out\n        /* \"#utility.yul\":3299:3665   */\n    tag_77:\n        /* \"#utility.yul\":3441:3444   */\n      0x00\n        /* \"#utility.yul\":3462:3529   */\n      tag_119\n        /* \"#utility.yul\":3526:3528   */\n      0x16\n        /* \"#utility.yul\":3521:3524   */\n      dup4\n        /* \"#utility.yul\":3462:3529   */\n      tag_73\n      jump\t// in\n    tag_119:\n        /* \"#utility.yul\":3455:3529   */\n      swap2\n      pop\n        /* \"#utility.yul\":3538:3631   */\n      tag_120\n        /* \"#utility.yul\":3627:3630   */\n      dup3\n        /* \"#utility.yul\":3538:3631   */\n      tag_76\n      jump\t// in\n    tag_120:\n        /* \"#utility.yul\":3656:3658   */\n      0x20\n        /* \"#utility.yul\":3651:3654   */\n      dup3\n        /* \"#utility.yul\":3647:3659   */\n      add\n        /* \"#utility.yul\":3640:3659   */\n      swap1\n      pop\n        /* \"#utility.yul\":3299:3665   */\n      swap2\n      swap1\n      pop\n      jump\t// out\n        /* \"#utility.yul\":3671:4090   */\n    tag_44:\n        /* \"#utility.yul\":3837:3841   */\n      0x00\n        /* \"#utility.yul\":3875:3877   */\n      0x20\n        /* \"#utility.yul\":3864:3873   */\n      dup3\n        /* \"#utility.yul\":3860:3878   */\n      add\n        /* \"#utility.yul\":3852:3878   */\n      swap1\n      pop\n        /* \"#utility.yul\":3924:3933   */\n      dup2\n        /* \"#utility.yul\":3918:3922   */\n      dup2\n        /* \"#utility.yul\":3914:3934   */\n      sub\n        /* \"#utility.yul\":3910:3911   */\n      0x00\n        /* \"#utility.yul\":3899:3908   */\n      dup4\n        /* \"#utility.yul\":3895:3912   */\n      add\n        /* \"#utility.yul\":3888:3935   */\n      mstore\n        /* \"#utility.yul\":3952:4083   */\n      tag_122\n        /* \"#utility.yul\":4078:4082   */\n      dup2\n        /* \"#utility.yul\":3952:4083   */\n      tag_77\n      jump\t// in\n    tag_122:\n        /* \"#utility.yul\":3944:4083   */\n      swap1\n      pop\n        /* \"#utility.yul\":3671:4090   */\n      swap2\n      swap1\n      pop\n      jump\t// out\n        /* \"#utility.yul\":4096:4276   */\n    tag_78:\n        /* \"#utility.yul\":4144:4221   */\n      0x4e487b7100000000000000000000000000000000000000000000000000000000\n        /* \"#utility.yul\":4141:4142   */\n      0x00\n        /* \"#utility.yul\":4134:4222   */\n      mstore\n        /* \"#utility.yul\":4241:4245   */\n      0x11\n        /* \"#utility.yul\":4238:4239   */\n      0x04\n        /* \"#utility.yul\":4231:4246   */\n      mstore\n        /* \"#utility.yul\":4265:4269   */\n      0x24\n        /* \"#utility.yul\":4262:4263   */\n      0x00\n        /* \"#utility.yul\":4255:4270   */\n      revert\n        /* \"#utility.yul\":4282:4473   */\n    tag_47:\n        /* \"#utility.yul\":4322:4325   */\n      0x00\n        /* \"#utility.yul\":4341:4361   */\n      tag_125\n        /* \"#utility.yul\":4359:4360   */\n      dup3\n        /* \"#utility.yul\":4341:4361   */\n      tag_70\n      jump\t// in\n    tag_125:\n        /* \"#utility.yul\":4336:4361   */\n      swap2\n      pop\n        /* \"#utility.yul\":4375:4395   */\n      tag_126\n        /* \"#utility.yul\":4393:4394   */\n      dup4\n        /* \"#utility.yul\":4375:4395   */\n      tag_70\n      jump\t// in\n    tag_126:\n        /* \"#utility.yul\":4370:4395   */\n      swap3\n      pop\n        /* \"#utility.yul\":4418:4419   */\n      dup3\n        /* \"#utility.yul\":4415:4416   */\n      dup3\n        /* \"#utility.yul\":4411:4420   */\n      add\n        /* \"#utility.yul\":4404:4420   */\n      swap1\n      pop\n        /* \"#utility.yul\":4439:4442   */\n      dup1\n        /* \"#utility.yul\":4436:4437   */\n      dup3\n        /* \"#utility.yul\":4433:4443   */\n      gt\n        /* \"#utility.yul\":4430:4466   */\n      iszero\n      tag_127\n      jumpi\n        /* \"#utility.yul\":4446:4464   */\n      tag_128\n      tag_78\n      jump\t// in\n    tag_128:\n        /* \"#utility.yul\":4430:4466   */\n    tag_127:\n        /* \"#utility.yul\":4282:4473   */\n      swap3\n      swap2\n      pop\n      pop\n      jump\t// out\n        /* \"#utility.yul\":4479:4659   */\n    tag_79:\n        /* \"#utility.yul\":4619:4651   */\n      0x596f752068617665206e6f2066756e647320746f2077697468647261772e0000\n        /* \"#utility.yul\":4615:4616   */\n      0x00\n        /* \"#utility.yul\":4607:4613   */\n      dup3\n        /* \"#utility.yul\":4603:4617   */\n      add\n        /* \"#utility.yul\":4596:4652   */\n      mstore\n        /* \"#utility.yul\":4479:4659   */\n      pop\n      jump\t// out\n        /* \"#utility.yul\":4665:5031   */\n    tag_80:\n        /* \"#utility.yul\":4807:4810   */\n      0x00\n        /* \"#utility.yul\":4828:4895   */\n      tag_131\n        /* \"#utility.yul\":4892:4894   */\n      0x1e\n        /* \"#utility.yul\":4887:4890   */\n      dup4\n        /* \"#utility.yul\":4828:4895   */\n      tag_73\n      jump\t// in\n    tag_131:\n        /* \"#utility.yul\":4821:4895   */\n      swap2\n      pop\n        /* \"#utility.yul\":4904:4997   */\n      tag_132\n        /* \"#utility.yul\":4993:4996   */\n      dup3\n        /* \"#utility.yul\":4904:4997   */\n      tag_79\n      jump\t// in\n    tag_132:\n        /* \"#utility.yul\":5022:5024   */\n      0x20\n        /* \"#utility.yul\":5017:5020   */\n      dup3\n        /* \"#utility.yul\":5013:5025   */\n      add\n        /* \"#utility.yul\":5006:5025   */\n      swap1\n      pop\n        /* \"#utility.yul\":4665:5031   */\n      swap2\n      swap1\n      pop\n      jump\t// out\n        /* \"#utility.yul\":5037:5456   */\n    tag_51:\n        /* \"#utility.yul\":5203:5207   */\n      0x00\n        /* \"#utility.yul\":5241:5243   */\n      0x20\n        /* \"#utility.yul\":5230:5239   */\n      dup3\n        /* \"#utility.yul\":5226:5244   */\n      add\n        /* \"#utility.yul\":5218:5244   */\n      swap1\n      pop\n        /* \"#utility.yul\":5290:5299   */\n      dup2\n        /* \"#utility.yul\":5284:5288   */\n      dup2\n        /* \"#utility.yul\":5280:5300   */\n      sub\n        /* \"#utility.yul\":5276:5277   */\n      0x00\n        /* \"#utility.yul\":5265:5274   */\n      dup4\n        /* \"#utility.yul\":5261:5278   */\n      add\n        /* \"#utility.yul\":5254:5301   */\n      mstore\n        /* \"#utility.yul\":5318:5449   */\n      tag_134\n        /* \"#utility.yul\":5444:5448   */\n      dup2\n        /* \"#utility.yul\":5318:5449   */\n      tag_80\n      jump\t// in\n    tag_134:\n        /* \"#utility.yul\":5310:5449   */\n      swap1\n      pop\n        /* \"#utility.yul\":5037:5456   */\n      swap2\n      swap1\n      pop\n      jump\t// out\n        /* \"#utility.yul\":5462:5684   */\n    tag_81:\n        /* \"#utility.yul\":5602:5636   */\n      0x4f6e6c7920746865206f776e65722063616e20656e6420746865206175637469\n        /* \"#utility.yul\":5598:5599   */\n      0x00\n        /* \"#utility.yul\":5590:5596   */\n      dup3\n        /* \"#utility.yul\":5586:5600   */\n      add\n        /* \"#utility.yul\":5579:5637   */\n      mstore\n        /* \"#utility.yul\":5671:5676   */\n      0x6f6e2e0000000000000000000000000000000000000000000000000000000000\n        /* \"#utility.yul\":5666:5668   */\n      0x20\n        /* \"#utility.yul\":5658:5664   */\n      dup3\n        /* \"#utility.yul\":5654:5669   */\n      add\n        /* \"#utility.yul\":5647:5677   */\n      mstore\n        /* \"#utility.yul\":5462:5684   */\n      pop\n      jump\t// out\n        /* \"#utility.yul\":5690:6056   */\n    tag_82:\n        /* \"#utility.yul\":5832:5835   */\n      0x00\n        /* \"#utility.yul\":5853:5920   */\n      tag_137\n        /* \"#utility.yul\":5917:5919   */\n      0x23\n        /* \"#utility.yul\":5912:5915   */\n      dup4\n        /* \"#utility.yul\":5853:5920   */\n      tag_73\n      jump\t// in\n    tag_137:\n        /* \"#utility.yul\":5846:5920   */\n      swap2\n      pop\n        /* \"#utility.yul\":5929:6022   */\n      tag_138\n        /* \"#utility.yul\":6018:6021   */\n      dup3\n        /* \"#utility.yul\":5929:6022   */\n      tag_81\n      jump\t// in\n    tag_138:\n        /* \"#utility.yul\":6047:6049   */\n      0x40\n        /* \"#utility.yul\":6042:6045   */\n      dup3\n        /* \"#utility.yul\":6038:6050   */\n      add\n        /* \"#utility.yul\":6031:6050   */\n      swap1\n      pop\n        /* \"#utility.yul\":5690:6056   */\n      swap2\n      swap1\n      pop\n      jump\t// out\n        /* \"#utility.yul\":6062:6481   */\n    tag_57:\n        /* \"#utility.yul\":6228:6232   */\n      0x00\n        /* \"#utility.yul\":6266:6268   */\n      0x20\n        /* \"#utility.yul\":6255:6264   */\n      dup3\n        /* \"#utility.yul\":6251:6269   */\n      add\n        /* \"#utility.yul\":6243:6269   */\n      swap1\n      pop\n        /* \"#utility.yul\":6315:6324   */\n      dup2\n        /* \"#utility.yul\":6309:6313   */\n      dup2\n        /* \"#utility.yul\":6305:6325   */\n      sub\n        /* \"#utility.yul\":6301:6302   */\n      0x00\n        /* \"#utility.yul\":6290:6299   */\n      dup4\n        /* \"#utility.yul\":6286:6303   */\n      add\n        /* \"#utility.yul\":6279:6326   */\n      mstore\n        /* \"#utility.yul\":6343:6474   */\n      tag_140\n        /* \"#utility.yul\":6469:6473   */\n      dup2\n        /* \"#utility.yul\":6343:6474   */\n      tag_82\n      jump\t// in\n    tag_140:\n        /* \"#utility.yul\":6335:6474   */\n      swap1\n      pop\n        /* \"#utility.yul\":6062:6481   */\n      swap2\n      swap1\n      pop\n      jump\t// out\n        /* \"#utility.yul\":6487:6667   */\n    tag_83:\n        /* \"#utility.yul\":6627:6659   */\n      0x5468652061756374696f6e20686173206e6f742079657420656e6465642e0000\n        /* \"#utility.yul\":6623:6624   */\n      0x00\n        /* \"#utility.yul\":6615:6621   */\n      dup3\n        /* \"#utility.yul\":6611:6625   */\n      add\n        /* \"#utility.yul\":6604:6660   */\n      mstore\n        /* \"#utility.yul\":6487:6667   */\n      pop\n      jump\t// out\n        /* \"#utility.yul\":6673:7039   */\n    tag_84:\n        /* \"#utility.yul\":6815:6818   */\n      0x00\n        /* \"#utility.yul\":6836:6903   */\n      tag_143\n        /* \"#utility.yul\":6900:6902   */\n      0x1e\n        /* \"#utility.yul\":6895:6898   */\n      dup4\n        /* \"#utility.yul\":6836:6903   */\n      tag_73\n      jump\t// in\n    tag_143:\n        /* \"#utility.yul\":6829:6903   */\n      swap2\n      pop\n        /* \"#utility.yul\":6912:7005   */\n      tag_144\n        /* \"#utility.yul\":7001:7004   */\n      dup3\n        /* \"#utility.yul\":6912:7005   */\n      tag_83\n      jump\t// in\n    tag_144:\n        /* \"#utility.yul\":7030:7032   */\n      0x20\n        /* \"#utility.yul\":7025:7028   */\n      dup3\n        /* \"#utility.yul\":7021:7033   */\n      add\n        /* \"#utility.yul\":7014:7033   */\n      swap1\n      pop\n        /* \"#utility.yul\":6673:7039   */\n      swap2\n      swap1\n      pop\n      jump\t// out\n        /* \"#utility.yul\":7045:7464   */\n    tag_60:\n        /* \"#utility.yul\":7211:7215   */\n      0x00\n        /* \"#utility.yul\":7249:7251   */\n      0x20\n        /* \"#utility.yul\":7238:7247   */\n      dup3\n        /* \"#utility.yul\":7234:7252   */\n      add\n        /* \"#utility.yul\":7226:7252   */\n      swap1\n      pop\n        /* \"#utility.yul\":7298:7307   */\n      dup2\n        /* \"#utility.yul\":7292:7296   */\n      dup2\n        /* \"#utility.yul\":7288:7308   */\n      sub\n        /* \"#utility.yul\":7284:7285   */\n      0x00\n        /* \"#utility.yul\":7273:7282   */\n      dup4\n        /* \"#utility.yul\":7269:7286   */\n      add\n        /* \"#utility.yul\":7262:7309   */\n      mstore\n        /* \"#utility.yul\":7326:7457   */\n      tag_146\n        /* \"#utility.yul\":7452:7456   */\n      dup2\n        /* \"#utility.yul\":7326:7457   */\n      tag_84\n      jump\t// in\n    tag_146:\n        /* \"#utility.yul\":7318:7457   */\n      swap1\n      pop\n        /* \"#utility.yul\":7045:7464   */\n      swap2\n      swap1\n      pop\n      jump\t// out\n\n    auxdata: 0xa2646970667358221220b29b0bf4805b418863e50c8a1f89f20f0e6985431b81acf781bb746a7ef7576164736f6c63430008110033\n}\n",
				"bytecode": {
					"linkReferences": {},
					"object": "608060405234801561001057600080fd5b50336000806101000a81548173ffffffffffffffffffffffffffffffffffffffff021916908373ffffffffffffffffffffffffffffffffffffffff1602179055506109a8806100606000396000f3fe6080604052600436106100705760003560e01c80638da5cb5b1161004e5780638da5cb5b146100d357806391f90157146100fe578063d57bde7914610129578063fe67a54b1461015457610070565b80631998aeef146100755780633ccfd60b1461007f57806362ea82db14610096575b600080fd5b61007d61016b565b005b34801561008b57600080fd5b50610094610310565b005b3480156100a257600080fd5b506100bd60048036038101906100b89190610631565b610426565b6040516100ca9190610677565b60405180910390f35b3480156100df57600080fd5b506100e861043e565b6040516100f591906106a1565b60405180910390f35b34801561010a57600080fd5b50610113610462565b60405161012091906106a1565b60405180910390f35b34801561013557600080fd5b5061013e610488565b60405161014b9190610677565b60405180910390f35b34801561016057600080fd5b5061016961048e565b005b60015434116101af576040517f08c379a00000000000000000000000000000000000000000000000000000000081526004016101a690610719565b60405180910390fd5b63616d86d242106101f5576040517f08c379a00000000000000000000000000000000000000000000000000000000081526004016101ec90610785565b60405180910390fd5b600073ffffffffffffffffffffffffffffffffffffffff16600260009054906101000a900473ffffffffffffffffffffffffffffffffffffffff1673ffffffffffffffffffffffffffffffffffffffff16146102c65760015460036000600260009054906101000a900473ffffffffffffffffffffffffffffffffffffffff1673ffffffffffffffffffffffffffffffffffffffff1673ffffffffffffffffffffffffffffffffffffffff16815260200190815260200160002060008282546102be91906107d4565b925050819055505b3460018190555033600260006101000a81548173ffffffffffffffffffffffffffffffffffffffff021916908373ffffffffffffffffffffffffffffffffffffffff160217905550565b6000600360003373ffffffffffffffffffffffffffffffffffffffff1673ffffffffffffffffffffffffffffffffffffffff16815260200190815260200160002054905060008111610397576040517f08c379a000000000000000000000000000000000000000000000000000000000815260040161038e90610854565b60405180910390fd5b6000600360003373ffffffffffffffffffffffffffffffffffffffff1673ffffffffffffffffffffffffffffffffffffffff168152602001908152602001600020819055503373ffffffffffffffffffffffffffffffffffffffff166108fc829081150290604051600060405180830381858888f19350505050158015610422573d6000803e3d6000fd5b5050565b60036020528060005260406000206000915090505481565b60008054906101000a900473ffffffffffffffffffffffffffffffffffffffff1681565b600260009054906101000a900473ffffffffffffffffffffffffffffffffffffffff1681565b60015481565b60008054906101000a900473ffffffffffffffffffffffffffffffffffffffff1673ffffffffffffffffffffffffffffffffffffffff163373ffffffffffffffffffffffffffffffffffffffff161461051c576040517f08c379a0000000000000000000000000000000000000000000000000000000008152600401610513906108e6565b60405180910390fd5b63616d86d2421015610563576040517f08c379a000000000000000000000000000000000000000000000000000000000815260040161055a90610952565b60405180910390fd5b60008054906101000a900473ffffffffffffffffffffffffffffffffffffffff1673ffffffffffffffffffffffffffffffffffffffff166108fc6001549081150290604051600060405180830381858888f193505050501580156105cb573d6000803e3d6000fd5b50565b600080fd5b600073ffffffffffffffffffffffffffffffffffffffff82169050919050565b60006105fe826105d3565b9050919050565b61060e816105f3565b811461061957600080fd5b50565b60008135905061062b81610605565b92915050565b600060208284031215610647576106466105ce565b5b60006106558482850161061c565b91505092915050565b6000819050919050565b6106718161065e565b82525050565b600060208201905061068c6000830184610668565b92915050565b61069b816105f3565b82525050565b60006020820190506106b66000830184610692565b92915050565b600082825260208201905092915050565b7f546865726520697320616c7265616479206120686967686572206269642e0000600082015250565b6000610703601e836106bc565b915061070e826106cd565b602082019050919050565b60006020820190508181036000830152610732816106f6565b9050919050565b7f5468652061756374696f6e2068617320656e6465642e00000000000000000000600082015250565b600061076f6016836106bc565b915061077a82610739565b602082019050919050565b6000602082019050818103600083015261079e81610762565b9050919050565b7f4e487b7100000000000000000000000000000000000000000000000000000000600052601160045260246000fd5b60006107df8261065e565b91506107ea8361065e565b9250828201905080821115610802576108016107a5565b5b92915050565b7f596f752068617665206e6f2066756e647320746f2077697468647261772e0000600082015250565b600061083e601e836106bc565b915061084982610808565b602082019050919050565b6000602082019050818103600083015261086d81610831565b9050919050565b7f4f6e6c7920746865206f776e65722063616e20656e642074686520617563746960008201527f6f6e2e0000000000000000000000000000000000000000000000000000000000602082015250565b60006108d06023836106bc565b91506108db82610874565b604082019050919050565b600060208201905081810360008301526108ff816108c3565b9050919050565b7f5468652061756374696f6e20686173206e6f742079657420656e6465642e0000600082015250565b600061093c601e836106bc565b915061094782610906565b602082019050919050565b6000602082019050818103600083015261096b8161092f565b905091905056fea2646970667358221220b29b0bf4805b418863e50c8a1f89f20f0e6985431b81acf781bb746a7ef7576164736f6c63430008110033",
					"opcodes": "PUSH1 0x80 PUSH1 0x40 MSTORE CALLVALUE DUP1 ISZERO PUSH2 0x10 JUMPI PUSH1 0x0 DUP1 REVERT JUMPDEST POP CALLER PUSH1 0x0 DUP1 PUSH2 0x100 EXP DUP2 SLOAD DUP2 PUSH20 0xFFFFFFFFFFFFFFFFFFFFFFFFFFFFFFFFFFFFFFFF MUL NOT AND SWAP1 DUP4 PUSH20 0xFFFFFFFFFFFFFFFFFFFFFFFFFFFFFFFFFFFFFFFF AND MUL OR SWAP1 SSTORE POP PUSH2 0x9A8 DUP1 PUSH2 0x60 PUSH1 0x0 CODECOPY PUSH1 0x0 RETURN INVALID PUSH1 0x80 PUSH1 0x40 MSTORE PUSH1 0x4 CALLDATASIZE LT PUSH2 0x70 JUMPI PUSH1 0x0 CALLDATALOAD PUSH1 0xE0 SHR DUP1 PUSH4 0x8DA5CB5B GT PUSH2 0x4E JUMPI DUP1 PUSH4 0x8DA5CB5B EQ PUSH2 0xD3 JUMPI DUP1 PUSH4 0x91F90157 EQ PUSH2 0xFE JUMPI DUP1 PUSH4 0xD57BDE79 EQ PUSH2 0x129 JUMPI DUP1 PUSH4 0xFE67A54B EQ PUSH2 0x154 JUMPI PUSH2 0x70 JUMP JUMPDEST DUP1 PUSH4 0x1998AEEF EQ PUSH2 0x75 JUMPI DUP1 PUSH4 0x3CCFD60B EQ PUSH2 0x7F JUMPI DUP1 PUSH4 0x62EA82DB EQ PUSH2 0x96 JUMPI JUMPDEST PUSH1 0x0 DUP1 REVERT JUMPDEST PUSH2 0x7D PUSH2 0x16B JUMP JUMPDEST STOP JUMPDEST CALLVALUE DUP1 ISZERO PUSH2 0x8B JUMPI PUSH1 0x0 DUP1 REVERT JUMPDEST POP PUSH2 0x94 PUSH2 0x310 JUMP JUMPDEST STOP JUMPDEST CALLVALUE DUP1 ISZERO PUSH2 0xA2 JUMPI PUSH1 0x0 DUP1 REVERT JUMPDEST POP PUSH2 0xBD PUSH1 0x4 DUP1 CALLDATASIZE SUB DUP2 ADD SWAP1 PUSH2 0xB8 SWAP2 SWAP1 PUSH2 0x631 JUMP JUMPDEST PUSH2 0x426 JUMP JUMPDEST PUSH1 0x40 MLOAD PUSH2 0xCA SWAP2 SWAP1 PUSH2 0x677 JUMP JUMPDEST PUSH1 0x40 MLOAD DUP1 SWAP2 SUB SWAP1 RETURN JUMPDEST CALLVALUE DUP1 ISZERO PUSH2 0xDF JUMPI PUSH1 0x0 DUP1 REVERT JUMPDEST POP PUSH2 0xE8 PUSH2 0x43E JUMP JUMPDEST PUSH1 0x40 MLOAD PUSH2 0xF5 SWAP2 SWAP1 PUSH2 0x6A1 JUMP JUMPDEST PUSH1 0x40 MLOAD DUP1 SWAP2 SUB SWAP1 RETURN JUMPDEST CALLVALUE DUP1 ISZERO PUSH2 0x10A JUMPI PUSH1 0x0 DUP1 REVERT JUMPDEST POP PUSH2 0x113 PUSH2 0x462 JUMP JUMPDEST PUSH1 0x40 MLOAD PUSH2 0x120 SWAP2 SWAP1 PUSH2 0x6A1 JUMP JUMPDEST PUSH1 0x40 MLOAD DUP1 SWAP2 SUB SWAP1 RETURN JUMPDEST CALLVALUE DUP1 ISZERO PUSH2 0x135 JUMPI PUSH1 0x0 DUP1 REVERT JUMPDEST POP PUSH2 0x13E PUSH2 0x488 JUMP JUMPDEST PUSH1 0x40 MLOAD PUSH2 0x14B SWAP2 SWAP1 PUSH2 0x677 JUMP JUMPDEST PUSH1 0x40 MLOAD DUP1 SWAP2 SUB SWAP1 RETURN JUMPDEST CALLVALUE DUP1 ISZERO PUSH2 0x160 JUMPI PUSH1 0x0 DUP1 REVERT JUMPDEST POP PUSH2 0x169 PUSH2 0x48E JUMP JUMPDEST STOP JUMPDEST PUSH1 0x1 SLOAD CALLVALUE GT PUSH2 0x1AF JUMPI PUSH1 0x40 MLOAD PUSH32 0x8C379A000000000000000000000000000000000000000000000000000000000 DUP2 MSTORE PUSH1 0x4 ADD PUSH2 0x1A6 SWAP1 PUSH2 0x719 JUMP JUMPDEST PUSH1 0x40 MLOAD DUP1 SWAP2 SUB SWAP1 REVERT JUMPDEST PUSH4 0x616D86D2 TIMESTAMP LT PUSH2 0x1F5 JUMPI PUSH1 0x40 MLOAD PUSH32 0x8C379A000000000000000000000000000000000000000000000000000000000 DUP2 MSTORE PUSH1 0x4 ADD PUSH2 0x1EC SWAP1 PUSH2 0x785 JUMP JUMPDEST PUSH1 0x40 MLOAD DUP1 SWAP2 SUB SWAP1 REVERT JUMPDEST PUSH1 0x0 PUSH20 0xFFFFFFFFFFFFFFFFFFFFFFFFFFFFFFFFFFFFFFFF AND PUSH1 0x2 PUSH1 0x0 SWAP1 SLOAD SWAP1 PUSH2 0x100 EXP SWAP1 DIV PUSH20 0xFFFFFFFFFFFFFFFFFFFFFFFFFFFFFFFFFFFFFFFF AND PUSH20 0xFFFFFFFFFFFFFFFFFFFFFFFFFFFFFFFFFFFFFFFF AND EQ PUSH2 0x2C6 JUMPI PUSH1 0x1 SLOAD PUSH1 0x3 PUSH1 0x0 PUSH1 0x2 PUSH1 0x0 SWAP1 SLOAD SWAP1 PUSH2 0x100 EXP SWAP1 DIV PUSH20 0xFFFFFFFFFFFFFFFFFFFFFFFFFFFFFFFFFFFFFFFF AND PUSH20 0xFFFFFFFFFFFFFFFFFFFFFFFFFFFFFFFFFFFFFFFF AND PUSH20 0xFFFFFFFFFFFFFFFFFFFFFFFFFFFFFFFFFFFFFFFF AND DUP2 MSTORE PUSH1 0x20 ADD SWAP1 DUP2 MSTORE PUSH1 0x20 ADD PUSH1 0x0 KECCAK256 PUSH1 0x0 DUP3 DUP3 SLOAD PUSH2 0x2BE SWAP2 SWAP1 PUSH2 0x7D4 JUMP JUMPDEST SWAP3 POP POP DUP2 SWAP1 SSTORE POP JUMPDEST CALLVALUE PUSH1 0x1 DUP2 SWAP1 SSTORE POP CALLER PUSH1 0x2 PUSH1 0x0 PUSH2 0x100 EXP DUP2 SLOAD DUP2 PUSH20 0xFFFFFFFFFFFFFFFFFFFFFFFFFFFFFFFFFFFFFFFF MUL NOT AND SWAP1 DUP4 PUSH20 0xFFFFFFFFFFFFFFFFFFFFFFFFFFFFFFFFFFFFFFFF AND MUL OR SWAP1 SSTORE POP JUMP JUMPDEST PUSH1 0x0 PUSH1 0x3 PUSH1 0x0 CALLER PUSH20 0xFFFFFFFFFFFFFFFFFFFFFFFFFFFFFFFFFFFFFFFF AND PUSH20 0xFFFFFFFFFFFFFFFFFFFFFFFFFFFFFFFFFFFFFFFF AND DUP2 MSTORE PUSH1 0x20 ADD SWAP1 DUP2 MSTORE PUSH1 0x20 ADD PUSH1 0x0 KECCAK256 SLOAD SWAP1 POP PUSH1 0x0 DUP2 GT PUSH2 0x397 JUMPI PUSH1 0x40 MLOAD PUSH32 0x8C379A000000000000000000000000000000000000000000000000000000000 DUP2 MSTORE PUSH1 0x4 ADD PUSH2 0x38E SWAP1 PUSH2 0x854 JUMP JUMPDEST PUSH1 0x40 MLOAD DUP1 SWAP2 SUB SWAP1 REVERT JUMPDEST PUSH1 0x0 PUSH1 0x3 PUSH1 0x0 CALLER PUSH20 0xFFFFFFFFFFFFFFFFFFFFFFFFFFFFFFFFFFFFFFFF AND PUSH20 0xFFFFFFFFFFFFFFFFFFFFFFFFFFFFFFFFFFFFFFFF AND DUP2 MSTORE PUSH1 0x20 ADD SWAP1 DUP2 MSTORE PUSH1 0x20 ADD PUSH1 0x0 KECCAK256 DUP2 SWAP1 SSTORE POP CALLER PUSH20 0xFFFFFFFFFFFFFFFFFFFFFFFFFFFFFFFFFFFFFFFF AND PUSH2 0x8FC DUP3 SWAP1 DUP2 ISZERO MUL SWAP1 PUSH1 0x40 MLOAD PUSH1 0x0 PUSH1 0x40 MLOAD DUP1 DUP4 SUB DUP2 DUP6 DUP9 DUP9 CALL SWAP4 POP POP POP POP ISZERO DUP1 ISZERO PUSH2 0x422 JUMPI RETURNDATASIZE PUSH1 0x0 DUP1 RETURNDATACOPY RETURNDATASIZE PUSH1 0x0 REVERT JUMPDEST POP POP JUMP JUMPDEST PUSH1 0x3 PUSH1 0x20 MSTORE DUP1 PUSH1 0x0 MSTORE PUSH1 0x40 PUSH1 0x0 KECCAK256 PUSH1 0x0 SWAP2 POP SWAP1 POP SLOAD DUP2 JUMP JUMPDEST PUSH1 0x0 DUP1 SLOAD SWAP1 PUSH2 0x100 EXP SWAP1 DIV PUSH20 0xFFFFFFFFFFFFFFFFFFFFFFFFFFFFFFFFFFFFFFFF AND DUP2 JUMP JUMPDEST PUSH1 0x2 PUSH1 0x0 SWAP1 SLOAD SWAP1 PUSH2 0x100 EXP SWAP1 DIV PUSH20 0xFFFFFFFFFFFFFFFFFFFFFFFFFFFFFFFFFFFFFFFF AND DUP2 JUMP JUMPDEST PUSH1 0x1 SLOAD DUP2 JUMP JUMPDEST PUSH1 0x0 DUP1 SLOAD SWAP1 PUSH2 0x100 EXP SWAP1 DIV PUSH20 0xFFFFFFFFFFFFFFFFFFFFFFFFFFFFFFFFFFFFFFFF AND PUSH20 0xFFFFFFFFFFFFFFFFFFFFFFFFFFFFFFFFFFFFFFFF AND CALLER PUSH20 0xFFFFFFFFFFFFFFFFFFFFFFFFFFFFFFFFFFFFFFFF AND EQ PUSH2 0x51C JUMPI PUSH1 0x40 MLOAD PUSH32 0x8C379A000000000000000000000000000000000000000000000000000000000 DUP2 MSTORE PUSH1 0x4 ADD PUSH2 0x513 SWAP1 PUSH2 0x8E6 JUMP JUMPDEST PUSH1 0x40 MLOAD DUP1 SWAP2 SUB SWAP1 REVERT JUMPDEST PUSH4 0x616D86D2 TIMESTAMP LT ISZERO PUSH2 0x563 JUMPI PUSH1 0x40 MLOAD PUSH32 0x8C379A000000000000000000000000000000000000000000000000000000000 DUP2 MSTORE PUSH1 0x4 ADD PUSH2 0x55A SWAP1 PUSH2 0x952 JUMP JUMPDEST PUSH1 0x40 MLOAD DUP1 SWAP2 SUB SWAP1 REVERT JUMPDEST PUSH1 0x0 DUP1 SLOAD SWAP1 PUSH2 0x100 EXP SWAP1 DIV PUSH20 0xFFFFFFFFFFFFFFFFFFFFFFFFFFFFFFFFFFFFFFFF AND PUSH20 0xFFFFFFFFFFFFFFFFFFFFFFFFFFFFFFFFFFFFFFFF AND PUSH2 0x8FC PUSH1 0x1 SLOAD SWAP1 DUP2 ISZERO MUL SWAP1 PUSH1 0x40 MLOAD PUSH1 0x0 PUSH1 0x40 MLOAD DUP1 DUP4 SUB DUP2 DUP6 DUP9 DUP9 CALL SWAP4 POP POP POP POP ISZERO DUP1 ISZERO PUSH2 0x5CB JUMPI RETURNDATASIZE PUSH1 0x0 DUP1 RETURNDATACOPY RETURNDATASIZE PUSH1 0x0 REVERT JUMPDEST POP JUMP JUMPDEST PUSH1 0x0 DUP1 REVERT JUMPDEST PUSH1 0x0 PUSH20 0xFFFFFFFFFFFFFFFFFFFFFFFFFFFFFFFFFFFFFFFF DUP3 AND SWAP1 POP SWAP2 SWAP1 POP JUMP JUMPDEST PUSH1 0x0 PUSH2 0x5FE DUP3 PUSH2 0x5D3 JUMP JUMPDEST SWAP1 POP SWAP2 SWAP1 POP JUMP JUMPDEST PUSH2 0x60E DUP2 PUSH2 0x5F3 JUMP JUMPDEST DUP2 EQ PUSH2 0x619 JUMPI PUSH1 0x0 DUP1 REVERT JUMPDEST POP JUMP JUMPDEST PUSH1 0x0 DUP2 CALLDATALOAD SWAP1 POP PUSH2 0x62B DUP2 PUSH2 0x605 JUMP JUMPDEST SWAP3 SWAP2 POP POP JUMP JUMPDEST PUSH1 0x0 PUSH1 0x20 DUP3 DUP5 SUB SLT ISZERO PUSH2 0x647 JUMPI PUSH2 0x646 PUSH2 0x5CE JUMP JUMPDEST JUMPDEST PUSH1 0x0 PUSH2 0x655 DUP5 DUP3 DUP6 ADD PUSH2 0x61C JUMP JUMPDEST SWAP2 POP POP SWAP3 SWAP2 POP POP JUMP JUMPDEST PUSH1 0x0 DUP2 SWAP1 POP SWAP2 SWAP1 POP JUMP JUMPDEST PUSH2 0x671 DUP2 PUSH2 0x65E JUMP JUMPDEST DUP3 MSTORE POP POP JUMP JUMPDEST PUSH1 0x0 PUSH1 0x20 DUP3 ADD SWAP1 POP PUSH2 0x68C PUSH1 0x0 DUP4 ADD DUP5 PUSH2 0x668 JUMP JUMPDEST SWAP3 SWAP2 POP POP JUMP JUMPDEST PUSH2 0x69B DUP2 PUSH2 0x5F3 JUMP JUMPDEST DUP3 MSTORE POP POP JUMP JUMPDEST PUSH1 0x0 PUSH1 0x20 DUP3 ADD SWAP1 POP PUSH2 0x6B6 PUSH1 0x0 DUP4 ADD DUP5 PUSH2 0x692 JUMP JUMPDEST SWAP3 SWAP2 POP POP JUMP JUMPDEST PUSH1 0x0 DUP3 DUP3 MSTORE PUSH1 0x20 DUP3 ADD SWAP1 POP SWAP3 SWAP2 POP POP JUMP JUMPDEST PUSH32 0x546865726520697320616C7265616479206120686967686572206269642E0000 PUSH1 0x0 DUP3 ADD MSTORE POP JUMP JUMPDEST PUSH1 0x0 PUSH2 0x703 PUSH1 0x1E DUP4 PUSH2 0x6BC JUMP JUMPDEST SWAP2 POP PUSH2 0x70E DUP3 PUSH2 0x6CD JUMP JUMPDEST PUSH1 0x20 DUP3 ADD SWAP1 POP SWAP2 SWAP1 POP JUMP JUMPDEST PUSH1 0x0 PUSH1 0x20 DUP3 ADD SWAP1 POP DUP2 DUP2 SUB PUSH1 0x0 DUP4 ADD MSTORE PUSH2 0x732 DUP2 PUSH2 0x6F6 JUMP JUMPDEST SWAP1 POP SWAP2 SWAP1 POP JUMP JUMPDEST PUSH32 0x5468652061756374696F6E2068617320656E6465642E00000000000000000000 PUSH1 0x0 DUP3 ADD MSTORE POP JUMP JUMPDEST PUSH1 0x0 PUSH2 0x76F PUSH1 0x16 DUP4 PUSH2 0x6BC JUMP JUMPDEST SWAP2 POP PUSH2 0x77A DUP3 PUSH2 0x739 JUMP JUMPDEST PUSH1 0x20 DUP3 ADD SWAP1 POP SWAP2 SWAP1 POP JUMP JUMPDEST PUSH1 0x0 PUSH1 0x20 DUP3 ADD SWAP1 POP DUP2 DUP2 SUB PUSH1 0x0 DUP4 ADD MSTORE PUSH2 0x79E DUP2 PUSH2 0x762 JUMP JUMPDEST SWAP1 POP SWAP2 SWAP1 POP JUMP JUMPDEST PUSH32 0x4E487B7100000000000000000000000000000000000000000000000000000000 PUSH1 0x0 MSTORE PUSH1 0x11 PUSH1 0x4 MSTORE PUSH1 0x24 PUSH1 0x0 REVERT JUMPDEST PUSH1 0x0 PUSH2 0x7DF DUP3 PUSH2 0x65E JUMP JUMPDEST SWAP2 POP PUSH2 0x7EA DUP4 PUSH2 0x65E JUMP JUMPDEST SWAP3 POP DUP3 DUP3 ADD SWAP1 POP DUP1 DUP3 GT ISZERO PUSH2 0x802 JUMPI PUSH2 0x801 PUSH2 0x7A5 JUMP JUMPDEST JUMPDEST SWAP3 SWAP2 POP POP JUMP JUMPDEST PUSH32 0x596F752068617665206E6F2066756E647320746F2077697468647261772E0000 PUSH1 0x0 DUP3 ADD MSTORE POP JUMP JUMPDEST PUSH1 0x0 PUSH2 0x83E PUSH1 0x1E DUP4 PUSH2 0x6BC JUMP JUMPDEST SWAP2 POP PUSH2 0x849 DUP3 PUSH2 0x808 JUMP JUMPDEST PUSH1 0x20 DUP3 ADD SWAP1 POP SWAP2 SWAP1 POP JUMP JUMPDEST PUSH1 0x0 PUSH1 0x20 DUP3 ADD SWAP1 POP DUP2 DUP2 SUB PUSH1 0x0 DUP4 ADD MSTORE PUSH2 0x86D DUP2 PUSH2 0x831 JUMP JUMPDEST SWAP1 POP SWAP2 SWAP1 POP JUMP JUMPDEST PUSH32 0x4F6E6C7920746865206F776E65722063616E20656E6420746865206175637469 PUSH1 0x0 DUP3 ADD MSTORE PUSH32 0x6F6E2E0000000000000000000000000000000000000000000000000000000000 PUSH1 0x20 DUP3 ADD MSTORE POP JUMP JUMPDEST PUSH1 0x0 PUSH2 0x8D0 PUSH1 0x23 DUP4 PUSH2 0x6BC JUMP JUMPDEST SWAP2 POP PUSH2 0x8DB DUP3 PUSH2 0x874 JUMP JUMPDEST PUSH1 0x40 DUP3 ADD SWAP1 POP SWAP2 SWAP1 POP JUMP JUMPDEST PUSH1 0x0 PUSH1 0x20 DUP3 ADD SWAP1 POP DUP2 DUP2 SUB PUSH1 0x0 DUP4 ADD MSTORE PUSH2 0x8FF DUP2 PUSH2 0x8C3 JUMP JUMPDEST SWAP1 POP SWAP2 SWAP1 POP JUMP JUMPDEST PUSH32 0x5468652061756374696F6E20686173206E6F742079657420656E6465642E0000 PUSH1 0x0 DUP3 ADD MSTORE POP JUMP JUMPDEST PUSH1 0x0 PUSH2 0x93C PUSH1 0x1E DUP4 PUSH2 0x6BC JUMP JUMPDEST SWAP2 POP PUSH2 0x947 DUP3 PUSH2 0x906 JUMP JUMPDEST PUSH1 0x20 DUP3 ADD SWAP1 POP SWAP2 SWAP1 POP JUMP JUMPDEST PUSH1 0x0 PUSH1 0x20 DUP3 ADD SWAP1 POP DUP2 DUP2 SUB PUSH1 0x0 DUP4 ADD MSTORE PUSH2 0x96B DUP2 PUSH2 0x92F JUMP JUMPDEST SWAP1 POP SWAP2 SWAP1 POP JUMP INVALID LOG2 PUSH5 0x6970667358 0x22 SLT KECCAK256 0xB2 SWAP12 SIGNEXTEND DELEGATECALL DUP1 JUMPDEST COINBASE DUP9 PUSH4 0xE50C8A1F DUP10 CALLCODE 0xF 0xE PUSH10 0x85431B81ACF781BB746A PUSH31 0xF7576164736F6C634300081100330000000000000000000000000000000000 "
				},
				"gasEstimates": {
					"creation": {
						"codeDepositCost": "494400",
						"executionCost": "24796",
						"totalCost": "519196"
					},
					"external": {
						"bid()": "infinite",
						"bids(address)": "2859",
						"endAuction()": "infinite",
						"highestBid()": "2473",
						"highestBidder()": "2536",
						"owner()": "2511",
						"withdraw()": "infinite"
					}
				},
				"methodIdentifiers": {
					"bid()": "1998aeef",
					"bids(address)": "62ea82db",
					"endAuction()": "fe67a54b",
					"highestBid()": "d57bde79",
					"highestBidder()": "91f90157",
					"owner()": "8da5cb5b",
					"withdraw()": "3ccfd60b"
				}
			},
			"storageLayout": {
				"storage": [
					{
						"astId": 3,
						"contract": "KAMIL SIR/PROJECT03/AUCTION-CONTRACT/contract.sol:Auction",
						"label": "owner",
						"offset": 0,
						"slot": "0",
						"type": "t_address"
					},
					{
						"astId": 5,
						"contract": "KAMIL SIR/PROJECT03/AUCTION-CONTRACT/contract.sol:Auction",
						"label": "highestBid",
						"offset": 0,
						"slot": "1",
						"type": "t_uint256"
					},
					{
						"astId": 7,
						"contract": "KAMIL SIR/PROJECT03/AUCTION-CONTRACT/contract.sol:Auction",
						"label": "highestBidder",
						"offset": 0,
						"slot": "2",
						"type": "t_address"
					},
					{
						"astId": 11,
						"contract": "KAMIL SIR/PROJECT03/AUCTION-CONTRACT/contract.sol:Auction",
						"label": "bids",
						"offset": 0,
						"slot": "3",
						"type": "t_mapping(t_address,t_uint256)"
					}
				],
				"types": {
					"t_address": {
						"encoding": "inplace",
						"label": "address",
						"numberOfBytes": "20"
					},
					"t_mapping(t_address,t_uint256)": {
						"encoding": "mapping",
						"key": "t_address",
						"label": "mapping(address => uint256)",
						"numberOfBytes": "32",
						"value": "t_uint256"
					},
					"t_uint256": {
						"encoding": "inplace",
						"label": "uint256",
						"numberOfBytes": "32"
					}
				}
			},
			"userdoc": {
				"kind": "user",
				"methods": {},
				"version": 1
			}
		}
	}
}