{
	"KAMIL SIR/PROJECT03/AUCTION-CONTRACT/abc.sol": {
		"Auction": {
			"abi": [
				{
					"inputs": [
						{
							"internalType": "uint256",
							"name": "_startTime",
							"type": "uint256"
						},
						{
							"internalType": "uint256",
							"name": "_endTime",
							"type": "uint256"
						}
					],
					"stateMutability": "nonpayable",
					"type": "constructor"
				},
				{
					"inputs": [],
					"name": "auctioneer",
					"outputs": [
						{
							"internalType": "address",
							"name": "",
							"type": "address"
						}
					],
					"stateMutability": "view",
					"type": "function"
				},
				{
					"inputs": [
						{
							"internalType": "address",
							"name": "",
							"type": "address"
						}
					],
					"name": "bids",
					"outputs": [
						{
							"internalType": "uint256",
							"name": "",
							"type": "uint256"
						}
					],
					"stateMutability": "view",
					"type": "function"
				},
				{
					"inputs": [],
					"name": "endAuction",
					"outputs": [],
					"stateMutability": "nonpayable",
					"type": "function"
				},
				{
					"inputs": [],
					"name": "endTime",
					"outputs": [
						{
							"internalType": "uint256",
							"name": "",
							"type": "uint256"
						}
					],
					"stateMutability": "view",
					"type": "function"
				},
				{
					"inputs": [],
					"name": "highestBid",
					"outputs": [
						{
							"internalType": "uint256",
							"name": "",
							"type": "uint256"
						}
					],
					"stateMutability": "view",
					"type": "function"
				},
				{
					"inputs": [],
					"name": "highestBidder",
					"outputs": [
						{
							"internalType": "address",
							"name": "",
							"type": "address"
						}
					],
					"stateMutability": "view",
					"type": "function"
				},
				{
					"inputs": [],
					"name": "placeBid",
					"outputs": [],
					"stateMutability": "payable",
					"type": "function"
				},
				{
					"inputs": [],
					"name": "startTime",
					"outputs": [
						{
							"internalType": "uint256",
							"name": "",
							"type": "uint256"
						}
					],
					"stateMutability": "view",
					"type": "function"
				},
				{
					"inputs": [],
					"name": "withdrawBid",
					"outputs": [],
					"stateMutability": "nonpayable",
					"type": "function"
				}
			],
			"devdoc": {
				"kind": "dev",
				"methods": {},
				"version": 1
			},
			"evm": {
				"assembly": "    /* \"KAMIL SIR/PROJECT03/AUCTION-CONTRACT/abc.sol\":533:2219  contract Auction {... */\n  mstore(0x40, 0x80)\n    /* \"KAMIL SIR/PROJECT03/AUCTION-CONTRACT/abc.sol\":957:1111  constructor(uint256 _startTime, uint256 _endTime) {... */\n  callvalue\n  dup1\n  iszero\n  tag_1\n  jumpi\n  0x00\n  dup1\n  revert\ntag_1:\n  pop\n  mload(0x40)\n  sub(codesize, bytecodeSize)\n  dup1\n  bytecodeSize\n  dup4\n  codecopy\n  dup2\n  dup2\n  add\n  0x40\n  mstore\n  dup2\n  add\n  swap1\n  tag_2\n  swap2\n  swap1\n  tag_3\n  jump\t// in\ntag_2:\n    /* \"KAMIL SIR/PROJECT03/AUCTION-CONTRACT/abc.sol\":1031:1041  msg.sender */\n  caller\n    /* \"KAMIL SIR/PROJECT03/AUCTION-CONTRACT/abc.sol\":1018:1028  auctioneer */\n  0x00\n  dup1\n    /* \"KAMIL SIR/PROJECT03/AUCTION-CONTRACT/abc.sol\":1018:1041  auctioneer = msg.sender */\n  0x0100\n  exp\n  dup2\n  sload\n  dup2\n  0xffffffffffffffffffffffffffffffffffffffff\n  mul\n  not\n  and\n  swap1\n  dup4\n  0xffffffffffffffffffffffffffffffffffffffff\n  and\n  mul\n  or\n  swap1\n  sstore\n  pop\n    /* \"KAMIL SIR/PROJECT03/AUCTION-CONTRACT/abc.sol\":1064:1074  _startTime */\n  dup2\n    /* \"KAMIL SIR/PROJECT03/AUCTION-CONTRACT/abc.sol\":1052:1061  startTime */\n  0x02\n    /* \"KAMIL SIR/PROJECT03/AUCTION-CONTRACT/abc.sol\":1052:1074  startTime = _startTime */\n  dup2\n  swap1\n  sstore\n  pop\n    /* \"KAMIL SIR/PROJECT03/AUCTION-CONTRACT/abc.sol\":1095:1103  _endTime */\n  dup1\n    /* \"KAMIL SIR/PROJECT03/AUCTION-CONTRACT/abc.sol\":1085:1092  endTime */\n  0x03\n    /* \"KAMIL SIR/PROJECT03/AUCTION-CONTRACT/abc.sol\":1085:1103  endTime = _endTime */\n  dup2\n  swap1\n  sstore\n  pop\n    /* \"KAMIL SIR/PROJECT03/AUCTION-CONTRACT/abc.sol\":957:1111  constructor(uint256 _startTime, uint256 _endTime) {... */\n  pop\n  pop\n    /* \"KAMIL SIR/PROJECT03/AUCTION-CONTRACT/abc.sol\":533:2219  contract Auction {... */\n  jump(tag_6)\n    /* \"#utility.yul\":88:205   */\ntag_8:\n    /* \"#utility.yul\":197:198   */\n  0x00\n    /* \"#utility.yul\":194:195   */\n  dup1\n    /* \"#utility.yul\":187:199   */\n  revert\n    /* \"#utility.yul\":334:411   */\ntag_10:\n    /* \"#utility.yul\":371:378   */\n  0x00\n    /* \"#utility.yul\":400:405   */\n  dup2\n    /* \"#utility.yul\":389:405   */\n  swap1\n  pop\n    /* \"#utility.yul\":334:411   */\n  swap2\n  swap1\n  pop\n  jump\t// out\n    /* \"#utility.yul\":417:539   */\ntag_11:\n    /* \"#utility.yul\":490:514   */\n  tag_19\n    /* \"#utility.yul\":508:513   */\n  dup2\n    /* \"#utility.yul\":490:514   */\n  tag_10\n  jump\t// in\ntag_19:\n    /* \"#utility.yul\":483:488   */\n  dup2\n    /* \"#utility.yul\":480:515   */\n  eq\n    /* \"#utility.yul\":470:533   */\n  tag_20\n  jumpi\n    /* \"#utility.yul\":529:530   */\n  0x00\n    /* \"#utility.yul\":526:527   */\n  dup1\n    /* \"#utility.yul\":519:531   */\n  revert\n    /* \"#utility.yul\":470:533   */\ntag_20:\n    /* \"#utility.yul\":417:539   */\n  pop\n  jump\t// out\n    /* \"#utility.yul\":545:688   */\ntag_12:\n    /* \"#utility.yul\":602:607   */\n  0x00\n    /* \"#utility.yul\":633:639   */\n  dup2\n    /* \"#utility.yul\":627:640   */\n  mload\n    /* \"#utility.yul\":618:640   */\n  swap1\n  pop\n    /* \"#utility.yul\":649:682   */\n  tag_22\n    /* \"#utility.yul\":676:681   */\n  dup2\n    /* \"#utility.yul\":649:682   */\n  tag_11\n  jump\t// in\ntag_22:\n    /* \"#utility.yul\":545:688   */\n  swap3\n  swap2\n  pop\n  pop\n  jump\t// out\n    /* \"#utility.yul\":694:1201   */\ntag_3:\n    /* \"#utility.yul\":773:779   */\n  0x00\n    /* \"#utility.yul\":781:787   */\n  dup1\n    /* \"#utility.yul\":830:832   */\n  0x40\n    /* \"#utility.yul\":818:827   */\n  dup4\n    /* \"#utility.yul\":809:816   */\n  dup6\n    /* \"#utility.yul\":805:828   */\n  sub\n    /* \"#utility.yul\":801:833   */\n  slt\n    /* \"#utility.yul\":798:917   */\n  iszero\n  tag_24\n  jumpi\n    /* \"#utility.yul\":836:915   */\n  tag_25\n  tag_8\n  jump\t// in\ntag_25:\n    /* \"#utility.yul\":798:917   */\ntag_24:\n    /* \"#utility.yul\":956:957   */\n  0x00\n    /* \"#utility.yul\":981:1045   */\n  tag_26\n    /* \"#utility.yul\":1037:1044   */\n  dup6\n    /* \"#utility.yul\":1028:1034   */\n  dup3\n    /* \"#utility.yul\":1017:1026   */\n  dup7\n    /* \"#utility.yul\":1013:1035   */\n  add\n    /* \"#utility.yul\":981:1045   */\n  tag_12\n  jump\t// in\ntag_26:\n    /* \"#utility.yul\":971:1045   */\n  swap3\n  pop\n    /* \"#utility.yul\":927:1055   */\n  pop\n    /* \"#utility.yul\":1094:1096   */\n  0x20\n    /* \"#utility.yul\":1120:1184   */\n  tag_27\n    /* \"#utility.yul\":1176:1183   */\n  dup6\n    /* \"#utility.yul\":1167:1173   */\n  dup3\n    /* \"#utility.yul\":1156:1165   */\n  dup7\n    /* \"#utility.yul\":1152:1174   */\n  add\n    /* \"#utility.yul\":1120:1184   */\n  tag_12\n  jump\t// in\ntag_27:\n    /* \"#utility.yul\":1110:1184   */\n  swap2\n  pop\n    /* \"#utility.yul\":1065:1194   */\n  pop\n    /* \"#utility.yul\":694:1201   */\n  swap3\n  pop\n  swap3\n  swap1\n  pop\n  jump\t// out\n    /* \"KAMIL SIR/PROJECT03/AUCTION-CONTRACT/abc.sol\":533:2219  contract Auction {... */\ntag_6:\n  dataSize(sub_0)\n  dup1\n  dataOffset(sub_0)\n  0x00\n  codecopy\n  0x00\n  return\nstop\n\nsub_0: assembly {\n        /* \"KAMIL SIR/PROJECT03/AUCTION-CONTRACT/abc.sol\":533:2219  contract Auction {... */\n      mstore(0x40, 0x80)\n      jumpi(tag_1, lt(calldatasize, 0x04))\n      shr(0xe0, calldataload(0x00))\n      dup1\n      0x78e97925\n      gt\n      tag_11\n      jumpi\n      dup1\n      0x78e97925\n      eq\n      tag_6\n      jumpi\n      dup1\n      0x91f90157\n      eq\n      tag_7\n      jumpi\n      dup1\n      0xd57bde79\n      eq\n      tag_8\n      jumpi\n      dup1\n      0xecfc7ecc\n      eq\n      tag_9\n      jumpi\n      dup1\n      0xfe67a54b\n      eq\n      tag_10\n      jumpi\n      jump(tag_1)\n    tag_11:\n      dup1\n      0x3197cbb6\n      eq\n      tag_2\n      jumpi\n      dup1\n      0x37271cc7\n      eq\n      tag_3\n      jumpi\n      dup1\n      0x5ec2c7bf\n      eq\n      tag_4\n      jumpi\n      dup1\n      0x62ea82db\n      eq\n      tag_5\n      jumpi\n    tag_1:\n      0x00\n      dup1\n      revert\n        /* \"KAMIL SIR/PROJECT03/AUCTION-CONTRACT/abc.sol\":767:789  uint256 public endTime */\n    tag_2:\n      callvalue\n      dup1\n      iszero\n      tag_12\n      jumpi\n      0x00\n      dup1\n      revert\n    tag_12:\n      pop\n      tag_13\n      tag_14\n      jump\t// in\n    tag_13:\n      mload(0x40)\n      tag_15\n      swap2\n      swap1\n      tag_16\n      jump\t// in\n    tag_15:\n      mload(0x40)\n      dup1\n      swap2\n      sub\n      swap1\n      return\n        /* \"KAMIL SIR/PROJECT03/AUCTION-CONTRACT/abc.sol\":1633:1950  function withdrawBid() public {... */\n    tag_3:\n      callvalue\n      dup1\n      iszero\n      tag_17\n      jumpi\n      0x00\n      dup1\n      revert\n    tag_17:\n      pop\n      tag_18\n      tag_19\n      jump\t// in\n    tag_18:\n      stop\n        /* \"KAMIL SIR/PROJECT03/AUCTION-CONTRACT/abc.sol\":557:582  address public auctioneer */\n    tag_4:\n      callvalue\n      dup1\n      iszero\n      tag_20\n      jumpi\n      0x00\n      dup1\n      revert\n    tag_20:\n      pop\n      tag_21\n      tag_22\n      jump\t// in\n    tag_21:\n      mload(0x40)\n      tag_23\n      swap2\n      swap1\n      tag_24\n      jump\t// in\n    tag_23:\n      mload(0x40)\n      dup1\n      swap2\n      sub\n      swap1\n      return\n        /* \"KAMIL SIR/PROJECT03/AUCTION-CONTRACT/abc.sol\":622:661  mapping(address => uint256) public bids */\n    tag_5:\n      callvalue\n      dup1\n      iszero\n      tag_25\n      jumpi\n      0x00\n      dup1\n      revert\n    tag_25:\n      pop\n      tag_26\n      0x04\n      dup1\n      calldatasize\n      sub\n      dup2\n      add\n      swap1\n      tag_27\n      swap2\n      swap1\n      tag_28\n      jump\t// in\n    tag_27:\n      tag_29\n      jump\t// in\n    tag_26:\n      mload(0x40)\n      tag_30\n      swap2\n      swap1\n      tag_16\n      jump\t// in\n    tag_30:\n      mload(0x40)\n      dup1\n      swap2\n      sub\n      swap1\n      return\n        /* \"KAMIL SIR/PROJECT03/AUCTION-CONTRACT/abc.sol\":705:729  uint256 public startTime */\n    tag_6:\n      callvalue\n      dup1\n      iszero\n      tag_31\n      jumpi\n      0x00\n      dup1\n      revert\n    tag_31:\n      pop\n      tag_32\n      tag_33\n      jump\t// in\n    tag_32:\n      mload(0x40)\n      tag_34\n      swap2\n      swap1\n      tag_16\n      jump\t// in\n    tag_34:\n      mload(0x40)\n      dup1\n      swap2\n      sub\n      swap1\n      return\n        /* \"KAMIL SIR/PROJECT03/AUCTION-CONTRACT/abc.sol\":883:911  address public highestBidder */\n    tag_7:\n      callvalue\n      dup1\n      iszero\n      tag_35\n      jumpi\n      0x00\n      dup1\n      revert\n    tag_35:\n      pop\n      tag_36\n      tag_37\n      jump\t// in\n    tag_36:\n      mload(0x40)\n      tag_38\n      swap2\n      swap1\n      tag_24\n      jump\t// in\n    tag_38:\n      mload(0x40)\n      dup1\n      swap2\n      sub\n      swap1\n      return\n        /* \"KAMIL SIR/PROJECT03/AUCTION-CONTRACT/abc.sol\":825:850  uint256 public highestBid */\n    tag_8:\n      callvalue\n      dup1\n      iszero\n      tag_39\n      jumpi\n      0x00\n      dup1\n      revert\n    tag_39:\n      pop\n      tag_40\n      tag_41\n      jump\t// in\n    tag_40:\n      mload(0x40)\n      tag_42\n      swap2\n      swap1\n      tag_16\n      jump\t// in\n    tag_42:\n      mload(0x40)\n      dup1\n      swap2\n      sub\n      swap1\n      return\n        /* \"KAMIL SIR/PROJECT03/AUCTION-CONTRACT/abc.sol\":1119:1625  function placeBid() public payable {... */\n    tag_9:\n      tag_43\n      tag_44\n      jump\t// in\n    tag_43:\n      stop\n        /* \"KAMIL SIR/PROJECT03/AUCTION-CONTRACT/abc.sol\":1958:2216  function endAuction() public {... */\n    tag_10:\n      callvalue\n      dup1\n      iszero\n      tag_45\n      jumpi\n      0x00\n      dup1\n      revert\n    tag_45:\n      pop\n      tag_46\n      tag_47\n      jump\t// in\n    tag_46:\n      stop\n        /* \"KAMIL SIR/PROJECT03/AUCTION-CONTRACT/abc.sol\":767:789  uint256 public endTime */\n    tag_14:\n      sload(0x03)\n      dup2\n      jump\t// out\n        /* \"KAMIL SIR/PROJECT03/AUCTION-CONTRACT/abc.sol\":1633:1950  function withdrawBid() public {... */\n    tag_19:\n        /* \"KAMIL SIR/PROJECT03/AUCTION-CONTRACT/abc.sol\":1700:1709  startTime */\n      sload(0x02)\n        /* \"KAMIL SIR/PROJECT03/AUCTION-CONTRACT/abc.sol\":1682:1697  block.timestamp */\n      timestamp\n        /* \"KAMIL SIR/PROJECT03/AUCTION-CONTRACT/abc.sol\":1682:1709  block.timestamp < startTime */\n      lt\n        /* \"KAMIL SIR/PROJECT03/AUCTION-CONTRACT/abc.sol\":1674:1733  require(block.timestamp < startTime, \"Auction has started\") */\n      tag_49\n      jumpi\n      mload(0x40)\n      0x08c379a000000000000000000000000000000000000000000000000000000000\n      dup2\n      mstore\n      0x04\n      add\n      tag_50\n      swap1\n      tag_51\n      jump\t// in\n    tag_50:\n      mload(0x40)\n      dup1\n      swap2\n      sub\n      swap1\n      revert\n    tag_49:\n        /* \"KAMIL SIR/PROJECT03/AUCTION-CONTRACT/abc.sol\":1766:1779  highestBidder */\n      0x05\n      0x00\n      swap1\n      sload\n      swap1\n      0x0100\n      exp\n      swap1\n      div\n      0xffffffffffffffffffffffffffffffffffffffff\n      and\n        /* \"KAMIL SIR/PROJECT03/AUCTION-CONTRACT/abc.sol\":1752:1779  msg.sender != highestBidder */\n      0xffffffffffffffffffffffffffffffffffffffff\n      and\n        /* \"KAMIL SIR/PROJECT03/AUCTION-CONTRACT/abc.sol\":1752:1762  msg.sender */\n      caller\n        /* \"KAMIL SIR/PROJECT03/AUCTION-CONTRACT/abc.sol\":1752:1779  msg.sender != highestBidder */\n      0xffffffffffffffffffffffffffffffffffffffff\n      and\n      sub\n        /* \"KAMIL SIR/PROJECT03/AUCTION-CONTRACT/abc.sol\":1744:1810  require(msg.sender != highestBidder, \"You are the highest bidder\") */\n      tag_52\n      jumpi\n      mload(0x40)\n      0x08c379a000000000000000000000000000000000000000000000000000000000\n      dup2\n      mstore\n      0x04\n      add\n      tag_53\n      swap1\n      tag_54\n      jump\t// in\n    tag_53:\n      mload(0x40)\n      dup1\n      swap2\n      sub\n      swap1\n      revert\n    tag_52:\n        /* \"KAMIL SIR/PROJECT03/AUCTION-CONTRACT/abc.sol\":1831:1845  uint256 amount */\n      0x00\n        /* \"KAMIL SIR/PROJECT03/AUCTION-CONTRACT/abc.sol\":1848:1852  bids */\n      0x01\n        /* \"KAMIL SIR/PROJECT03/AUCTION-CONTRACT/abc.sol\":1848:1864  bids[msg.sender] */\n      0x00\n        /* \"KAMIL SIR/PROJECT03/AUCTION-CONTRACT/abc.sol\":1853:1863  msg.sender */\n      caller\n        /* \"KAMIL SIR/PROJECT03/AUCTION-CONTRACT/abc.sol\":1848:1864  bids[msg.sender] */\n      0xffffffffffffffffffffffffffffffffffffffff\n      and\n      0xffffffffffffffffffffffffffffffffffffffff\n      and\n      dup2\n      mstore\n      0x20\n      add\n      swap1\n      dup2\n      mstore\n      0x20\n      add\n      0x00\n      keccak256\n      sload\n        /* \"KAMIL SIR/PROJECT03/AUCTION-CONTRACT/abc.sol\":1831:1864  uint256 amount = bids[msg.sender] */\n      swap1\n      pop\n        /* \"KAMIL SIR/PROJECT03/AUCTION-CONTRACT/abc.sol\":1894:1895  0 */\n      0x00\n        /* \"KAMIL SIR/PROJECT03/AUCTION-CONTRACT/abc.sol\":1875:1879  bids */\n      0x01\n        /* \"KAMIL SIR/PROJECT03/AUCTION-CONTRACT/abc.sol\":1875:1891  bids[msg.sender] */\n      0x00\n        /* \"KAMIL SIR/PROJECT03/AUCTION-CONTRACT/abc.sol\":1880:1890  msg.sender */\n      caller\n        /* \"KAMIL SIR/PROJECT03/AUCTION-CONTRACT/abc.sol\":1875:1891  bids[msg.sender] */\n      0xffffffffffffffffffffffffffffffffffffffff\n      and\n      0xffffffffffffffffffffffffffffffffffffffff\n      and\n      dup2\n      mstore\n      0x20\n      add\n      swap1\n      dup2\n      mstore\n      0x20\n      add\n      0x00\n      keccak256\n        /* \"KAMIL SIR/PROJECT03/AUCTION-CONTRACT/abc.sol\":1875:1895  bids[msg.sender] = 0 */\n      dup2\n      swap1\n      sstore\n      pop\n        /* \"KAMIL SIR/PROJECT03/AUCTION-CONTRACT/abc.sol\":1914:1924  msg.sender */\n      caller\n        /* \"KAMIL SIR/PROJECT03/AUCTION-CONTRACT/abc.sol\":1906:1934  payable(msg.sender).transfer */\n      0xffffffffffffffffffffffffffffffffffffffff\n      and\n        /* \"KAMIL SIR/PROJECT03/AUCTION-CONTRACT/abc.sol\":1906:1942  payable(msg.sender).transfer(amount) */\n      0x08fc\n        /* \"KAMIL SIR/PROJECT03/AUCTION-CONTRACT/abc.sol\":1935:1941  amount */\n      dup3\n        /* \"KAMIL SIR/PROJECT03/AUCTION-CONTRACT/abc.sol\":1906:1942  payable(msg.sender).transfer(amount) */\n      swap1\n      dup2\n      iszero\n      mul\n      swap1\n      mload(0x40)\n      0x00\n      mload(0x40)\n      dup1\n      dup4\n      sub\n      dup2\n      dup6\n      dup9\n      dup9\n      call\n      swap4\n      pop\n      pop\n      pop\n      pop\n      iszero\n      dup1\n      iszero\n      tag_56\n      jumpi\n      returndatasize\n      0x00\n      dup1\n      returndatacopy\n      revert(0x00, returndatasize)\n    tag_56:\n      pop\n        /* \"KAMIL SIR/PROJECT03/AUCTION-CONTRACT/abc.sol\":1663:1950  {... */\n      pop\n        /* \"KAMIL SIR/PROJECT03/AUCTION-CONTRACT/abc.sol\":1633:1950  function withdrawBid() public {... */\n      jump\t// out\n        /* \"KAMIL SIR/PROJECT03/AUCTION-CONTRACT/abc.sol\":557:582  address public auctioneer */\n    tag_22:\n      0x00\n      dup1\n      sload\n      swap1\n      0x0100\n      exp\n      swap1\n      div\n      0xffffffffffffffffffffffffffffffffffffffff\n      and\n      dup2\n      jump\t// out\n        /* \"KAMIL SIR/PROJECT03/AUCTION-CONTRACT/abc.sol\":622:661  mapping(address => uint256) public bids */\n    tag_29:\n      mstore(0x20, 0x01)\n      dup1\n      0x00\n      mstore\n      keccak256(0x00, 0x40)\n      0x00\n      swap2\n      pop\n      swap1\n      pop\n      sload\n      dup2\n      jump\t// out\n        /* \"KAMIL SIR/PROJECT03/AUCTION-CONTRACT/abc.sol\":705:729  uint256 public startTime */\n    tag_33:\n      sload(0x02)\n      dup2\n      jump\t// out\n        /* \"KAMIL SIR/PROJECT03/AUCTION-CONTRACT/abc.sol\":883:911  address public highestBidder */\n    tag_37:\n      0x05\n      0x00\n      swap1\n      sload\n      swap1\n      0x0100\n      exp\n      swap1\n      div\n      0xffffffffffffffffffffffffffffffffffffffff\n      and\n      dup2\n      jump\t// out\n        /* \"KAMIL SIR/PROJECT03/AUCTION-CONTRACT/abc.sol\":825:850  uint256 public highestBid */\n    tag_41:\n      sload(0x04)\n      dup2\n      jump\t// out\n        /* \"KAMIL SIR/PROJECT03/AUCTION-CONTRACT/abc.sol\":1119:1625  function placeBid() public payable {... */\n    tag_44:\n        /* \"KAMIL SIR/PROJECT03/AUCTION-CONTRACT/abc.sol\":1292:1302  highestBid */\n      sload(0x04)\n        /* \"KAMIL SIR/PROJECT03/AUCTION-CONTRACT/abc.sol\":1280:1289  msg.value */\n      callvalue\n        /* \"KAMIL SIR/PROJECT03/AUCTION-CONTRACT/abc.sol\":1280:1302  msg.value > highestBid */\n      gt\n        /* \"KAMIL SIR/PROJECT03/AUCTION-CONTRACT/abc.sol\":1272:1328  require(msg.value > highestBid, \"Bid amount is too low\") */\n      tag_58\n      jumpi\n      mload(0x40)\n      0x08c379a000000000000000000000000000000000000000000000000000000000\n      dup2\n      mstore\n      0x04\n      add\n      tag_59\n      swap1\n      tag_60\n      jump\t// in\n    tag_59:\n      mload(0x40)\n      dup1\n      swap2\n      sub\n      swap1\n      revert\n    tag_58:\n        /* \"KAMIL SIR/PROJECT03/AUCTION-CONTRACT/abc.sol\":1378:1379  0 */\n      0x00\n        /* \"KAMIL SIR/PROJECT03/AUCTION-CONTRACT/abc.sol\":1353:1380  highestBidder != address(0) */\n      0xffffffffffffffffffffffffffffffffffffffff\n      and\n        /* \"KAMIL SIR/PROJECT03/AUCTION-CONTRACT/abc.sol\":1353:1366  highestBidder */\n      0x05\n      0x00\n      swap1\n      sload\n      swap1\n      0x0100\n      exp\n      swap1\n      div\n      0xffffffffffffffffffffffffffffffffffffffff\n      and\n        /* \"KAMIL SIR/PROJECT03/AUCTION-CONTRACT/abc.sol\":1353:1380  highestBidder != address(0) */\n      0xffffffffffffffffffffffffffffffffffffffff\n      and\n      eq\n        /* \"KAMIL SIR/PROJECT03/AUCTION-CONTRACT/abc.sol\":1349:1499  if (highestBidder != address(0)) {... */\n      tag_61\n      jumpi\n        /* \"KAMIL SIR/PROJECT03/AUCTION-CONTRACT/abc.sol\":1452:1465  highestBidder */\n      0x05\n      0x00\n      swap1\n      sload\n      swap1\n      0x0100\n      exp\n      swap1\n      div\n      0xffffffffffffffffffffffffffffffffffffffff\n      and\n        /* \"KAMIL SIR/PROJECT03/AUCTION-CONTRACT/abc.sol\":1444:1475  payable(highestBidder).transfer */\n      0xffffffffffffffffffffffffffffffffffffffff\n      and\n        /* \"KAMIL SIR/PROJECT03/AUCTION-CONTRACT/abc.sol\":1444:1487  payable(highestBidder).transfer(highestBid) */\n      0x08fc\n        /* \"KAMIL SIR/PROJECT03/AUCTION-CONTRACT/abc.sol\":1476:1486  highestBid */\n      sload(0x04)\n        /* \"KAMIL SIR/PROJECT03/AUCTION-CONTRACT/abc.sol\":1444:1487  payable(highestBidder).transfer(highestBid) */\n      swap1\n      dup2\n      iszero\n      mul\n      swap1\n      mload(0x40)\n      0x00\n      mload(0x40)\n      dup1\n      dup4\n      sub\n      dup2\n      dup6\n      dup9\n      dup9\n      call\n      swap4\n      pop\n      pop\n      pop\n      pop\n      iszero\n      dup1\n      iszero\n      tag_63\n      jumpi\n      returndatasize\n      0x00\n      dup1\n      returndatacopy\n      revert(0x00, returndatasize)\n    tag_63:\n      pop\n        /* \"KAMIL SIR/PROJECT03/AUCTION-CONTRACT/abc.sol\":1349:1499  if (highestBidder != address(0)) {... */\n    tag_61:\n        /* \"KAMIL SIR/PROJECT03/AUCTION-CONTRACT/abc.sol\":1532:1541  msg.value */\n      callvalue\n        /* \"KAMIL SIR/PROJECT03/AUCTION-CONTRACT/abc.sol\":1519:1529  highestBid */\n      0x04\n        /* \"KAMIL SIR/PROJECT03/AUCTION-CONTRACT/abc.sol\":1519:1541  highestBid = msg.value */\n      dup2\n      swap1\n      sstore\n      pop\n        /* \"KAMIL SIR/PROJECT03/AUCTION-CONTRACT/abc.sol\":1568:1578  msg.sender */\n      caller\n        /* \"KAMIL SIR/PROJECT03/AUCTION-CONTRACT/abc.sol\":1552:1565  highestBidder */\n      0x05\n      0x00\n        /* \"KAMIL SIR/PROJECT03/AUCTION-CONTRACT/abc.sol\":1552:1578  highestBidder = msg.sender */\n      0x0100\n      exp\n      dup2\n      sload\n      dup2\n      0xffffffffffffffffffffffffffffffffffffffff\n      mul\n      not\n      and\n      swap1\n      dup4\n      0xffffffffffffffffffffffffffffffffffffffff\n      and\n      mul\n      or\n      swap1\n      sstore\n      pop\n        /* \"KAMIL SIR/PROJECT03/AUCTION-CONTRACT/abc.sol\":1608:1617  msg.value */\n      callvalue\n        /* \"KAMIL SIR/PROJECT03/AUCTION-CONTRACT/abc.sol\":1589:1593  bids */\n      0x01\n        /* \"KAMIL SIR/PROJECT03/AUCTION-CONTRACT/abc.sol\":1589:1605  bids[msg.sender] */\n      0x00\n        /* \"KAMIL SIR/PROJECT03/AUCTION-CONTRACT/abc.sol\":1594:1604  msg.sender */\n      caller\n        /* \"KAMIL SIR/PROJECT03/AUCTION-CONTRACT/abc.sol\":1589:1605  bids[msg.sender] */\n      0xffffffffffffffffffffffffffffffffffffffff\n      and\n      0xffffffffffffffffffffffffffffffffffffffff\n      and\n      dup2\n      mstore\n      0x20\n      add\n      swap1\n      dup2\n      mstore\n      0x20\n      add\n      0x00\n      keccak256\n        /* \"KAMIL SIR/PROJECT03/AUCTION-CONTRACT/abc.sol\":1589:1617  bids[msg.sender] = msg.value */\n      dup2\n      swap1\n      sstore\n      pop\n        /* \"KAMIL SIR/PROJECT03/AUCTION-CONTRACT/abc.sol\":1119:1625  function placeBid() public payable {... */\n      jump\t// out\n        /* \"KAMIL SIR/PROJECT03/AUCTION-CONTRACT/abc.sol\":1958:2216  function endAuction() public {... */\n    tag_47:\n        /* \"KAMIL SIR/PROJECT03/AUCTION-CONTRACT/abc.sol\":2024:2031  endTime */\n      sload(0x03)\n        /* \"KAMIL SIR/PROJECT03/AUCTION-CONTRACT/abc.sol\":2006:2021  block.timestamp */\n      timestamp\n        /* \"KAMIL SIR/PROJECT03/AUCTION-CONTRACT/abc.sol\":2006:2031  block.timestamp > endTime */\n      gt\n        /* \"KAMIL SIR/PROJECT03/AUCTION-CONTRACT/abc.sol\":1998:2060  require(block.timestamp > endTime, \"Auction is still running\") */\n      tag_65\n      jumpi\n      mload(0x40)\n      0x08c379a000000000000000000000000000000000000000000000000000000000\n      dup2\n      mstore\n      0x04\n      add\n      tag_66\n      swap1\n      tag_67\n      jump\t// in\n    tag_66:\n      mload(0x40)\n      dup1\n      swap2\n      sub\n      swap1\n      revert\n    tag_65:\n        /* \"KAMIL SIR/PROJECT03/AUCTION-CONTRACT/abc.sol\":2093:2103  auctioneer */\n      0x00\n      dup1\n      sload\n      swap1\n      0x0100\n      exp\n      swap1\n      div\n      0xffffffffffffffffffffffffffffffffffffffff\n      and\n        /* \"KAMIL SIR/PROJECT03/AUCTION-CONTRACT/abc.sol\":2079:2103  msg.sender == auctioneer */\n      0xffffffffffffffffffffffffffffffffffffffff\n      and\n        /* \"KAMIL SIR/PROJECT03/AUCTION-CONTRACT/abc.sol\":2079:2089  msg.sender */\n      caller\n        /* \"KAMIL SIR/PROJECT03/AUCTION-CONTRACT/abc.sol\":2079:2103  msg.sender == auctioneer */\n      0xffffffffffffffffffffffffffffffffffffffff\n      and\n      eq\n        /* \"KAMIL SIR/PROJECT03/AUCTION-CONTRACT/abc.sol\":2071:2147  require(msg.sender == auctioneer, \"Only the auctioneer can end the auction\") */\n      tag_68\n      jumpi\n      mload(0x40)\n      0x08c379a000000000000000000000000000000000000000000000000000000000\n      dup2\n      mstore\n      0x04\n      add\n      tag_69\n      swap1\n      tag_70\n      jump\t// in\n    tag_69:\n      mload(0x40)\n      dup1\n      swap2\n      sub\n      swap1\n      revert\n    tag_68:\n        /* \"KAMIL SIR/PROJECT03/AUCTION-CONTRACT/abc.sol\":2176:2186  auctioneer */\n      0x00\n      dup1\n      sload\n      swap1\n      0x0100\n      exp\n      swap1\n      div\n      0xffffffffffffffffffffffffffffffffffffffff\n      and\n        /* \"KAMIL SIR/PROJECT03/AUCTION-CONTRACT/abc.sol\":2168:2196  payable(auctioneer).transfer */\n      0xffffffffffffffffffffffffffffffffffffffff\n      and\n        /* \"KAMIL SIR/PROJECT03/AUCTION-CONTRACT/abc.sol\":2168:2208  payable(auctioneer).transfer(highestBid) */\n      0x08fc\n        /* \"KAMIL SIR/PROJECT03/AUCTION-CONTRACT/abc.sol\":2197:2207  highestBid */\n      sload(0x04)\n        /* \"KAMIL SIR/PROJECT03/AUCTION-CONTRACT/abc.sol\":2168:2208  payable(auctioneer).transfer(highestBid) */\n      swap1\n      dup2\n      iszero\n      mul\n      swap1\n      mload(0x40)\n      0x00\n      mload(0x40)\n      dup1\n      dup4\n      sub\n      dup2\n      dup6\n      dup9\n      dup9\n      call\n      swap4\n      pop\n      pop\n      pop\n      pop\n      iszero\n      dup1\n      iszero\n      tag_72\n      jumpi\n      returndatasize\n      0x00\n      dup1\n      returndatacopy\n      revert(0x00, returndatasize)\n    tag_72:\n      pop\n        /* \"KAMIL SIR/PROJECT03/AUCTION-CONTRACT/abc.sol\":1958:2216  function endAuction() public {... */\n      jump\t// out\n        /* \"#utility.yul\":7:84   */\n    tag_73:\n        /* \"#utility.yul\":44:51   */\n      0x00\n        /* \"#utility.yul\":73:78   */\n      dup2\n        /* \"#utility.yul\":62:78   */\n      swap1\n      pop\n        /* \"#utility.yul\":7:84   */\n      swap2\n      swap1\n      pop\n      jump\t// out\n        /* \"#utility.yul\":90:208   */\n    tag_74:\n        /* \"#utility.yul\":177:201   */\n      tag_97\n        /* \"#utility.yul\":195:200   */\n      dup2\n        /* \"#utility.yul\":177:201   */\n      tag_73\n      jump\t// in\n    tag_97:\n        /* \"#utility.yul\":172:175   */\n      dup3\n        /* \"#utility.yul\":165:202   */\n      mstore\n        /* \"#utility.yul\":90:208   */\n      pop\n      pop\n      jump\t// out\n        /* \"#utility.yul\":214:436   */\n    tag_16:\n        /* \"#utility.yul\":307:311   */\n      0x00\n        /* \"#utility.yul\":345:347   */\n      0x20\n        /* \"#utility.yul\":334:343   */\n      dup3\n        /* \"#utility.yul\":330:348   */\n      add\n        /* \"#utility.yul\":322:348   */\n      swap1\n      pop\n        /* \"#utility.yul\":358:429   */\n      tag_99\n        /* \"#utility.yul\":426:427   */\n      0x00\n        /* \"#utility.yul\":415:424   */\n      dup4\n        /* \"#utility.yul\":411:428   */\n      add\n        /* \"#utility.yul\":402:408   */\n      dup5\n        /* \"#utility.yul\":358:429   */\n      tag_74\n      jump\t// in\n    tag_99:\n        /* \"#utility.yul\":214:436   */\n      swap3\n      swap2\n      pop\n      pop\n      jump\t// out\n        /* \"#utility.yul\":442:568   */\n    tag_75:\n        /* \"#utility.yul\":479:486   */\n      0x00\n        /* \"#utility.yul\":519:561   */\n      0xffffffffffffffffffffffffffffffffffffffff\n        /* \"#utility.yul\":512:517   */\n      dup3\n        /* \"#utility.yul\":508:562   */\n      and\n        /* \"#utility.yul\":497:562   */\n      swap1\n      pop\n        /* \"#utility.yul\":442:568   */\n      swap2\n      swap1\n      pop\n      jump\t// out\n        /* \"#utility.yul\":574:670   */\n    tag_76:\n        /* \"#utility.yul\":611:618   */\n      0x00\n        /* \"#utility.yul\":640:664   */\n      tag_102\n        /* \"#utility.yul\":658:663   */\n      dup3\n        /* \"#utility.yul\":640:664   */\n      tag_75\n      jump\t// in\n    tag_102:\n        /* \"#utility.yul\":629:664   */\n      swap1\n      pop\n        /* \"#utility.yul\":574:670   */\n      swap2\n      swap1\n      pop\n      jump\t// out\n        /* \"#utility.yul\":676:794   */\n    tag_77:\n        /* \"#utility.yul\":763:787   */\n      tag_104\n        /* \"#utility.yul\":781:786   */\n      dup2\n        /* \"#utility.yul\":763:787   */\n      tag_76\n      jump\t// in\n    tag_104:\n        /* \"#utility.yul\":758:761   */\n      dup3\n        /* \"#utility.yul\":751:788   */\n      mstore\n        /* \"#utility.yul\":676:794   */\n      pop\n      pop\n      jump\t// out\n        /* \"#utility.yul\":800:1022   */\n    tag_24:\n        /* \"#utility.yul\":893:897   */\n      0x00\n        /* \"#utility.yul\":931:933   */\n      0x20\n        /* \"#utility.yul\":920:929   */\n      dup3\n        /* \"#utility.yul\":916:934   */\n      add\n        /* \"#utility.yul\":908:934   */\n      swap1\n      pop\n        /* \"#utility.yul\":944:1015   */\n      tag_106\n        /* \"#utility.yul\":1012:1013   */\n      0x00\n        /* \"#utility.yul\":1001:1010   */\n      dup4\n        /* \"#utility.yul\":997:1014   */\n      add\n        /* \"#utility.yul\":988:994   */\n      dup5\n        /* \"#utility.yul\":944:1015   */\n      tag_77\n      jump\t// in\n    tag_106:\n        /* \"#utility.yul\":800:1022   */\n      swap3\n      swap2\n      pop\n      pop\n      jump\t// out\n        /* \"#utility.yul\":1109:1226   */\n    tag_79:\n        /* \"#utility.yul\":1218:1219   */\n      0x00\n        /* \"#utility.yul\":1215:1216   */\n      dup1\n        /* \"#utility.yul\":1208:1220   */\n      revert\n        /* \"#utility.yul\":1355:1477   */\n    tag_81:\n        /* \"#utility.yul\":1428:1452   */\n      tag_111\n        /* \"#utility.yul\":1446:1451   */\n      dup2\n        /* \"#utility.yul\":1428:1452   */\n      tag_76\n      jump\t// in\n    tag_111:\n        /* \"#utility.yul\":1421:1426   */\n      dup2\n        /* \"#utility.yul\":1418:1453   */\n      eq\n        /* \"#utility.yul\":1408:1471   */\n      tag_112\n      jumpi\n        /* \"#utility.yul\":1467:1468   */\n      0x00\n        /* \"#utility.yul\":1464:1465   */\n      dup1\n        /* \"#utility.yul\":1457:1469   */\n      revert\n        /* \"#utility.yul\":1408:1471   */\n    tag_112:\n        /* \"#utility.yul\":1355:1477   */\n      pop\n      jump\t// out\n        /* \"#utility.yul\":1483:1622   */\n    tag_82:\n        /* \"#utility.yul\":1529:1534   */\n      0x00\n        /* \"#utility.yul\":1567:1573   */\n      dup2\n        /* \"#utility.yul\":1554:1574   */\n      calldataload\n        /* \"#utility.yul\":1545:1574   */\n      swap1\n      pop\n        /* \"#utility.yul\":1583:1616   */\n      tag_114\n        /* \"#utility.yul\":1610:1615   */\n      dup2\n        /* \"#utility.yul\":1583:1616   */\n      tag_81\n      jump\t// in\n    tag_114:\n        /* \"#utility.yul\":1483:1622   */\n      swap3\n      swap2\n      pop\n      pop\n      jump\t// out\n        /* \"#utility.yul\":1628:1957   */\n    tag_28:\n        /* \"#utility.yul\":1687:1693   */\n      0x00\n        /* \"#utility.yul\":1736:1738   */\n      0x20\n        /* \"#utility.yul\":1724:1733   */\n      dup3\n        /* \"#utility.yul\":1715:1722   */\n      dup5\n        /* \"#utility.yul\":1711:1734   */\n      sub\n        /* \"#utility.yul\":1707:1739   */\n      slt\n        /* \"#utility.yul\":1704:1823   */\n      iszero\n      tag_116\n      jumpi\n        /* \"#utility.yul\":1742:1821   */\n      tag_117\n      tag_79\n      jump\t// in\n    tag_117:\n        /* \"#utility.yul\":1704:1823   */\n    tag_116:\n        /* \"#utility.yul\":1862:1863   */\n      0x00\n        /* \"#utility.yul\":1887:1940   */\n      tag_118\n        /* \"#utility.yul\":1932:1939   */\n      dup5\n        /* \"#utility.yul\":1923:1929   */\n      dup3\n        /* \"#utility.yul\":1912:1921   */\n      dup6\n        /* \"#utility.yul\":1908:1930   */\n      add\n        /* \"#utility.yul\":1887:1940   */\n      tag_82\n      jump\t// in\n    tag_118:\n        /* \"#utility.yul\":1877:1940   */\n      swap2\n      pop\n        /* \"#utility.yul\":1833:1950   */\n      pop\n        /* \"#utility.yul\":1628:1957   */\n      swap3\n      swap2\n      pop\n      pop\n      jump\t// out\n        /* \"#utility.yul\":1963:2132   */\n    tag_83:\n        /* \"#utility.yul\":2047:2058   */\n      0x00\n        /* \"#utility.yul\":2081:2087   */\n      dup3\n        /* \"#utility.yul\":2076:2079   */\n      dup3\n        /* \"#utility.yul\":2069:2088   */\n      mstore\n        /* \"#utility.yul\":2121:2125   */\n      0x20\n        /* \"#utility.yul\":2116:2119   */\n      dup3\n        /* \"#utility.yul\":2112:2126   */\n      add\n        /* \"#utility.yul\":2097:2126   */\n      swap1\n      pop\n        /* \"#utility.yul\":1963:2132   */\n      swap3\n      swap2\n      pop\n      pop\n      jump\t// out\n        /* \"#utility.yul\":2138:2307   */\n    tag_84:\n        /* \"#utility.yul\":2278:2299   */\n      0x41756374696f6e20686173207374617274656400000000000000000000000000\n        /* \"#utility.yul\":2274:2275   */\n      0x00\n        /* \"#utility.yul\":2266:2272   */\n      dup3\n        /* \"#utility.yul\":2262:2276   */\n      add\n        /* \"#utility.yul\":2255:2300   */\n      mstore\n        /* \"#utility.yul\":2138:2307   */\n      pop\n      jump\t// out\n        /* \"#utility.yul\":2313:2679   */\n    tag_85:\n        /* \"#utility.yul\":2455:2458   */\n      0x00\n        /* \"#utility.yul\":2476:2543   */\n      tag_122\n        /* \"#utility.yul\":2540:2542   */\n      0x13\n        /* \"#utility.yul\":2535:2538   */\n      dup4\n        /* \"#utility.yul\":2476:2543   */\n      tag_83\n      jump\t// in\n    tag_122:\n        /* \"#utility.yul\":2469:2543   */\n      swap2\n      pop\n        /* \"#utility.yul\":2552:2645   */\n      tag_123\n        /* \"#utility.yul\":2641:2644   */\n      dup3\n        /* \"#utility.yul\":2552:2645   */\n      tag_84\n      jump\t// in\n    tag_123:\n        /* \"#utility.yul\":2670:2672   */\n      0x20\n        /* \"#utility.yul\":2665:2668   */\n      dup3\n        /* \"#utility.yul\":2661:2673   */\n      add\n        /* \"#utility.yul\":2654:2673   */\n      swap1\n      pop\n        /* \"#utility.yul\":2313:2679   */\n      swap2\n      swap1\n      pop\n      jump\t// out\n        /* \"#utility.yul\":2685:3104   */\n    tag_51:\n        /* \"#utility.yul\":2851:2855   */\n      0x00\n        /* \"#utility.yul\":2889:2891   */\n      0x20\n        /* \"#utility.yul\":2878:2887   */\n      dup3\n        /* \"#utility.yul\":2874:2892   */\n      add\n        /* \"#utility.yul\":2866:2892   */\n      swap1\n      pop\n        /* \"#utility.yul\":2938:2947   */\n      dup2\n        /* \"#utility.yul\":2932:2936   */\n      dup2\n        /* \"#utility.yul\":2928:2948   */\n      sub\n        /* \"#utility.yul\":2924:2925   */\n      0x00\n        /* \"#utility.yul\":2913:2922   */\n      dup4\n        /* \"#utility.yul\":2909:2926   */\n      add\n        /* \"#utility.yul\":2902:2949   */\n      mstore\n        /* \"#utility.yul\":2966:3097   */\n      tag_125\n        /* \"#utility.yul\":3092:3096   */\n      dup2\n        /* \"#utility.yul\":2966:3097   */\n      tag_85\n      jump\t// in\n    tag_125:\n        /* \"#utility.yul\":2958:3097   */\n      swap1\n      pop\n        /* \"#utility.yul\":2685:3104   */\n      swap2\n      swap1\n      pop\n      jump\t// out\n        /* \"#utility.yul\":3110:3286   */\n    tag_86:\n        /* \"#utility.yul\":3250:3278   */\n      0x596f752061726520746865206869676865737420626964646572000000000000\n        /* \"#utility.yul\":3246:3247   */\n      0x00\n        /* \"#utility.yul\":3238:3244   */\n      dup3\n        /* \"#utility.yul\":3234:3248   */\n      add\n        /* \"#utility.yul\":3227:3279   */\n      mstore\n        /* \"#utility.yul\":3110:3286   */\n      pop\n      jump\t// out\n        /* \"#utility.yul\":3292:3658   */\n    tag_87:\n        /* \"#utility.yul\":3434:3437   */\n      0x00\n        /* \"#utility.yul\":3455:3522   */\n      tag_128\n        /* \"#utility.yul\":3519:3521   */\n      0x1a\n        /* \"#utility.yul\":3514:3517   */\n      dup4\n        /* \"#utility.yul\":3455:3522   */\n      tag_83\n      jump\t// in\n    tag_128:\n        /* \"#utility.yul\":3448:3522   */\n      swap2\n      pop\n        /* \"#utility.yul\":3531:3624   */\n      tag_129\n        /* \"#utility.yul\":3620:3623   */\n      dup3\n        /* \"#utility.yul\":3531:3624   */\n      tag_86\n      jump\t// in\n    tag_129:\n        /* \"#utility.yul\":3649:3651   */\n      0x20\n        /* \"#utility.yul\":3644:3647   */\n      dup3\n        /* \"#utility.yul\":3640:3652   */\n      add\n        /* \"#utility.yul\":3633:3652   */\n      swap1\n      pop\n        /* \"#utility.yul\":3292:3658   */\n      swap2\n      swap1\n      pop\n      jump\t// out\n        /* \"#utility.yul\":3664:4083   */\n    tag_54:\n        /* \"#utility.yul\":3830:3834   */\n      0x00\n        /* \"#utility.yul\":3868:3870   */\n      0x20\n        /* \"#utility.yul\":3857:3866   */\n      dup3\n        /* \"#utility.yul\":3853:3871   */\n      add\n        /* \"#utility.yul\":3845:3871   */\n      swap1\n      pop\n        /* \"#utility.yul\":3917:3926   */\n      dup2\n        /* \"#utility.yul\":3911:3915   */\n      dup2\n        /* \"#utility.yul\":3907:3927   */\n      sub\n        /* \"#utility.yul\":3903:3904   */\n      0x00\n        /* \"#utility.yul\":3892:3901   */\n      dup4\n        /* \"#utility.yul\":3888:3905   */\n      add\n        /* \"#utility.yul\":3881:3928   */\n      mstore\n        /* \"#utility.yul\":3945:4076   */\n      tag_131\n        /* \"#utility.yul\":4071:4075   */\n      dup2\n        /* \"#utility.yul\":3945:4076   */\n      tag_87\n      jump\t// in\n    tag_131:\n        /* \"#utility.yul\":3937:4076   */\n      swap1\n      pop\n        /* \"#utility.yul\":3664:4083   */\n      swap2\n      swap1\n      pop\n      jump\t// out\n        /* \"#utility.yul\":4089:4260   */\n    tag_88:\n        /* \"#utility.yul\":4229:4252   */\n      0x42696420616d6f756e7420697320746f6f206c6f770000000000000000000000\n        /* \"#utility.yul\":4225:4226   */\n      0x00\n        /* \"#utility.yul\":4217:4223   */\n      dup3\n        /* \"#utility.yul\":4213:4227   */\n      add\n        /* \"#utility.yul\":4206:4253   */\n      mstore\n        /* \"#utility.yul\":4089:4260   */\n      pop\n      jump\t// out\n        /* \"#utility.yul\":4266:4632   */\n    tag_89:\n        /* \"#utility.yul\":4408:4411   */\n      0x00\n        /* \"#utility.yul\":4429:4496   */\n      tag_134\n        /* \"#utility.yul\":4493:4495   */\n      0x15\n        /* \"#utility.yul\":4488:4491   */\n      dup4\n        /* \"#utility.yul\":4429:4496   */\n      tag_83\n      jump\t// in\n    tag_134:\n        /* \"#utility.yul\":4422:4496   */\n      swap2\n      pop\n        /* \"#utility.yul\":4505:4598   */\n      tag_135\n        /* \"#utility.yul\":4594:4597   */\n      dup3\n        /* \"#utility.yul\":4505:4598   */\n      tag_88\n      jump\t// in\n    tag_135:\n        /* \"#utility.yul\":4623:4625   */\n      0x20\n        /* \"#utility.yul\":4618:4621   */\n      dup3\n        /* \"#utility.yul\":4614:4626   */\n      add\n        /* \"#utility.yul\":4607:4626   */\n      swap1\n      pop\n        /* \"#utility.yul\":4266:4632   */\n      swap2\n      swap1\n      pop\n      jump\t// out\n        /* \"#utility.yul\":4638:5057   */\n    tag_60:\n        /* \"#utility.yul\":4804:4808   */\n      0x00\n        /* \"#utility.yul\":4842:4844   */\n      0x20\n        /* \"#utility.yul\":4831:4840   */\n      dup3\n        /* \"#utility.yul\":4827:4845   */\n      add\n        /* \"#utility.yul\":4819:4845   */\n      swap1\n      pop\n        /* \"#utility.yul\":4891:4900   */\n      dup2\n        /* \"#utility.yul\":4885:4889   */\n      dup2\n        /* \"#utility.yul\":4881:4901   */\n      sub\n        /* \"#utility.yul\":4877:4878   */\n      0x00\n        /* \"#utility.yul\":4866:4875   */\n      dup4\n        /* \"#utility.yul\":4862:4879   */\n      add\n        /* \"#utility.yul\":4855:4902   */\n      mstore\n        /* \"#utility.yul\":4919:5050   */\n      tag_137\n        /* \"#utility.yul\":5045:5049   */\n      dup2\n        /* \"#utility.yul\":4919:5050   */\n      tag_89\n      jump\t// in\n    tag_137:\n        /* \"#utility.yul\":4911:5050   */\n      swap1\n      pop\n        /* \"#utility.yul\":4638:5057   */\n      swap2\n      swap1\n      pop\n      jump\t// out\n        /* \"#utility.yul\":5063:5237   */\n    tag_90:\n        /* \"#utility.yul\":5203:5229   */\n      0x41756374696f6e206973207374696c6c2072756e6e696e670000000000000000\n        /* \"#utility.yul\":5199:5200   */\n      0x00\n        /* \"#utility.yul\":5191:5197   */\n      dup3\n        /* \"#utility.yul\":5187:5201   */\n      add\n        /* \"#utility.yul\":5180:5230   */\n      mstore\n        /* \"#utility.yul\":5063:5237   */\n      pop\n      jump\t// out\n        /* \"#utility.yul\":5243:5609   */\n    tag_91:\n        /* \"#utility.yul\":5385:5388   */\n      0x00\n        /* \"#utility.yul\":5406:5473   */\n      tag_140\n        /* \"#utility.yul\":5470:5472   */\n      0x18\n        /* \"#utility.yul\":5465:5468   */\n      dup4\n        /* \"#utility.yul\":5406:5473   */\n      tag_83\n      jump\t// in\n    tag_140:\n        /* \"#utility.yul\":5399:5473   */\n      swap2\n      pop\n        /* \"#utility.yul\":5482:5575   */\n      tag_141\n        /* \"#utility.yul\":5571:5574   */\n      dup3\n        /* \"#utility.yul\":5482:5575   */\n      tag_90\n      jump\t// in\n    tag_141:\n        /* \"#utility.yul\":5600:5602   */\n      0x20\n        /* \"#utility.yul\":5595:5598   */\n      dup3\n        /* \"#utility.yul\":5591:5603   */\n      add\n        /* \"#utility.yul\":5584:5603   */\n      swap1\n      pop\n        /* \"#utility.yul\":5243:5609   */\n      swap2\n      swap1\n      pop\n      jump\t// out\n        /* \"#utility.yul\":5615:6034   */\n    tag_67:\n        /* \"#utility.yul\":5781:5785   */\n      0x00\n        /* \"#utility.yul\":5819:5821   */\n      0x20\n        /* \"#utility.yul\":5808:5817   */\n      dup3\n        /* \"#utility.yul\":5804:5822   */\n      add\n        /* \"#utility.yul\":5796:5822   */\n      swap1\n      pop\n        /* \"#utility.yul\":5868:5877   */\n      dup2\n        /* \"#utility.yul\":5862:5866   */\n      dup2\n        /* \"#utility.yul\":5858:5878   */\n      sub\n        /* \"#utility.yul\":5854:5855   */\n      0x00\n        /* \"#utility.yul\":5843:5852   */\n      dup4\n        /* \"#utility.yul\":5839:5856   */\n      add\n        /* \"#utility.yul\":5832:5879   */\n      mstore\n        /* \"#utility.yul\":5896:6027   */\n      tag_143\n        /* \"#utility.yul\":6022:6026   */\n      dup2\n        /* \"#utility.yul\":5896:6027   */\n      tag_91\n      jump\t// in\n    tag_143:\n        /* \"#utility.yul\":5888:6027   */\n      swap1\n      pop\n        /* \"#utility.yul\":5615:6034   */\n      swap2\n      swap1\n      pop\n      jump\t// out\n        /* \"#utility.yul\":6040:6266   */\n    tag_92:\n        /* \"#utility.yul\":6180:6214   */\n      0x4f6e6c79207468652061756374696f6e6565722063616e20656e642074686520\n        /* \"#utility.yul\":6176:6177   */\n      0x00\n        /* \"#utility.yul\":6168:6174   */\n      dup3\n        /* \"#utility.yul\":6164:6178   */\n      add\n        /* \"#utility.yul\":6157:6215   */\n      mstore\n        /* \"#utility.yul\":6249:6258   */\n      0x61756374696f6e00000000000000000000000000000000000000000000000000\n        /* \"#utility.yul\":6244:6246   */\n      0x20\n        /* \"#utility.yul\":6236:6242   */\n      dup3\n        /* \"#utility.yul\":6232:6247   */\n      add\n        /* \"#utility.yul\":6225:6259   */\n      mstore\n        /* \"#utility.yul\":6040:6266   */\n      pop\n      jump\t// out\n        /* \"#utility.yul\":6272:6638   */\n    tag_93:\n        /* \"#utility.yul\":6414:6417   */\n      0x00\n        /* \"#utility.yul\":6435:6502   */\n      tag_146\n        /* \"#utility.yul\":6499:6501   */\n      0x27\n        /* \"#utility.yul\":6494:6497   */\n      dup4\n        /* \"#utility.yul\":6435:6502   */\n      tag_83\n      jump\t// in\n    tag_146:\n        /* \"#utility.yul\":6428:6502   */\n      swap2\n      pop\n        /* \"#utility.yul\":6511:6604   */\n      tag_147\n        /* \"#utility.yul\":6600:6603   */\n      dup3\n        /* \"#utility.yul\":6511:6604   */\n      tag_92\n      jump\t// in\n    tag_147:\n        /* \"#utility.yul\":6629:6631   */\n      0x40\n        /* \"#utility.yul\":6624:6627   */\n      dup3\n        /* \"#utility.yul\":6620:6632   */\n      add\n        /* \"#utility.yul\":6613:6632   */\n      swap1\n      pop\n        /* \"#utility.yul\":6272:6638   */\n      swap2\n      swap1\n      pop\n      jump\t// out\n        /* \"#utility.yul\":6644:7063   */\n    tag_70:\n        /* \"#utility.yul\":6810:6814   */\n      0x00\n        /* \"#utility.yul\":6848:6850   */\n      0x20\n        /* \"#utility.yul\":6837:6846   */\n      dup3\n        /* \"#utility.yul\":6833:6851   */\n      add\n        /* \"#utility.yul\":6825:6851   */\n      swap1\n      pop\n        /* \"#utility.yul\":6897:6906   */\n      dup2\n        /* \"#utility.yul\":6891:6895   */\n      dup2\n        /* \"#utility.yul\":6887:6907   */\n      sub\n        /* \"#utility.yul\":6883:6884   */\n      0x00\n        /* \"#utility.yul\":6872:6881   */\n      dup4\n        /* \"#utility.yul\":6868:6885   */\n      add\n        /* \"#utility.yul\":6861:6908   */\n      mstore\n        /* \"#utility.yul\":6925:7056   */\n      tag_149\n        /* \"#utility.yul\":7051:7055   */\n      dup2\n        /* \"#utility.yul\":6925:7056   */\n      tag_93\n      jump\t// in\n    tag_149:\n        /* \"#utility.yul\":6917:7056   */\n      swap1\n      pop\n        /* \"#utility.yul\":6644:7063   */\n      swap2\n      swap1\n      pop\n      jump\t// out\n\n    auxdata: 0xa26469706673582212201874b9babdfc0baa613344c94d1777957abdbfee78b36878bbfb398daac7e60664736f6c63430008110033\n}\n",
				"bytecode": {
					"linkReferences": {},
					"object": "608060405234801561001057600080fd5b50604051610b4b380380610b4b833981810160405281019061003291906100c2565b336000806101000a81548173ffffffffffffffffffffffffffffffffffffffff021916908373ffffffffffffffffffffffffffffffffffffffff16021790555081600281905550806003819055505050610102565b600080fd5b6000819050919050565b61009f8161008c565b81146100aa57600080fd5b50565b6000815190506100bc81610096565b92915050565b600080604083850312156100d9576100d8610087565b5b60006100e7858286016100ad565b92505060206100f8858286016100ad565b9150509250929050565b610a3a806101116000396000f3fe6080604052600436106100865760003560e01c806378e979251161005957806378e979251461013557806391f9015714610160578063d57bde791461018b578063ecfc7ecc146101b6578063fe67a54b146101c057610086565b80633197cbb61461008b57806337271cc7146100b65780635ec2c7bf146100cd57806362ea82db146100f8575b600080fd5b34801561009757600080fd5b506100a06101d7565b6040516100ad91906106dc565b60405180910390f35b3480156100c257600080fd5b506100cb6101dd565b005b3480156100d957600080fd5b506100e2610384565b6040516100ef9190610738565b60405180910390f35b34801561010457600080fd5b5061011f600480360381019061011a9190610784565b6103a8565b60405161012c91906106dc565b60405180910390f35b34801561014157600080fd5b5061014a6103c0565b60405161015791906106dc565b60405180910390f35b34801561016c57600080fd5b506101756103c6565b6040516101829190610738565b60405180910390f35b34801561019757600080fd5b506101a06103ec565b6040516101ad91906106dc565b60405180910390f35b6101be6103f2565b005b3480156101cc57600080fd5b506101d5610586565b005b60035481565b6002544210610221576040517f08c379a00000000000000000000000000000000000000000000000000000000081526004016102189061080e565b60405180910390fd5b600560009054906101000a900473ffffffffffffffffffffffffffffffffffffffff1673ffffffffffffffffffffffffffffffffffffffff163373ffffffffffffffffffffffffffffffffffffffff16036102b1576040517f08c379a00000000000000000000000000000000000000000000000000000000081526004016102a89061087a565b60405180910390fd5b6000600160003373ffffffffffffffffffffffffffffffffffffffff1673ffffffffffffffffffffffffffffffffffffffff1681526020019081526020016000205490506000600160003373ffffffffffffffffffffffffffffffffffffffff1673ffffffffffffffffffffffffffffffffffffffff168152602001908152602001600020819055503373ffffffffffffffffffffffffffffffffffffffff166108fc829081150290604051600060405180830381858888f19350505050158015610380573d6000803e3d6000fd5b5050565b60008054906101000a900473ffffffffffffffffffffffffffffffffffffffff1681565b60016020528060005260406000206000915090505481565b60025481565b600560009054906101000a900473ffffffffffffffffffffffffffffffffffffffff1681565b60045481565b6004543411610436576040517f08c379a000000000000000000000000000000000000000000000000000000000815260040161042d906108e6565b60405180910390fd5b600073ffffffffffffffffffffffffffffffffffffffff16600560009054906101000a900473ffffffffffffffffffffffffffffffffffffffff1673ffffffffffffffffffffffffffffffffffffffff16146104f857600560009054906101000a900473ffffffffffffffffffffffffffffffffffffffff1673ffffffffffffffffffffffffffffffffffffffff166108fc6004549081150290604051600060405180830381858888f193505050501580156104f6573d6000803e3d6000fd5b505b3460048190555033600560006101000a81548173ffffffffffffffffffffffffffffffffffffffff021916908373ffffffffffffffffffffffffffffffffffffffff16021790555034600160003373ffffffffffffffffffffffffffffffffffffffff1673ffffffffffffffffffffffffffffffffffffffff16815260200190815260200160002081905550565b60035442116105ca576040517f08c379a00000000000000000000000000000000000000000000000000000000081526004016105c190610952565b60405180910390fd5b60008054906101000a900473ffffffffffffffffffffffffffffffffffffffff1673ffffffffffffffffffffffffffffffffffffffff163373ffffffffffffffffffffffffffffffffffffffff1614610658576040517f08c379a000000000000000000000000000000000000000000000000000000000815260040161064f906109e4565b60405180910390fd5b60008054906101000a900473ffffffffffffffffffffffffffffffffffffffff1673ffffffffffffffffffffffffffffffffffffffff166108fc6004549081150290604051600060405180830381858888f193505050501580156106c0573d6000803e3d6000fd5b50565b6000819050919050565b6106d6816106c3565b82525050565b60006020820190506106f160008301846106cd565b92915050565b600073ffffffffffffffffffffffffffffffffffffffff82169050919050565b6000610722826106f7565b9050919050565b61073281610717565b82525050565b600060208201905061074d6000830184610729565b92915050565b600080fd5b61076181610717565b811461076c57600080fd5b50565b60008135905061077e81610758565b92915050565b60006020828403121561079a57610799610753565b5b60006107a88482850161076f565b91505092915050565b600082825260208201905092915050565b7f41756374696f6e20686173207374617274656400000000000000000000000000600082015250565b60006107f86013836107b1565b9150610803826107c2565b602082019050919050565b60006020820190508181036000830152610827816107eb565b9050919050565b7f596f752061726520746865206869676865737420626964646572000000000000600082015250565b6000610864601a836107b1565b915061086f8261082e565b602082019050919050565b6000602082019050818103600083015261089381610857565b9050919050565b7f42696420616d6f756e7420697320746f6f206c6f770000000000000000000000600082015250565b60006108d06015836107b1565b91506108db8261089a565b602082019050919050565b600060208201905081810360008301526108ff816108c3565b9050919050565b7f41756374696f6e206973207374696c6c2072756e6e696e670000000000000000600082015250565b600061093c6018836107b1565b915061094782610906565b602082019050919050565b6000602082019050818103600083015261096b8161092f565b9050919050565b7f4f6e6c79207468652061756374696f6e6565722063616e20656e64207468652060008201527f61756374696f6e00000000000000000000000000000000000000000000000000602082015250565b60006109ce6027836107b1565b91506109d982610972565b604082019050919050565b600060208201905081810360008301526109fd816109c1565b905091905056fea26469706673582212201874b9babdfc0baa613344c94d1777957abdbfee78b36878bbfb398daac7e60664736f6c63430008110033",
					"opcodes": "PUSH1 0x80 PUSH1 0x40 MSTORE CALLVALUE DUP1 ISZERO PUSH2 0x10 JUMPI PUSH1 0x0 DUP1 REVERT JUMPDEST POP PUSH1 0x40 MLOAD PUSH2 0xB4B CODESIZE SUB DUP1 PUSH2 0xB4B DUP4 CODECOPY DUP2 DUP2 ADD PUSH1 0x40 MSTORE DUP2 ADD SWAP1 PUSH2 0x32 SWAP2 SWAP1 PUSH2 0xC2 JUMP JUMPDEST CALLER PUSH1 0x0 DUP1 PUSH2 0x100 EXP DUP2 SLOAD DUP2 PUSH20 0xFFFFFFFFFFFFFFFFFFFFFFFFFFFFFFFFFFFFFFFF MUL NOT AND SWAP1 DUP4 PUSH20 0xFFFFFFFFFFFFFFFFFFFFFFFFFFFFFFFFFFFFFFFF AND MUL OR SWAP1 SSTORE POP DUP2 PUSH1 0x2 DUP2 SWAP1 SSTORE POP DUP1 PUSH1 0x3 DUP2 SWAP1 SSTORE POP POP POP PUSH2 0x102 JUMP JUMPDEST PUSH1 0x0 DUP1 REVERT JUMPDEST PUSH1 0x0 DUP2 SWAP1 POP SWAP2 SWAP1 POP JUMP JUMPDEST PUSH2 0x9F DUP2 PUSH2 0x8C JUMP JUMPDEST DUP2 EQ PUSH2 0xAA JUMPI PUSH1 0x0 DUP1 REVERT JUMPDEST POP JUMP JUMPDEST PUSH1 0x0 DUP2 MLOAD SWAP1 POP PUSH2 0xBC DUP2 PUSH2 0x96 JUMP JUMPDEST SWAP3 SWAP2 POP POP JUMP JUMPDEST PUSH1 0x0 DUP1 PUSH1 0x40 DUP4 DUP6 SUB SLT ISZERO PUSH2 0xD9 JUMPI PUSH2 0xD8 PUSH2 0x87 JUMP JUMPDEST JUMPDEST PUSH1 0x0 PUSH2 0xE7 DUP6 DUP3 DUP7 ADD PUSH2 0xAD JUMP JUMPDEST SWAP3 POP POP PUSH1 0x20 PUSH2 0xF8 DUP6 DUP3 DUP7 ADD PUSH2 0xAD JUMP JUMPDEST SWAP2 POP POP SWAP3 POP SWAP3 SWAP1 POP JUMP JUMPDEST PUSH2 0xA3A DUP1 PUSH2 0x111 PUSH1 0x0 CODECOPY PUSH1 0x0 RETURN INVALID PUSH1 0x80 PUSH1 0x40 MSTORE PUSH1 0x4 CALLDATASIZE LT PUSH2 0x86 JUMPI PUSH1 0x0 CALLDATALOAD PUSH1 0xE0 SHR DUP1 PUSH4 0x78E97925 GT PUSH2 0x59 JUMPI DUP1 PUSH4 0x78E97925 EQ PUSH2 0x135 JUMPI DUP1 PUSH4 0x91F90157 EQ PUSH2 0x160 JUMPI DUP1 PUSH4 0xD57BDE79 EQ PUSH2 0x18B JUMPI DUP1 PUSH4 0xECFC7ECC EQ PUSH2 0x1B6 JUMPI DUP1 PUSH4 0xFE67A54B EQ PUSH2 0x1C0 JUMPI PUSH2 0x86 JUMP JUMPDEST DUP1 PUSH4 0x3197CBB6 EQ PUSH2 0x8B JUMPI DUP1 PUSH4 0x37271CC7 EQ PUSH2 0xB6 JUMPI DUP1 PUSH4 0x5EC2C7BF EQ PUSH2 0xCD JUMPI DUP1 PUSH4 0x62EA82DB EQ PUSH2 0xF8 JUMPI JUMPDEST PUSH1 0x0 DUP1 REVERT JUMPDEST CALLVALUE DUP1 ISZERO PUSH2 0x97 JUMPI PUSH1 0x0 DUP1 REVERT JUMPDEST POP PUSH2 0xA0 PUSH2 0x1D7 JUMP JUMPDEST PUSH1 0x40 MLOAD PUSH2 0xAD SWAP2 SWAP1 PUSH2 0x6DC JUMP JUMPDEST PUSH1 0x40 MLOAD DUP1 SWAP2 SUB SWAP1 RETURN JUMPDEST CALLVALUE DUP1 ISZERO PUSH2 0xC2 JUMPI PUSH1 0x0 DUP1 REVERT JUMPDEST POP PUSH2 0xCB PUSH2 0x1DD JUMP JUMPDEST STOP JUMPDEST CALLVALUE DUP1 ISZERO PUSH2 0xD9 JUMPI PUSH1 0x0 DUP1 REVERT JUMPDEST POP PUSH2 0xE2 PUSH2 0x384 JUMP JUMPDEST PUSH1 0x40 MLOAD PUSH2 0xEF SWAP2 SWAP1 PUSH2 0x738 JUMP JUMPDEST PUSH1 0x40 MLOAD DUP1 SWAP2 SUB SWAP1 RETURN JUMPDEST CALLVALUE DUP1 ISZERO PUSH2 0x104 JUMPI PUSH1 0x0 DUP1 REVERT JUMPDEST POP PUSH2 0x11F PUSH1 0x4 DUP1 CALLDATASIZE SUB DUP2 ADD SWAP1 PUSH2 0x11A SWAP2 SWAP1 PUSH2 0x784 JUMP JUMPDEST PUSH2 0x3A8 JUMP JUMPDEST PUSH1 0x40 MLOAD PUSH2 0x12C SWAP2 SWAP1 PUSH2 0x6DC JUMP JUMPDEST PUSH1 0x40 MLOAD DUP1 SWAP2 SUB SWAP1 RETURN JUMPDEST CALLVALUE DUP1 ISZERO PUSH2 0x141 JUMPI PUSH1 0x0 DUP1 REVERT JUMPDEST POP PUSH2 0x14A PUSH2 0x3C0 JUMP JUMPDEST PUSH1 0x40 MLOAD PUSH2 0x157 SWAP2 SWAP1 PUSH2 0x6DC JUMP JUMPDEST PUSH1 0x40 MLOAD DUP1 SWAP2 SUB SWAP1 RETURN JUMPDEST CALLVALUE DUP1 ISZERO PUSH2 0x16C JUMPI PUSH1 0x0 DUP1 REVERT JUMPDEST POP PUSH2 0x175 PUSH2 0x3C6 JUMP JUMPDEST PUSH1 0x40 MLOAD PUSH2 0x182 SWAP2 SWAP1 PUSH2 0x738 JUMP JUMPDEST PUSH1 0x40 MLOAD DUP1 SWAP2 SUB SWAP1 RETURN JUMPDEST CALLVALUE DUP1 ISZERO PUSH2 0x197 JUMPI PUSH1 0x0 DUP1 REVERT JUMPDEST POP PUSH2 0x1A0 PUSH2 0x3EC JUMP JUMPDEST PUSH1 0x40 MLOAD PUSH2 0x1AD SWAP2 SWAP1 PUSH2 0x6DC JUMP JUMPDEST PUSH1 0x40 MLOAD DUP1 SWAP2 SUB SWAP1 RETURN JUMPDEST PUSH2 0x1BE PUSH2 0x3F2 JUMP JUMPDEST STOP JUMPDEST CALLVALUE DUP1 ISZERO PUSH2 0x1CC JUMPI PUSH1 0x0 DUP1 REVERT JUMPDEST POP PUSH2 0x1D5 PUSH2 0x586 JUMP JUMPDEST STOP JUMPDEST PUSH1 0x3 SLOAD DUP2 JUMP JUMPDEST PUSH1 0x2 SLOAD TIMESTAMP LT PUSH2 0x221 JUMPI PUSH1 0x40 MLOAD PUSH32 0x8C379A000000000000000000000000000000000000000000000000000000000 DUP2 MSTORE PUSH1 0x4 ADD PUSH2 0x218 SWAP1 PUSH2 0x80E JUMP JUMPDEST PUSH1 0x40 MLOAD DUP1 SWAP2 SUB SWAP1 REVERT JUMPDEST PUSH1 0x5 PUSH1 0x0 SWAP1 SLOAD SWAP1 PUSH2 0x100 EXP SWAP1 DIV PUSH20 0xFFFFFFFFFFFFFFFFFFFFFFFFFFFFFFFFFFFFFFFF AND PUSH20 0xFFFFFFFFFFFFFFFFFFFFFFFFFFFFFFFFFFFFFFFF AND CALLER PUSH20 0xFFFFFFFFFFFFFFFFFFFFFFFFFFFFFFFFFFFFFFFF AND SUB PUSH2 0x2B1 JUMPI PUSH1 0x40 MLOAD PUSH32 0x8C379A000000000000000000000000000000000000000000000000000000000 DUP2 MSTORE PUSH1 0x4 ADD PUSH2 0x2A8 SWAP1 PUSH2 0x87A JUMP JUMPDEST PUSH1 0x40 MLOAD DUP1 SWAP2 SUB SWAP1 REVERT JUMPDEST PUSH1 0x0 PUSH1 0x1 PUSH1 0x0 CALLER PUSH20 0xFFFFFFFFFFFFFFFFFFFFFFFFFFFFFFFFFFFFFFFF AND PUSH20 0xFFFFFFFFFFFFFFFFFFFFFFFFFFFFFFFFFFFFFFFF AND DUP2 MSTORE PUSH1 0x20 ADD SWAP1 DUP2 MSTORE PUSH1 0x20 ADD PUSH1 0x0 KECCAK256 SLOAD SWAP1 POP PUSH1 0x0 PUSH1 0x1 PUSH1 0x0 CALLER PUSH20 0xFFFFFFFFFFFFFFFFFFFFFFFFFFFFFFFFFFFFFFFF AND PUSH20 0xFFFFFFFFFFFFFFFFFFFFFFFFFFFFFFFFFFFFFFFF AND DUP2 MSTORE PUSH1 0x20 ADD SWAP1 DUP2 MSTORE PUSH1 0x20 ADD PUSH1 0x0 KECCAK256 DUP2 SWAP1 SSTORE POP CALLER PUSH20 0xFFFFFFFFFFFFFFFFFFFFFFFFFFFFFFFFFFFFFFFF AND PUSH2 0x8FC DUP3 SWAP1 DUP2 ISZERO MUL SWAP1 PUSH1 0x40 MLOAD PUSH1 0x0 PUSH1 0x40 MLOAD DUP1 DUP4 SUB DUP2 DUP6 DUP9 DUP9 CALL SWAP4 POP POP POP POP ISZERO DUP1 ISZERO PUSH2 0x380 JUMPI RETURNDATASIZE PUSH1 0x0 DUP1 RETURNDATACOPY RETURNDATASIZE PUSH1 0x0 REVERT JUMPDEST POP POP JUMP JUMPDEST PUSH1 0x0 DUP1 SLOAD SWAP1 PUSH2 0x100 EXP SWAP1 DIV PUSH20 0xFFFFFFFFFFFFFFFFFFFFFFFFFFFFFFFFFFFFFFFF AND DUP2 JUMP JUMPDEST PUSH1 0x1 PUSH1 0x20 MSTORE DUP1 PUSH1 0x0 MSTORE PUSH1 0x40 PUSH1 0x0 KECCAK256 PUSH1 0x0 SWAP2 POP SWAP1 POP SLOAD DUP2 JUMP JUMPDEST PUSH1 0x2 SLOAD DUP2 JUMP JUMPDEST PUSH1 0x5 PUSH1 0x0 SWAP1 SLOAD SWAP1 PUSH2 0x100 EXP SWAP1 DIV PUSH20 0xFFFFFFFFFFFFFFFFFFFFFFFFFFFFFFFFFFFFFFFF AND DUP2 JUMP JUMPDEST PUSH1 0x4 SLOAD DUP2 JUMP JUMPDEST PUSH1 0x4 SLOAD CALLVALUE GT PUSH2 0x436 JUMPI PUSH1 0x40 MLOAD PUSH32 0x8C379A000000000000000000000000000000000000000000000000000000000 DUP2 MSTORE PUSH1 0x4 ADD PUSH2 0x42D SWAP1 PUSH2 0x8E6 JUMP JUMPDEST PUSH1 0x40 MLOAD DUP1 SWAP2 SUB SWAP1 REVERT JUMPDEST PUSH1 0x0 PUSH20 0xFFFFFFFFFFFFFFFFFFFFFFFFFFFFFFFFFFFFFFFF AND PUSH1 0x5 PUSH1 0x0 SWAP1 SLOAD SWAP1 PUSH2 0x100 EXP SWAP1 DIV PUSH20 0xFFFFFFFFFFFFFFFFFFFFFFFFFFFFFFFFFFFFFFFF AND PUSH20 0xFFFFFFFFFFFFFFFFFFFFFFFFFFFFFFFFFFFFFFFF AND EQ PUSH2 0x4F8 JUMPI PUSH1 0x5 PUSH1 0x0 SWAP1 SLOAD SWAP1 PUSH2 0x100 EXP SWAP1 DIV PUSH20 0xFFFFFFFFFFFFFFFFFFFFFFFFFFFFFFFFFFFFFFFF AND PUSH20 0xFFFFFFFFFFFFFFFFFFFFFFFFFFFFFFFFFFFFFFFF AND PUSH2 0x8FC PUSH1 0x4 SLOAD SWAP1 DUP2 ISZERO MUL SWAP1 PUSH1 0x40 MLOAD PUSH1 0x0 PUSH1 0x40 MLOAD DUP1 DUP4 SUB DUP2 DUP6 DUP9 DUP9 CALL SWAP4 POP POP POP POP ISZERO DUP1 ISZERO PUSH2 0x4F6 JUMPI RETURNDATASIZE PUSH1 0x0 DUP1 RETURNDATACOPY RETURNDATASIZE PUSH1 0x0 REVERT JUMPDEST POP JUMPDEST CALLVALUE PUSH1 0x4 DUP2 SWAP1 SSTORE POP CALLER PUSH1 0x5 PUSH1 0x0 PUSH2 0x100 EXP DUP2 SLOAD DUP2 PUSH20 0xFFFFFFFFFFFFFFFFFFFFFFFFFFFFFFFFFFFFFFFF MUL NOT AND SWAP1 DUP4 PUSH20 0xFFFFFFFFFFFFFFFFFFFFFFFFFFFFFFFFFFFFFFFF AND MUL OR SWAP1 SSTORE POP CALLVALUE PUSH1 0x1 PUSH1 0x0 CALLER PUSH20 0xFFFFFFFFFFFFFFFFFFFFFFFFFFFFFFFFFFFFFFFF AND PUSH20 0xFFFFFFFFFFFFFFFFFFFFFFFFFFFFFFFFFFFFFFFF AND DUP2 MSTORE PUSH1 0x20 ADD SWAP1 DUP2 MSTORE PUSH1 0x20 ADD PUSH1 0x0 KECCAK256 DUP2 SWAP1 SSTORE POP JUMP JUMPDEST PUSH1 0x3 SLOAD TIMESTAMP GT PUSH2 0x5CA JUMPI PUSH1 0x40 MLOAD PUSH32 0x8C379A000000000000000000000000000000000000000000000000000000000 DUP2 MSTORE PUSH1 0x4 ADD PUSH2 0x5C1 SWAP1 PUSH2 0x952 JUMP JUMPDEST PUSH1 0x40 MLOAD DUP1 SWAP2 SUB SWAP1 REVERT JUMPDEST PUSH1 0x0 DUP1 SLOAD SWAP1 PUSH2 0x100 EXP SWAP1 DIV PUSH20 0xFFFFFFFFFFFFFFFFFFFFFFFFFFFFFFFFFFFFFFFF AND PUSH20 0xFFFFFFFFFFFFFFFFFFFFFFFFFFFFFFFFFFFFFFFF AND CALLER PUSH20 0xFFFFFFFFFFFFFFFFFFFFFFFFFFFFFFFFFFFFFFFF AND EQ PUSH2 0x658 JUMPI PUSH1 0x40 MLOAD PUSH32 0x8C379A000000000000000000000000000000000000000000000000000000000 DUP2 MSTORE PUSH1 0x4 ADD PUSH2 0x64F SWAP1 PUSH2 0x9E4 JUMP JUMPDEST PUSH1 0x40 MLOAD DUP1 SWAP2 SUB SWAP1 REVERT JUMPDEST PUSH1 0x0 DUP1 SLOAD SWAP1 PUSH2 0x100 EXP SWAP1 DIV PUSH20 0xFFFFFFFFFFFFFFFFFFFFFFFFFFFFFFFFFFFFFFFF AND PUSH20 0xFFFFFFFFFFFFFFFFFFFFFFFFFFFFFFFFFFFFFFFF AND PUSH2 0x8FC PUSH1 0x4 SLOAD SWAP1 DUP2 ISZERO MUL SWAP1 PUSH1 0x40 MLOAD PUSH1 0x0 PUSH1 0x40 MLOAD DUP1 DUP4 SUB DUP2 DUP6 DUP9 DUP9 CALL SWAP4 POP POP POP POP ISZERO DUP1 ISZERO PUSH2 0x6C0 JUMPI RETURNDATASIZE PUSH1 0x0 DUP1 RETURNDATACOPY RETURNDATASIZE PUSH1 0x0 REVERT JUMPDEST POP JUMP JUMPDEST PUSH1 0x0 DUP2 SWAP1 POP SWAP2 SWAP1 POP JUMP JUMPDEST PUSH2 0x6D6 DUP2 PUSH2 0x6C3 JUMP JUMPDEST DUP3 MSTORE POP POP JUMP JUMPDEST PUSH1 0x0 PUSH1 0x20 DUP3 ADD SWAP1 POP PUSH2 0x6F1 PUSH1 0x0 DUP4 ADD DUP5 PUSH2 0x6CD JUMP JUMPDEST SWAP3 SWAP2 POP POP JUMP JUMPDEST PUSH1 0x0 PUSH20 0xFFFFFFFFFFFFFFFFFFFFFFFFFFFFFFFFFFFFFFFF DUP3 AND SWAP1 POP SWAP2 SWAP1 POP JUMP JUMPDEST PUSH1 0x0 PUSH2 0x722 DUP3 PUSH2 0x6F7 JUMP JUMPDEST SWAP1 POP SWAP2 SWAP1 POP JUMP JUMPDEST PUSH2 0x732 DUP2 PUSH2 0x717 JUMP JUMPDEST DUP3 MSTORE POP POP JUMP JUMPDEST PUSH1 0x0 PUSH1 0x20 DUP3 ADD SWAP1 POP PUSH2 0x74D PUSH1 0x0 DUP4 ADD DUP5 PUSH2 0x729 JUMP JUMPDEST SWAP3 SWAP2 POP POP JUMP JUMPDEST PUSH1 0x0 DUP1 REVERT JUMPDEST PUSH2 0x761 DUP2 PUSH2 0x717 JUMP JUMPDEST DUP2 EQ PUSH2 0x76C JUMPI PUSH1 0x0 DUP1 REVERT JUMPDEST POP JUMP JUMPDEST PUSH1 0x0 DUP2 CALLDATALOAD SWAP1 POP PUSH2 0x77E DUP2 PUSH2 0x758 JUMP JUMPDEST SWAP3 SWAP2 POP POP JUMP JUMPDEST PUSH1 0x0 PUSH1 0x20 DUP3 DUP5 SUB SLT ISZERO PUSH2 0x79A JUMPI PUSH2 0x799 PUSH2 0x753 JUMP JUMPDEST JUMPDEST PUSH1 0x0 PUSH2 0x7A8 DUP5 DUP3 DUP6 ADD PUSH2 0x76F JUMP JUMPDEST SWAP2 POP POP SWAP3 SWAP2 POP POP JUMP JUMPDEST PUSH1 0x0 DUP3 DUP3 MSTORE PUSH1 0x20 DUP3 ADD SWAP1 POP SWAP3 SWAP2 POP POP JUMP JUMPDEST PUSH32 0x41756374696F6E20686173207374617274656400000000000000000000000000 PUSH1 0x0 DUP3 ADD MSTORE POP JUMP JUMPDEST PUSH1 0x0 PUSH2 0x7F8 PUSH1 0x13 DUP4 PUSH2 0x7B1 JUMP JUMPDEST SWAP2 POP PUSH2 0x803 DUP3 PUSH2 0x7C2 JUMP JUMPDEST PUSH1 0x20 DUP3 ADD SWAP1 POP SWAP2 SWAP1 POP JUMP JUMPDEST PUSH1 0x0 PUSH1 0x20 DUP3 ADD SWAP1 POP DUP2 DUP2 SUB PUSH1 0x0 DUP4 ADD MSTORE PUSH2 0x827 DUP2 PUSH2 0x7EB JUMP JUMPDEST SWAP1 POP SWAP2 SWAP1 POP JUMP JUMPDEST PUSH32 0x596F752061726520746865206869676865737420626964646572000000000000 PUSH1 0x0 DUP3 ADD MSTORE POP JUMP JUMPDEST PUSH1 0x0 PUSH2 0x864 PUSH1 0x1A DUP4 PUSH2 0x7B1 JUMP JUMPDEST SWAP2 POP PUSH2 0x86F DUP3 PUSH2 0x82E JUMP JUMPDEST PUSH1 0x20 DUP3 ADD SWAP1 POP SWAP2 SWAP1 POP JUMP JUMPDEST PUSH1 0x0 PUSH1 0x20 DUP3 ADD SWAP1 POP DUP2 DUP2 SUB PUSH1 0x0 DUP4 ADD MSTORE PUSH2 0x893 DUP2 PUSH2 0x857 JUMP JUMPDEST SWAP1 POP SWAP2 SWAP1 POP JUMP JUMPDEST PUSH32 0x42696420616D6F756E7420697320746F6F206C6F770000000000000000000000 PUSH1 0x0 DUP3 ADD MSTORE POP JUMP JUMPDEST PUSH1 0x0 PUSH2 0x8D0 PUSH1 0x15 DUP4 PUSH2 0x7B1 JUMP JUMPDEST SWAP2 POP PUSH2 0x8DB DUP3 PUSH2 0x89A JUMP JUMPDEST PUSH1 0x20 DUP3 ADD SWAP1 POP SWAP2 SWAP1 POP JUMP JUMPDEST PUSH1 0x0 PUSH1 0x20 DUP3 ADD SWAP1 POP DUP2 DUP2 SUB PUSH1 0x0 DUP4 ADD MSTORE PUSH2 0x8FF DUP2 PUSH2 0x8C3 JUMP JUMPDEST SWAP1 POP SWAP2 SWAP1 POP JUMP JUMPDEST PUSH32 0x41756374696F6E206973207374696C6C2072756E6E696E670000000000000000 PUSH1 0x0 DUP3 ADD MSTORE POP JUMP JUMPDEST PUSH1 0x0 PUSH2 0x93C PUSH1 0x18 DUP4 PUSH2 0x7B1 JUMP JUMPDEST SWAP2 POP PUSH2 0x947 DUP3 PUSH2 0x906 JUMP JUMPDEST PUSH1 0x20 DUP3 ADD SWAP1 POP SWAP2 SWAP1 POP JUMP JUMPDEST PUSH1 0x0 PUSH1 0x20 DUP3 ADD SWAP1 POP DUP2 DUP2 SUB PUSH1 0x0 DUP4 ADD MSTORE PUSH2 0x96B DUP2 PUSH2 0x92F JUMP JUMPDEST SWAP1 POP SWAP2 SWAP1 POP JUMP JUMPDEST PUSH32 0x4F6E6C79207468652061756374696F6E6565722063616E20656E642074686520 PUSH1 0x0 DUP3 ADD MSTORE PUSH32 0x61756374696F6E00000000000000000000000000000000000000000000000000 PUSH1 0x20 DUP3 ADD MSTORE POP JUMP JUMPDEST PUSH1 0x0 PUSH2 0x9CE PUSH1 0x27 DUP4 PUSH2 0x7B1 JUMP JUMPDEST SWAP2 POP PUSH2 0x9D9 DUP3 PUSH2 0x972 JUMP JUMPDEST PUSH1 0x40 DUP3 ADD SWAP1 POP SWAP2 SWAP1 POP JUMP JUMPDEST PUSH1 0x0 PUSH1 0x20 DUP3 ADD SWAP1 POP DUP2 DUP2 SUB PUSH1 0x0 DUP4 ADD MSTORE PUSH2 0x9FD DUP2 PUSH2 0x9C1 JUMP JUMPDEST SWAP1 POP SWAP2 SWAP1 POP JUMP INVALID LOG2 PUSH5 0x6970667358 0x22 SLT KECCAK256 XOR PUSH21 0xB9BABDFC0BAA613344C94D1777957ABDBFEE78B368 PUSH25 0xBBFB398DAAC7E60664736F6C63430008110033000000000000 "
				},
				"gasEstimates": {
					"creation": {
						"codeDepositCost": "523600",
						"executionCost": "infinite",
						"totalCost": "infinite"
					},
					"external": {
						"auctioneer()": "2556",
						"bids(address)": "2881",
						"endAuction()": "infinite",
						"endTime()": "2430",
						"highestBid()": "2473",
						"highestBidder()": "2536",
						"placeBid()": "infinite",
						"startTime()": "2429",
						"withdrawBid()": "infinite"
					}
				},
				"methodIdentifiers": {
					"auctioneer()": "5ec2c7bf",
					"bids(address)": "62ea82db",
					"endAuction()": "fe67a54b",
					"endTime()": "3197cbb6",
					"highestBid()": "d57bde79",
					"highestBidder()": "91f90157",
					"placeBid()": "ecfc7ecc",
					"startTime()": "78e97925",
					"withdrawBid()": "37271cc7"
				}
			},
			"storageLayout": {
				"storage": [
					{
						"astId": 3,
						"contract": "KAMIL SIR/PROJECT03/AUCTION-CONTRACT/abc.sol:Auction",
						"label": "auctioneer",
						"offset": 0,
						"slot": "0",
						"type": "t_address"
					},
					{
						"astId": 7,
						"contract": "KAMIL SIR/PROJECT03/AUCTION-CONTRACT/abc.sol:Auction",
						"label": "bids",
						"offset": 0,
						"slot": "1",
						"type": "t_mapping(t_address,t_uint256)"
					},
					{
						"astId": 9,
						"contract": "KAMIL SIR/PROJECT03/AUCTION-CONTRACT/abc.sol:Auction",
						"label": "startTime",
						"offset": 0,
						"slot": "2",
						"type": "t_uint256"
					},
					{
						"astId": 11,
						"contract": "KAMIL SIR/PROJECT03/AUCTION-CONTRACT/abc.sol:Auction",
						"label": "endTime",
						"offset": 0,
						"slot": "3",
						"type": "t_uint256"
					},
					{
						"astId": 13,
						"contract": "KAMIL SIR/PROJECT03/AUCTION-CONTRACT/abc.sol:Auction",
						"label": "highestBid",
						"offset": 0,
						"slot": "4",
						"type": "t_uint256"
					},
					{
						"astId": 15,
						"contract": "KAMIL SIR/PROJECT03/AUCTION-CONTRACT/abc.sol:Auction",
						"label": "highestBidder",
						"offset": 0,
						"slot": "5",
						"type": "t_address"
					}
				],
				"types": {
					"t_address": {
						"encoding": "inplace",
						"label": "address",
						"numberOfBytes": "20"
					},
					"t_mapping(t_address,t_uint256)": {
						"encoding": "mapping",
						"key": "t_address",
						"label": "mapping(address => uint256)",
						"numberOfBytes": "32",
						"value": "t_uint256"
					},
					"t_uint256": {
						"encoding": "inplace",
						"label": "uint256",
						"numberOfBytes": "32"
					}
				}
			},
			"userdoc": {
				"kind": "user",
				"methods": {},
				"version": 1
			}
		}
	}
}